S01E0000626F6F746C6F616465722D7370692D657A73702D6372632E733337DE
S3150FE10800501400206939E10F3310E10FB92CE10FD4
S3150FE10810FF10E10FCB13E10F7714E10F000000009A
S3150FE1082000000000000000004008E10F7327E10F10
S3150FE108307F2AE10F7408E10F3F2BE10FA32BE10FA5
S3150FE1084007B0CD5E0100000003000A01703200001F
S3150FE108500000000000001000F00010001138E10F59
S3150FE108601538E10FDB28E10F8739E10FB939E10FD0
S3150FE108700000000013B779FAC925DDB7ADF3CFE074
S3150FE10880F1B614B801010000020000006C3AE10F65
S3150FE108904000000003000A01000000000000000014
S3150FE108A00000000000000000000000000000000052
S3150FE108B0000000003448002101704170704770B5A7
S3150FE108C004460D462078012808D003284FD0042886
S3150FE108D048D0182818BF432849D04DE02A4E7078E2
S3150FE108E0002860780DD1012806D101217170607859
S3150FE108F0A1780918FF2915D01520287040F60410A4
S3150FE1090070BD3178884204D10620287040F6061072
S3150FE1091070BD491CC9B28842E9D01520287040F64E
S3150FE10920051070BD00228021E01C00F041F804F1B2
S3150FE109308301020A0B789A4204D01520287040F6FB
S3150FE10940021070BD497800F0FF00884204D01520EF
S3150FE10950287040F6011070BD60783070062129705D
S3150FE10960002070BD0620287040F6071070BD1821D3
S3150FE10970297040F6081070BD1820287040F6031054
S3150FE1098070BD0148007870474C0400200A0A42EA1C
S3150FE1099001225040C0F30311484080EA0030410183
S3150FE109A00206C9B2D20E41EA0221484080B270472F
S3150FE109B070B504460D461046002604E00146A05DDB
S3150FE109C0FFF7E4FF761CAE42F8D370BD02487047DD
S3150FE109D002487047024870474A43E00F6A43E00F07
S3150FE109E08642E00F10B5A448016841F48011016019
S3150FE109F00024A248026842F008020260016841F051
S3150FE10A002001016001219E4800F08EF901230422A5
S3150FE10A10072100F044F801230122062100F03FF8F7
S3150FE10A2001230122082100F03AF8012301220921CD
S3150FE10A3000F035F893494FF0013088670E224A6787
S3150FE10A4040F201400B6803430B6005224A604523E0
S3150FE10A50CB604FF0E0618C48016000220262C26216
S3150FE10A604263C2664FF4602388490B608A604C602B
S3150FE10A70874A0A638C634C63836A00BF92A29B0821
S3150FE10A809B009208836292008A610121C1638268A9
S3150FE10A9042F002028260BDE8104000F091B90020F9
S3150FE10AA000F009BA764A7748022100F073BA38B5F1
S3150FE10AB00D46322D044602D341F2031032BD00F04A
S3150FE10AC021F810B141F2061032BD724902E0225C03
S3150FE10AD00A54401CA842FAD3486B6D1E65F30E10FB
S3150FE10AE04863343189086C488900016002226B49F9
S3150FE10AF00A6000F007F80028FBD0012000F019F892
S3150FE10B00002032BD67486649026893070DD5332049
S3150FE10B100246654800680B68C0F30A10C3F3014348
S3150FE10B201818401C8242F3D170470868C0F30140A0
S3150FE10B3070475E4920B1086840F0010008607047D0
S3150FE10B400A68520852000A60002101206AE05849FA
S3150FE10B5010B180200860704740220A6070475548FF
S3150FE10B60006840F20111884208BF002006D040F22A
S3150FE10B70022188420EBF96204F49401A4F4A11680B
S3150FE10B80814201D10020704701D2401A7047C1F569
S3150FE10B90967140187047F8B506460F4615467BB174
S3150FE10BA0069C1CB10021204600F02CF9FFF7D7FF78
S3150FE10BB0B84205D2002CF9D000F03AF90028F5D069
S3150FE10BC0FFF7CDFFB84202D2FFF7C9FF0746002074
S3150FE10BD03B493A4A384B05E0002414600C6844F06F
S3150FE10BE002040C60B84210D2146813F804C006F878
S3150FE10BF000C0401C641CB4F5967F1460ECD0962CB3
S3150FE10C00F0D10C6844F00104EBE705B12860002050
S3150FE10C10F2BD80B500210091012300220121FFF7EA
S3150FE10C20BAFF02BD30B5264A214B50B1906920F08B
S3150FE10C30020090614FF48064106A20F002001062A6
S3150FE10C401C60C1B1002490691FA14008400090616A
S3150FE10C508908106A4008400010628900194801604E
S3150FE10C604FF4006515490C601D6001205063116852
S3150FE10C7041F00201116030BD00400E40B0400E4020
S3150FE10C80006204000008014000200E4080200E4063
S3150FE10C9001000E0080000020C8200E403C200E40CF
S3150FE10CA01008014020200E40BC200E407408014080
S3150FE10CB00C08014094200E40CC020020480400208D
S3150FE10CC008200E4098200E40500910031C080140E1
S3150FE10CD0CC02002013000000090000000001000013
S3150FE10CE00202000013000000500910031C08014026
S3150FE10CF0620300201300000009000000000200005B
S3150FE10D0001010000D3FFFFFF890001EB401101F163
S3150FE10D1084410A607047DFF874104A68D30702D43A
S3150FE10D200A680242FCD1704770B50C460246110AB9
S3150FE10D3001F00F010020491E0929DFF8545013D89D
S3150FE10D40DFE801F005131212071518121B1FDFF862
S3150FE10D503850C2F3043608B1FFF7DDFF22463146BC
S3150FE10D602846BDE87040CFE770BD1035F1E7303565
S3150FE10D700120EEE738351020EBE740354FF48030B0
S3150FE10D80E7E7DFF81050E4E700400E4040410E4040
S3150FE10D90B0400E4050410E401CB5044600F0C4F879
S3150FE10DA02E49B0FBF1F044430722B4FBF2F2521C99
S3150FE10DB000920098411E00280091FAD113BD000060
S3150FE10DC0F8B52748016841F48011016025480268AA
S3150FE10DD042F00102026000F0A7F84FF47A71B0FB1E
S3150FE10DE0F1F0214A24A1800A50601022684600F0F2
S3150FE10DF0F5F80A208DF8020069461C4800F032F931
S3150FE10E0005B000BD30B51A4B174C1D69626802FB80
S3150FE10E1000506080ADB26088A8429241D20F227035
S3150FE10E2011B119698142FCD101201860586030BDBA
S3150FE10E300D4A1049107820B10B68D80706D4002067
S3150FE10E4070470868C30701D5012070478869518843
S3150FE10E5088428041C043C00F7047000040420F00F7
S3150FE10E6000400E40C0400E4040040020008001408B
S3150FE10E70148001400C8001400100000000000000D9
S3150FE10E80000000000000000010B500F00DF804F1BD
S3150FE10E90806404E010B500F007F804F1C0640123A3
S3150FE10EA003FA01F1216010BD30221E4B5043184465
S3150FE10EB000F10C047047F8B50546174638000E46A3
S3150FE10EC01C4607D0002C284602D0FFF7E3FF01E0CE
S3150FE10ED0FFF7DAFF2A4630201249424388180F22DC
S3150FE10EE0082E05D2B300416800F015F8416006E01F
S3150FE10EF0A6F108039B00816800F00DF881604FB9F8
S3150FE10F00002C3146284602D0BDE8F440C2E7BDE8E1
S3150FE10F10F440B9E7F1BD9A4021EA020207FA03F17B
S3150FE10F201143704700A0004010B51449086800F05E
S3150FE10F300700022808BF124A18D0124B1868C0F3EF
S3150FE10F400440112828BF104A10D200BF16A20F4C39
S3150FE10F50125C0F484243A24208D11B685B0E012087
S3150FE10F6003F0030322469840B2FBF0F2C86EC0F3DA
S3150FE10F700420401CB2FBF0F010BD000094400E407F
S3150FE10F8000F0490210400E40C0EA210100093D0080
S3150FE10F9040420F0040F60A41C1600023436700213A
S3150FE10FA01046FFF7C1BE00000400000700000D1058
S3150FE10FB013001A20263038404800000062B38B0731
S3150FE10FC008D0521E11F8013B00F8013B00F02480D6
S3150FE10FD08B07F6D1830740F0208000BF103A07D385
S3150FE10FE030B4B1E83810103AA0E83810F9D230BC75
S3150FE10FF0530724BFB1E80810A0E8081044BF51F821
S3150FE11000043B40F8043BD20724BF31F8022B20F80A
S3150FE11010022B44BF0B7803707047083A07D3B1E848
S3150FE110200810083A40F8043B40F804CBF7D25307CF
S3150FE11030E4E7FEE7074988421CBF074A904205D01D
S3150FE11040064988421CBF064A904201D101207047EA
S3150FE1105000207047008001400084014000A001405C
S3150FE1106000A401402DE9F04104460D46FFF7E2FFEA
S3150FE11070287808B902216160002262626978002945
S3150FE11080697A14BF402300230029A97A14BF802669
S3150FE1109000260029E97A14BF202700270029297B9A
S3150FE110A014BF4FF0100C944601B1082195F803E0F7
S3150FE110B0AA7895F807804FEA0E4E4EEA026EAA79A4
S3150FE110C04EEA822242EA082E2A7A42EA0E021343B6
S3150FE110D033433B434CEA03030B43297900296979EF
S3150FE110E014BF4FF40052002209B14FF08051134360
S3150FE110F00B43236008B101206060BDE8F081FEE794
S3150FE111000020704700207047094801680869704759
S3150FE111100848006870470648006870470548064A60
S3150FE1112000680168914201D100697047002070475C
S3150FE111302808E10F2800E10FAD1007B00120704735
S3150FE11140890001EB401101F184410A60704710B546
S3150FE111500A684B688C68C9680260036004600160C5
S3150FE1116010BDF4E710B502680368046800680A6009
S3150FE111708C604B60C86010BD38B5102A04460D4629
S3150FE111800DD101220021FFF7DBFF04F58874294613
S3150FE111902046FFF7DCFF05F11001204606E00022AD
S3150FE111A00021FFF7CDFF294604F12400BDE83440C5
S3150FE111B0CDE71FB50C4614F0030108D06946FFF7DA
S3150FE111C0D1FF102269462046FFF7F8FE1FBD2146E3
S3150FE111D0FFF7C8FF1FBD1FB5044611F0030008D086
S3150FE111E010226846FFF7EAFE69462046FFF7B9FF88
S3150FE111F01FBD2046FFF7B5FF1FBD38B5044611F0F9
S3150FE11200030088B015460CD0082D0CBF1022202202
S3150FE112106846FFF7D3FE2A4669462046FFF7ACFF3D
S3150FE1122002E02046FFF7A8FF09B030BD00281CBF3A
S3150FE11230242100F0CBB8704770B505000C4618BFF6
S3150FE11240002C164602D16FF0210070BD242100F06B
S3150FE11250BDF8802E18BFB6F5807F02D06FF0220061
S3150FE1126070BD2E60F2082146281DFFF7A7FE00206C
S3150FE1127070BD594605F180009BE7484600F0A9B8D5
S3150FE112802DE9F64F83B0002A14BF14680024002716
S3150FE11290009000281CBF0F9E002E09D0DDF840807C
S3150FE112A0B8F1000F1CBF0193002B01D00E9810B9B6
S3150FE112B06FF0210075E0009800680291802818BF51
S3150FE112C0B0F5807F04D06FF022006AE000F06CF891
S3150FE112D00298874261D2002CF8D100F084F80546D6
S3150FE112E0002068604FF4404129604FF0000A00F09A
S3150FE112F0A5F881460098016880290CBF08221022C3
S3150FE11300011D2846FFF779FF019905F18400FFF7E3
S3150FE1131062FFFFF7B2FF0298A0EB070913E000F0B7
S3150FE113204EF80AF1010A00F089F88346F11905F141
S3150FE11330A000FFF750FF08EB0701FFF79BFF5846A9
S3150FE1134000F047F81037BAEB191F15D24820A860FD
S3150FE113500521A960E3E76CB94820A8600521A960DA
S3150FE1136000F02DF800F06AF881460E99FFF782FF3B
S3150FE11370FFF783FF00F018F80298C01BEBD100F0DE
S3150FE113805DF88146019905F18400FFF712FFFFF73A
S3150FE1139074FF284600F032F89AE7049800B104602A
S3150FE113A0002005B0BDE8F08F0E9AF15D105D41406A
S3150FE113B008F80710641C04F00F047F1C70472869B6
S3150FE113C08107FCD40320A8607047FEE7002200F0F6
S3150FE113D039B800B962B67047890001EB401101F1E6
S3150FE113E084410A60704780B5FFE7012200210C486E
S3150FE113F0FFF7F2FF0B4802BD0000000009498842E2
S3150FE1140008D1002009A101EBC00300225968044865
S3150FE11410E2E7704704498842FBD10120F2E7000079
S3150FE11420B0400E4000000F4000040F4000000F4097
S3150FE114300000000000040F4001000000EFF31080F0
S3150FE1144072B6704700B500BF130096469446103941
S3150FE1145028BFA0E80C50FAD85FEA417C28BF0CC040
S3150FE1146048BF40F8042BC90728BF20F8022B48BF15
S3150FE1147000F8012B00BDFEE710B50A684B688C68D2
S3150FE11480C968026003600460016010BD10B50268AF
S3150FE114900368046800680A608C604B60C86010BD21
S3150FE114A038B504460D46FFF7F1FF05F11001204669
S3150FE114B0BDE83440EAE72DE9F84F98B006460C4609
S3150FE114C090469A46FFF78FFF05461EB1022E52D080
S3150FE114D051D352E000202860002169600020E864C2
S3150FE114E0696821F4406169602863686354F82010E4
S3150FE114F009BA4DF82010401C0828F7D3FFF79EFFD5
S3150FE11500044605F5827669463046FFF7B5FF04A92D
S3150FE115103046FFF7B1FF2046FFF75BFF2F482865FF
S3150FE115200027229C05F5D276A74242D218F0030096
S3150FE1153008EB871906D04022494608A8FFF73EFD7A
S3150FE115400DF12009FFF77AFF8346494600F04CF883
S3150FE1155009F1100100F048F809F1200100F044F813
S3150FE1156009F1300100F040F85846FFF732FF1C4809
S3150FE1157028657F1CD8E70420ADE71A4816E0FFF788
S3150FE115805DFF044651463046FFF78AFF2046FFF7D7
S3150FE1159020FF2846FFF732FF00205AF8201009BA3C
S3150FE115A04AF82010401C0828F7D3002019B0BDE8EF
S3150FE115B0F08F1AF0030005F58076E0D0FFF73EFFD6
S3150FE115C0044669463046FFF76BFF2046FFF701FFFA
S3150FE115D0202269465046FFF7F1FCDAE7888AC8010F
S3150FE115E0070D810180AFFFFF304645E72DE9F84F43
S3150FE115F0022883461FD8140055D00B9AD2F800C0A3
S3150FE11600BCF13F0F984618D85068002818BF5FEA1B
S3150FE11610080A13D1BBF1000F04D0BBF1020F07D0BB
S3150FE1162003D308E00FF2AC1A08E00FF2C81A05E08F
S3150FE116300FF2E01A02E04A4836E0C2460CF03F06E6
S3150FE11640A444A445C6F14005C2F800C002D25068D1
S3150FE11650401C506089460A9F8EB1AC420FD32A4691
S3150FE11660B819FFF7ABFC0120009043463A465146C5
S3150FE116705846FFF720FFC246A944641B00263F2CBC
S3150FE116800BD9A509009543464A4651465846FFF7F9
S3150FE1169012FF09EB8519A4EB851424B122464946BD
S3150FE116A0B819FFF78BFC0020BDE8F28F2DE9F8435F
S3150FE116B00446200086B0884616461F4603D0022C04
S3150FE116C030D02DD330E01425002100200DF1080C88
S3150FE116D04242920057F82030D21D01EBC3010CF8BC
S3150FE116E0021002A9114457F82020C91E52098A7027
S3150FE116F057F82020520B4A7057F82020520D0A70E6
S3150FE1170057F82010490F401C0128E1D93A7802F029
S3150FE117103F02382A34BFC2F13802C2F1780205E03E
S3150FE117201C25D1E72025CFE70D4816E0DDF83890E7
S3150FE1173040A10197009643462046FFF757FF0197D1
S3150FE1174000964346082202A92046FFF74FFF2A4695
S3150FE1175041464846FFF732FC002007B0BDE8F0836B
S3150FE1176080AFFFFF00281CBF6C21FFF72FBE70472C
S3150FE11770002200290260CCBF01210021426080F8DE
S3150FE117806810002070473EB590F868300190002B45
S3150FE1179014BF0124022400F1280500F10803009586
S3150FE117A02046FFF723FF3EBD80B5034603F128022E
S3150FE117B093F868000091002814BF0120022003F17D
S3150FE117C0080103E0D4E70000DDE7EDE7FFF76EFF81
S3150FE117D002BD000067452301EFCDAB8998BADCFE68
S3150FE117E010325476C3D2E1F0000000000000000091
S3150FE117F000000000C1059ED8367CD5073070DD1795
S3150FE11800F70E5939FFC00B316858151164F98FA7D7
S3150FE11810BEFA4FA46A09E667BB67AE853C6EF37203
S3150FE11820A54FF53A510E527F9B05688C1F83D9ABB5
S3150FE118305BE0CD1980000000000000000000000011
S3150FE1184000000000000000000000000000000000A2
S3150FE118500000000000000000000000000000000092
S3150FE118600000000000000000000000000000000082
S3150FE1187000000000890001EB401101F18441086885
S3150FE1188070473022DFF8783450431A1802F11C0002
S3150FE11890F0E710B500F00DF804F1806404E010B53F
S3150FE118A000F007F804F1C064012303FA01F12160A6
S3150FE118B010BD3022DFF848345043184400F10C04D0
S3150FE118C0704780B5DFF83C04016841F4801101608F
S3150FE118D00123DFF83404026842F0080202600A21AC
S3150FE118E004220320FFF7E7FA012302220B2103204B
S3150FE118F0FFF7E1FABDE80140FFF774B880B500F0F4
S3150FE11900E1F900F025F9DFF804140420087000224C
S3150FE11910DFF8FC0302700923A721032243708170CC
S3150FE119200262FEF7C7FF002002BD0000FEB5DFF839
S3150FE11930DC43DFF8E053202305F1D80205F19001EE
S3150FE1194004F10C0000F042FBDFF8C46320780428B1
S3150FE11950FCD8DFE800F072044C676700F6E7002079
S3150FE11960FFF7F5F801210020FFF75CF9E07820B1E8
S3150FE119704FF4FA70FFF710FA37E0E9780A2922D027
S3150FE119800B2928D0FD2918BFFE292BD1FD20307058
S3150FE11990A7220121F2703162284600F0EDF8B0700E
S3150FE119A0306A7070C11CB0783162182818BF0221F5
S3150FE119B00FD1DFF86403182201210270016285F865
S3150FE119C08C10022105E08220A7220221307072706D
S3150FE119D0316221700BE0C121A722022031707270B2
S3150FE119E0306203E0042000F05FF902202070316AD3
S3150FE119F03046FFF75CF850B900F0AAF8FFF782F826
S3150FE11A00316A8842FAD200F08FF90020E07000F0D7
S3150FE11A109CF80028FBD00020FFF78BF8A078C0B127
S3150FE11A200321217000F091F80028FBD01420FFF775
S3150FE11A30B3F900F08DF80020207000F086F8002849
S3150FE11A40FBD00120FFF783F8607941F2883708B3BD
S3150FE11A5026E095F88C10607851EA0002EBD000226F
S3150FE11A600029227043D1002844D0AC4C207881075D
S3150FE11A700ED5AB48026860689168814204D2FFF7E0
S3150FE11A804DFB616A00F067FF40F2022000F08EFF26
S3150FE11A900020FEBD00214FF47A7003E00D292CD210
S3150FE11AA000213846FFF7AEF900F04FF840B300F0EA
S3150FE11AB009F9FFF7BDF90028F6D0A0780028F3D190
S3150FE11AC0A1686079491C0028A160E7D13D2914D2AC
S3150FE11AD0E0E70199281D425CA72A04D10120207075
S3150FE11AE03DE7A72FFAD0032000F0DEF8F6E740F244
S3150FE11AF00570FEBD40F20370FEBD40F20470FEBDFF
S3150FE11B00FF20E870E81CFFF784F8E878FF28F9D0A2
S3150FE11B1000F00AF9281DFFF77CF8E8782F79FD2800
S3150FE11B2018BFFE28DDD1862FA4BF012000F0BCF837
S3150FE11B304FF4FA700090012301AA791C681DFFF793
S3150FE11B402AF80028C5D00220CEE70921002098E621
S3150FE11B500A2103209DE680B5FEF7A4FF00230022AC
S3150FE11B600A210320FFF7A7F9BDE800500023002261
S3150FE11B700B210320FFF79FB92DE9FC410646664C81
S3150FE11B803179624D012904BF707951281CD1A878AA
S3150FE11B9070B1266A5E4F32462146B81CFFF70EFA40
S3150FE11BA0B91CA7238B553E620020A870B8785BE07D
S3150FE11BB05FF01A025EA12046FFF710FA1A202062A3
S3150FE11BC00121A97029714FE0287908B94D204BE021
S3150FE11BD07079012803D1852918BF262044D101A99F
S3150FE11BE0701DFEF76CFE07469DF804109DF8040084
S3150FE11BF02070062906D1FEF7C4FE60700020A070A2
S3150FE11C00032000E0012020620120A870DFF80C819B
S3150FE11C1097B140F601117F1A28D07F1E28D07F1E7B
S3150FE11C2040D07F1E26D07F1E28D07F1E24D07F1E58
S3150FE11C3026D07F1E34D016E06871002143A0A9603B
S3150FE11C400090802306F10802414605F10C0000F0F1
S3150FE11C50F9F910B198F8020028B198F80200F8B135
S3150FE11C6098F80300E0B91820BDE8F6812420FBE7D8
S3150FE11C702320F9E72220F7E72720F5E72520F3E7E9
S3150FE11C8098F8020000281CBF98F803000028EAD054
S3150FE11C9001216970FEF775FE401C60701720E3E7BE
S3150FE11CA01920E1E72120DFE7184AD17849B9184928
S3150FE11CB0087000204870A72303208B70086201216A
S3150FE11CC0D170704780B50A211648FFF7D3FDB0B141
S3150FE11CD00B210320FFF7D5FD88B9FFF739FF0B215C
S3150FE11CE00320FFF7CEFD0028F9D01420FFF754F8B3
S3150FE11CF000F01AF8BDE802403220FFF74DB801BDFA
S3150FE11D0000A0004000400E40B0400E40C40000204D
S3150FE11D10F8030020880100201C0400206001002048
S3150FE11D202808E10F9CA000400A210320B7E5000037
S3150FE11D305201FFFF0000000000000000000000005C
S3150FE11D400000000000041809010A0000000000006D
S3150FE11D506728E10F000000008F28E10F2DE9F84316
S3150FE11D601E467368002B4ED00C4614F0030118BFC4
S3150FE11D7041F2020048D115460746FFF7C5F9396E1C
S3150FE11D80001D6A18824221D300F1180399421DD230
S3150FE11D908C46844538BF844605EB010800F11802ED
S3150FE11DA0904588BF9046ACEB0101ACEB000004EB2C
S3150FE11DB00109A8EB0C083844424649466830FFF75B
S3150FE11DC0FDF8FF224146484600F026FEFFF7A6F949
S3150FE11DD0396E001D884222BF6A18031D9A4209D344
S3150FE11DE0411A601807F1800102680A600421FF2297
S3150FE11DF000F012FE21463368386E74682A46A04712
S3150FE11E00386E2D183D660020BDE8F28370B54B683C
S3150FE11E108C689C4206D200F140021B1B14781B19F9
S3150FE11E20412B01D3002070BD537814780D68E41867
S3150FE11E308B68EE5C04F03F0406558C68641C8C607D
S3150FE11E4013785B1C13708C684B689C42ECD30120B2
S3150FE11E5070BD90F840004A6889681018401A7047BB
S3150FE11E602DE9F0410C4617461D468046FFF7F1FF77
S3150FE11E70A84208F1400606D221464046FFF7C6FFC3
S3150FE11E8010B300204DE000210CE0707818F8002027
S3150FE11E907A54491C737830785B1C03F03F03421E7A
S3150FE11EA073703270307808B1A942EED3A0686268D8
S3150FE11EB0904238BFA9420CD22368185C7854491C6A
S3150FE11EC0A268521CA260F1E71220B07141F2020042
S3150FE11ED027E0A942F8D1069CB26C2946384600F0B4
S3150FE11EE0CFFDB06424B1F0682A46394600F0ECFD27
S3150FE11EF0079838B1F07878B1B0682B463A4639464B
S3150FE11F0000F00AFEF07838B1F069B1692818F0618E
S3150FE11F10884224BF0020F07070692D18756141F277
S3150FE11F200300BDE8F081F8B584B0144600260546F6
S3150FE11F3001960096082302AAFFF792FF41F20306E4
S3150FE11F40B0423CD195F8430005F1480738B100F0AE
S3150FE11F5038F83868082302AA02A900F0DDFD9DF8DA
S3150FE11F600A209DF80B009DF80910120442EA00625F
S3150FE11F709DF8080042EA0122024322609DF80E0015
S3150FE11F809DF80F10000440EA01609DF80D1040EA3C
S3150FE11F9001209DF80C100843606095F8430048B99D
S3150FE11FA0DFF868178A421CBFDFF86407824201D067
S3150FE11FB000F007F86068B8600021F960304605B0B7
S3150FE11FC0F0BD7868082202A900F07EBDF8B5064695
S3150FE11FD006F140070020B8717870F87038710D4638
S3150FE11FE000214FF0FF303970797103F02003B864A7
S3150FE11FF0396279621446BB70FF22182106F1680037
S3150FE1200000F00AFDFF22042106F1800000F004FD35
S3150FE12010FF22042106F1840000F0FEFCBD60FC60A6
S3150FE12020FFF770F800B11DB1FFF76AF818B114B9EF
S3150FE1203041F20B00F2BD14B1F86800F03BFD002050
S3150FE12040F2BD00002DE9FB4F82460021002300245B
S3150FE120509AB005A880E81A00059209910AF1480697
S3150FE120601C9A269D06920AF1420710E000F076FBD4
S3150FE120700899884233D10498B0600021F160039842
S3150FE12080DFF89016884240F0468102223A710798AE
S3150FE120901C99884280F0D38241F2030208920DF136
S3150FE120A0280839791229F2D8DFE811F01400150062
S3150FE120B0CD0235010C030E03E70257010E03520160
S3150FE120C00E0352012402C60211039A029D02D701A1
S3150FE120D0C602DCE7CAE700F041FB0899884240F007
S3150FE120E0AF82B87820B10398DFF82416884246E02C
S3150FE120F03A78D1074DD5787800284AD10398DFF899
S3150FE12100141688421CBFDFF81016884225D0DFF877
S3150FE121100C1688421FBFDFF808168842DFF804164F
S3150FE1212088421AD0DFF80016884222D0DFF8DC1594
S3150FE12130884265D0DFF8F415884213D0DFF8F01541
S3150FE1214088420DD0DFF8C815884215D0DFF8E415BF
S3150FE1215088421CBFDFF8E015884200F0DC8010E012
S3150FE121600E2293E70F2038710020B168316170615B
S3150FE121708DE71221397166E0FEF7C2FF00283DD1E6
S3150FE1218038E01220387103A800F0D5FC00285AD0A8
S3150FE12190A8E20398DFF8841588421AD0DFF8801594
S3150FE121A0884214D0DFF87C15884215D0DFF85C152C
S3150FE121B0884221D0DFF85815884214D0DFF874151C
S3150FE121C088420ED0DFF87015884208D01AE0042253
S3150FE121D05CE7062038715AE70721397157E709207D
S3150FE121E0F8E70B21F9E7FEF78BFF002804BF7878B4
S3150FE121F0002803D10C21F0E77878002840F08B8096
S3150FE122001021EAE703A800F096FCA8B103987064E1
S3150FE1221011213971039800F090FC09903878810605
S3150FE12220DCD5099800281CBF41680029D6D0504655
S3150FE1223088470028D2D055E212217878397110B14A
S3150FE1224041F20400FCE141F20800F9E198F80500DA
S3150FE1225098F8041041EA00210291C90704D53878AC
S3150FE1226040F00100387002E0FEF74CFF40B9FEF78F
S3150FE1227047FF002800F0E9810298C10500F1E581E9
S3150FE122801220387141F20A00DAE10520F978387146
S3150FE1229041F00101F9700020F061F068082880F043
S3150FE122A01F8201210191009100F05DFA08998842A0
S3150FE122B0EAD1207840F00200207098F8020098F8F1
S3150FE122C003109DF82820000440EA016098F80110F8
S3150FE122D040EA012010436060B0680838606298F800
S3150FE122E0061098F8070098F80420090441EA0061FE
S3150FE122F098F8050041EA002111430291FEF708FF24
S3150FE12300DFF838140068884207D1FEF701FF02991A
S3150FE12310C0688142B9D012213971E3E1012000F0A1
S3150FE1232015FA08998842AFD198F8021098F8030088
S3150FE123309DF82820090441EA006198F8010041EA75
S3150FE12340002111430291B068052824BF0298B061BC
S3150FE12350F0680428E2D30A213FE70020F061082163
S3150FE123603BE72B68F06942460AA9E047F06940442A
S3150FE12370F061B068F168814280F0AF81A0EB0108AE
S3150FE12380B8F1040F05A9504608D3FFF762FD0428FB
S3150FE1239008D205A95046FFF739FD50E1FFF759FD80
S3150FE123A04045F6D3B8F1410F28BF4FF0400800F092
S3150FE123B0C9F9404502D200F0C5F98046B8F1040FDC
S3150FE123C024BF4FEA98004FEA800801200190009060
S3150FE123D0434600F0BEF90899884240F031813879D9
S3150FE123E0082804D1D5F808C0BCF1000FB9D1B8F16E
S3150FE123F0040FC8F1040B06D20AA8FF22594640443E
S3150FE1240000F00AFBD84438790A2806D12B46424612
S3150FE124100AA95046FFF7A2FCABE70528A9D199F81F
S3150FE1242001008107A5D5E8680028A2D0F069052843
S3150FE124300ED208EB000107290AD30AA9091D081ACA
S3150FE124400AF1840201681160FF22042100F0E4FA27
S3150FE124502B68F069D5F80CC085E73978880640F125
S3150FE124604481706C00F069FB0028099040F03D81D2
S3150FE1247038E14FF0010900F065F9484589D3B068B5
S3150FE12480F168A0EB0109B9F1410F28BF4FF04009FF
S3150FE1249000F058F9814502D300F054F98146012045
S3150FE124A0019000904B4600F054F9089988422FD1DC
S3150FE124B0387881060DD5002C1CBFD4F808C0BCF1C5
S3150FE124C0000FD5D02B464A460AA95046E0470028C9
S3150FE124D01ED1F068B168884280F0098138788106AB
S3150FE124E0C7D5002C1CBF21690029C2D050468847A9
S3150FE124F08146C0E7002000F029F90899884207D103
S3150FE12500306C8F49884204D012223A7141F20500AC
S3150FE1251096E0FEF7F5FD18B91B990120C87003E0A7
S3150FE125201B99C87800283FD0F87810F0030F1CBF2D
S3150FE12530EC68002C05D02B6804220AF184010420F3
S3150FE12540A047B06900281CBF686800282CD04FF05F
S3150FE12550FF3102910AF180040422214602A800F01C
S3150FE12560EFFA40B1FEF7DAFD28B121462B686C6828
S3150FE125700422001DA04704220AF1680102A800F017
S3150FE12580DFFA88B1FEF7C0FD2B686C6814220AF1F9
S3150FE125906C010830A047FEF7B7FD2B686C68042283
S3150FE125A00AF16801001DA0471B99012088700D20D3
S3150FE125B0387144E00020012101900091102300F0D1
S3150FE125C0C8F8089988423BD1FEF704FA80210090BA
S3150FE125D00191012330680BAA022100F07AFA78E023
S3150FE125E00120787026E0B87820BB00210191009098
S3150FE125F0402300F0AEF80899884221D1706800F0C7
S3150FE1260065FAFEF7E5F90446FEF7E0F900940346AD
S3150FE12610706812AA0AA900F0C5FA38B11B99002011
S3150FE12620C8701220387141F2060009E01B990120AA
S3150FE12630C870B8700121D0E541F2070000E0002033
S3150FE126401DB0BDE8F08FDDF86C90F068082844D234
S3150FE12650002101200191009000F085F80899884248
S3150FE12660EED198F803000006B0F1407F3FF4EEADEE
S3150FE126701220387141F20900E2E7DDF86C90B36898
S3150FE12680F068984229D201210191009100F061F899
S3150FE1269008998842D4D11C220AA909F10800FEF74C
S3150FE126A09DFC99F8000040F0010089F8000009F15E
S3150FE126B00800FEF743FD0028E1D11220387141F2FF
S3150FE126C00C00BDE71B9CE8E5DDF86C9051E6DDF803
S3150FE126D06C90F0681028FFF46DAFCDF86C90A9E718
S3150FE126E01B94D4E441F20100AAE7099CF1E60994AF
S3150FE126F0387881069ED5002C1CBFE268002A99D056
S3150FE1270029465046904700289AD193E7F70A0AF7E8
S3150FE12710FC0404FCEB17A603EB17A65EF40A0AF416
S3150FE12720F50909F5F60808F6F70909F7F90707F9BB
S3150FE12730FA0606FAFD0303FDFE0101FEAD1007B031
S3150FE12740E320BBDE05A95046FFF783BB019000905E
S3150FE1275004230AAA05A95046FFF782BB03AA05A9D6
S3150FE127605046FFF7E0BB08230AAA05A95046FFF733
S3150FE1277077BBFEE7F8B50446E00A0D461646B4EB1D
S3150FE12780C02004BF204600F04DFA04F50067FF0AAA
S3150FE12790FF0204E0384600F045FA07F50067301905
S3150FE127A08742F7D3324629462046BDE8F84000F086
S3150FE127B055BA00007FB504464FEA0D0071A110220C
S3150FE127C0FEF70CFC002046420DEB0605225CE97B89
S3150FE127D0914205D1401C1028F5D3012004B070BDFC
S3150FE127E00020FBE7B0B505469CB06C6BFEF793FC9A
S3150FE127F007462046FFF7DEFF002832D0207C02286D
S3150FE1280012D22046FFF7D6FF30B1606901280BD10E
S3150FE12810207C022808D2A4693869844228BFAC42D9
S3150FE1282002D354498C4201D300201AE001A800F0EB
S3150FE1283041F9621B294601A800F046F901A800F00B
S3150FE1284045F9FEF7C5F80546FEF7C0F803460095CC
S3150FE1285004F12002214601A800F0A4F9401E8041AF
S3150FE12860C00F1CB0B0BD70B504460D461646FEF757
S3150FE1287052FC01698C4222BF40693219904205D35D
S3150FE12880324629462046BDE8704073E770BD2DE913
S3150FE12890F041044688461646FEF73AFC364900688B
S3150FE128A0884218D1FEF737FC0746FEF737FC2518A5
S3150FE128B07019304988420ED23CB9FEF72FFC79697F
S3150FE128C088423CBF386900F0ADF9324641462846A9
S3150FE128D0BDE8F0414EE7BDE8F081F8B5044625685D
S3150FE128E06768666BFEF717FC05F1604523498D4274
S3150FE128F029D20069874226D31E498F4223D240301F
S3150FE12900864201D38E4205D300F074FA401E804110
S3150FE12910C00FF2BD00F06EFAB8B93046FFF74AFFC5
S3150FE12920B8B1307C02280ED2706990B102280CD171
S3150FE12930B069001D011B4FF0FF32204600F0A0F8F1
S3150FE129400F49884205D00020F2BD2046BDE8F2408E
S3150FE1295048E70120F2BD80B54FF0FF3200F090F865
S3150FE12960074B984204BF40F2092000F01FF8002000
S3150FE1297002BD000001001000AD1007B00100040018
S3150FE12980E320BBDEB814B6F1E0CFF3ADB7DD25C971
S3150FE12990FA79B7134FF0005108804FF20F004880D4
S3150FE129A070470F494CF23C30088070474FF00051A9
S3150FE129B008804FF20F0048800A48016821F4E06170
S3150FE129C041F400710160BFF34F8F074907480A6869
S3150FE129D002F4E06202430A60BFF34F8F00BFFDE7E7
S3150FE129E00200002000500E400CED00E00400FA0555
S3150FE129F04FF000514FF20F024888904201D10888FB
S3150FE12A007047002804BF0888012802D140F202204E
S3150FE12A1070474FF40070704762F30F2262F31F4263
S3150FE12A20401810F0030308D0C91A1FD3DB0748BFBC
S3150FE12A3000F8012D28BF20F8022D130030B41446FB
S3150FE12A401546103928BF20E93C00FAD8490728BFB7
S3150FE12A5020E90C0048BF40F8042D890028BF20F873
S3150FE12A60022D48BF00F8012D30BC7047C91818BFB9
S3150FE12A7000F8012DCB0728BF00F8012D7047FEE7BF
S3150FE12A8030B50A4B1C6844F040041C600125084B25
S3150FE12A901D609A605D6002E010F8014B9C610A4689
S3150FE12AA0511E002AF8D1D86930BD00BFB0400E40A3
S3150FE12AB000C0014010B50446FEF754FE2046BDE8BE
S3150FE12AC010400021FEF77EBEFEF77EBE0146FEF701
S3150FE12AD07CBE2DE9F843089D099F80460E46914637
S3150FE12AE01C46FEF7A3FB3A4629464046FEF7A4FBF2
S3150FE12AF008F124000021016006750C22494608F110
S3150FE12B003900FEF75BFA08F14500210C220A8470C1
S3150FE12B1001704270BDE8F1833EB5029201911C4608
S3150FE12B2000F12805009500F1380300F12402214652
S3150FE12B30FEF7A6FB37BD0020704700207047FEE782
S3150FE12B400300002013F0030F09D0521E22BF13F822
S3150FE12B50010B11F801CBB0EB0C00F3D07047121F4C
S3150FE12B6022BF53F8040B51F804CB6045F7D0121D81
S3150FE12B700AD200BA9CFA8CFCB0EB0C0038BF6FF0AE
S3150FE12B80000088BF01207047521E22BF13F8010BC8
S3150FE12B9011F801CBB0EB0C00F6D0521C08BF104672
S3150FE12BA07047FEE72DE9F84106000D4618BF002DE7
S3150FE12BB0A1B01446984606D0002C18BFB8F1000F05
S3150FE12BC001D0289F17B940F2016023E00121134894
S3150FE12BD0FEF7AAF8402111A8FEF7F8FB414611A826
S3150FE12BE000F0BDFB394619A800F0B9FB01A8402159
S3150FE12BF0FEF7ECFB294601A800F0B1FB214609A837
S3150FE12C0000F0ADFB01A8009011AB2022314604483C
S3150FE12C1000F0B4FB22B0BDE8F081000000050A0028
S3150FE12C2000000F4080B500F0A9FD401E8041C00FA6
S3150FE12C3002BD80B58308800705D54FF6FF7242EADC
S3150FE12C400142009204E041F07F4141F47F0100919E
S3150FE12C5004226946980000F0D2FD02BDF8B505469B
S3150FE12C600E46144605F0010104F00100014321D19E
S3150FE12C70F4B1AA0707D536F8021B2846FFF7D9FFA5
S3150FE12C80C0B9AD1CA41E042C0CD3A708BF003A464D
S3150FE12C903146284600F0B3FD790806EB41067D196A
S3150FE12CA0E41B38B924B131882846FFF7C2FF08B9CA
S3150FE12CB00120F2BD0020F2BD4FF40170FFF776BEA1
S3150FE12CC010B54549454A012048641068444A000E4B
S3150FE12CD009D14AF6E850D0620020536B43F0040362
S3150FE12CE05363D06201E0012803D8106840F4005025
S3150FE12CF010603C48026822F4401242F488120260E6
S3150FE12D00086840F48070086040213748C160026866
S3150FE12D105103FCD400F07CFDFFF743FEFEF7D1FD36
S3150FE12D20FEF7ECFD18B14FF40170FFF73FFEFEF72A
S3150FE12D30FDFD0446FEF70FFF002C19BF40F20370AD
S3150FE12D40844240F20120FFF731FE40F205708442E2
S3150FE12D501BBF40F206718C4240F203204FF4017023
S3150FE12D60FFF724FE002010BD38B520480168012485
S3150FE12D7001254A050AD5FFF73BFE40F20221401A2B
S3150FE12D8007D0C01E05D0C01E012802D900F044FDB0
S3150FE12D9008B1002400250420016811F1010F06D1C5
S3150FE12DA0BDE832404FF40270FFF7F4BD31BD25B1F6
S3150FE12DB00020FFF792FD0400F2D0002CF6D00C496B
S3150FE12DC00020086000221046016881F3088881F32C
S3150FE12DD0098840688746FEE700000E40FC81E00F58
S3150FE12DE064310E4020400E4004300E4004500E4038
S3150FE12DF008ED00E00020704710B50A684B688C6853
S3150FE12E00C968026003600460016010BD10B5026815
S3150FE12E100368046800680A608C604B60C86010BD87
S3150FE12E2038B504460D46FFF7E7FF05F110012046D9
S3150FE12E30BDE83440E0E738B504460D46FFF7E6FF57
S3150FE12E4005F110012046BDE83440DFE7082250F8CE
S3150FE12E50041B21B9521EFAD10020C0B270471000EF
S3150FE12E60FBD00120F9E7F8B500F065F907462946E9
S3150FE12E7004F58470FFF7D4FF314604F58670FFF74A
S3150FE12E80CFFF3846FEF7A5FADFF8DC06206501210C
S3150FE12E9061656069000E00F0010080F00100F2BD8E
S3150FE12EA02DE9F84F88B004460D4692461E46FEF7C9
S3150FE12EB0C5FA834604F5827705F1400100F035F94D
S3150FE12EC004F58678514600F029F904F588790AF177
S3150FE12ED020014846FFF7A4FF00F022F900F038FA87
S3150FE12EE0A065E16504F5847AFEF7A8FA83462946DB
S3150FE12EF000F01BF905F120015046FFF791FF05F1AF
S3150FE12F0040014846FFF78CFF00F00AF9DFF85C064F
S3150FE12F10DFF85C16206561650120A06504F580790F
S3150FE12F20FEF78CFA834606F140014846FFF783FF29
S3150FE12F3069465046FFF77FFF00F0F2F8FEF77EFA9B
S3150FE12F40834600F0EAF800F0EBF8DFF82806DFF841
S3150FE12F502816206561650121DFF8200600F0E7F804
S3150FE12F60804600F0E0F800F02BF9DFF81406DFF801
S3150FE12F70141600F021F8054631465046FFF75BFF80
S3150FE12F802846FEF726FAFEF759FA05466946384608
S3150FE12F90FFF746FF2846FEF71CFADFF8EC05DFF8E8
S3150FE12FA0EC1500F009F8044600F0B3F82046FEF7F9
S3150FE12FB010FA09B0BDE8F08F206561650120A065C3
S3150FE12FC0FEF73CBA2DE9F84F98B000F0B4F8804619
S3150FE12FD004F5827700F0A7F800F0F2F8DFF8B00514
S3150FE12FE0DFF8B0152065616504F58078DFF8A8058F
S3150FE12FF0FFF7E5FF814608A94046FFF71CFF484664
S3150FE13000FEF7E7F9FEF71AFA814600F086F8484629
S3150FE13010FEF7DFF9DFF88405DFF8841520656165D2
S3150FE130204FF48670A06504F58679FEF707FA8246B6
S3150FE1303010A94846FFF7FFFE69464046FFF7FBFE3C
S3150FE130405046FEF7C6F9FEF7F9F9824605F140015A
S3150FE1305000F06BF85046FEF7BCF9DFF8480520653E
S3150FE130600121616504F5847AFEF7E8F9834600F0FC
S3150FE13070C1FA00F055F8DFF83005DFF830152065B5
S3150FE1308061650121DFF8280500F051F883466946AD
S3150FE130905046FFF7C5FE10A94846FFF7C1FE00F0FF
S3150FE130A03FF8DFF81005DFF8101520656165DFF8E9
S3150FE130B00C05FFF784FF8346314604F58870FFF769
S3150FE130C0BAFE00F02DF8FEF7B9F9834600F02BF8BA
S3150FE130D005F140015046FFF7A3FE08A94846FFF761
S3150FE130E09FFE00F01DF8DFF8D804DFF8D81420654D
S3150FE130F06165FEF7A3F9044606F140014046FFF785
S3150FE131009AFE00F006F82046FEF763F919B0BDE81E
S3150FE13110F08F06F1200148468DE6294640467FE6C7
S3150FE131205846FEF756B905F12001384678E6A0650F
S3150FE13130E165FEF783B904460D461646FEF77EB9FD
S3150FE131402DE9F04105460E461C461746202120463D
S3150FE13150FEF73CF901222260FEF770F98046394607
S3150FE1316005F58070FFF75CFE314605F58270FFF7D6
S3150FE1317057FE05F5847621463046FFF751FE00F0FE
S3150FE131801FF8DFF8440428650BE0DFF84014DFF899
S3150FE13190400429656865DFF83C14DFF83C04A9654E
S3150FE131A0E8656869C101F0D5FEF748F9054621469C
S3150FE131B03046FFF740FE2846BDE8F041FEF709B974
S3150FE131C04046FEF706B950F8043B934203D007E0B9
S3150FE131D050F8042B22B9091F0129F9DA01207047AA
S3150FE131E0002070472DE9F04188B004460D4616469A
S3150FE131F0984620216846FEF7E9F801220092202140
S3150FE132004046FEF7E3F8202108F12000FEF7DEF84D
S3150FE13210202108F14000FEF7D9F80521204600F0FC
S3150FE132201DFB0020206020636063FF2700F040F85C
S3150FE1323002D47F1E002FF9DC002F36D442464146D9
S3150FE132402046FFF7BFFE00F033F82CD500222021F0
S3150FE132504046FFF7B8FF00B30022202108F1200016
S3150FE13260FFF7B1FFC8B10022202108F14000FFF7B7
S3150FE13270AAFF90B1202229464046FDF7AFFE202254
S3150FE1328005F1200108F12000FDF7A8FE202269468D
S3150FE1329008F14000FDF7A2FE05E043462A46414606
S3150FE132A02046FFF7FDFD7F1EC6E708B0BDE8F081BA
S3150FE132B0381107EBD060401156F82010A7EB4010FC
S3150FE132C0C140CA0770472DE9F0410F4690B0044659
S3150FE132D01546052100F0C2FA0022226022636263DD
S3150FE132E0684620220FF22031FDF778FE08AB6A46D9
S3150FE132F007F140012046FFF723FFFEF79FF88046CF
S3150FE1330008A904F58270FFF78BFD04F58676394639
S3150FE133103046FFF785FD07F1200104F58870FFF7C9
S3150FE133207FFDFFF74DFF00F013F8FFF700FF0746AC
S3150FE1333005F1200104F58070FFF77DFD2946304642
S3150FE13340FFF779FD3846FEF744F810B0BDE8F08196
S3150FE133508F48A249206561650121A148704738B5BB
S3150FE133600D4604462021FEF731F8FFE71F204242C2
S3150FE13370295C2244401ED177F9D531BD2DE9F04FB5
S3150FE13380B9B007460C4616461D4621A86021FEF741
S3150FE133901DF809A86021FEF719F83CB10095280040
S3150FE133A01CBF429D002D01D0002E02DC40F20160D0
S3150FE133B0D5E000203860386378630C2178680FF226
S3150FE133C03C2840F010007860384600F047FA7868FC
S3150FE133D020F4406040F4006078602022786820F4A1
S3150FE133E0407040F40070786008F12C0111A8FDF7E8
S3150FE133F0F5FD11AA29463846FFF735FD78B9284676
S3150FE13400FFF724FD58B111AA05F120013846FFF760
S3150FE134102AFD20B905F12000FFF718FD10B940F29A
S3150FE1342002609CE0202EC8BF2026202119A8FDF7B7
S3150FE13430CDFF002014E0321A521E09A99208A6F117
S3150FE13440010E01EB8201AEEB000E235C0A6C4FEA33
S3150FE13450CE0E0EF0180E03FA0EF31A430A64401C51
S3150FE13460B042E8DBFDF7EAFF064607F5847419A9D2
S3150FE134702046FFF7D5FC3046FDF7ABFF59483865D7
S3150FE1348007F58076FDF7DAFF814619A93046FFF792
S3150FE13490D2FC4846FDF79DFF01AB11AA05F12001CC
S3150FE134A03846FFF74DFEFDF7C9FF834601A907F53C
S3150FE134B08270FFF7B5FC07F5887919A94846FFF73A
S3150FE134C0AFFC07F5867A00F095F8FFF729FE464837
S3150FE134D0464938657965FDF7B1FF834619A948462F
S3150FE134E0FFF7A9FC01A93046FFF7A5FCFFF718FE88
S3150FE134F021AB19AA08F14C013846FFF773FE009983
S3150FE1350009AB01AA3846FFF76DFE21AA21A9384674
S3150FE13510FFF7D9FE09AB21AA09A93846FFF7C0FC87
S3150FE1352009AA09A93846FFF7CEFEFDF787FF06463A
S3150FE135300C21384600F092F909A92046FFF770FCF5
S3150FE1354000F058F83046FDF744FF2948224938651F
S3150FE1355079657869C1014CBF002040F2046039B04A
S3150FE13560BDE8F08F000000003035DA10D01482CBC1
S3150FE135701481E11C8CE11C811C84D91C8391D11C23
S3150FE13580E014D8141482E11C84D31482D11CE01404
S3150FE135908AD11C81821CC00C0C0C0100C00C0C835F
S3150FE135A0D91C83D88AD11C83DA0C811482D11C8170
S3150FE135B0C80C0C818CE11CD01484E31482D11C015C
S3150FE135C0D81483D11CC00C0139398401D02484FC71
S3150FE135D01C82FED88B1C81A039380100D91C83D1FE
S3150FE135E01C81E11C30D00C0130E11C8430D91C0167
S3150FE135F03035DA1429465046FFF712BC2000000099
S3150FE1360000010000050C0000FFFFFFFFFFFFFFFFBA
S3150FE13610FFFFFFFF000000000000000000000000B8
S3150FE1362001000000FFFFFFFF512563FCC2CAB9F39A
S3150FE13630849E17A7ADFAE6BCFFFFFFFFFFFFFFFF73
S3150FE1364000000000FFFFFFFF96C298D84539A1F4AD
S3150FE13650A033EB2D817D0377F240A463E5E6BCF859
S3150FE1366047422CE1F2D1176BF551BF376840B6CB24
S3150FE13670CE5E316B5733CE2B169E0F7C4AEBE78E20
S3150FE136809B7F1AFEE242E34F10B55F495F4A01E0C5
S3150FE1369021B1491E1369DC07FAD411B96FF00200A3
S3150FE136A010BD5060012010601169480702D54FF037
S3150FE136B0FF3010BD002010BD03460020002900D1C8
S3150FE136C0704770B5514C53F8042BE260082525601D
S3150FE136D0491E4D4A01E062B1521E2569EE07FAD441
S3150FE136E03AB12269940701D411B1EBE76FF001000A
S3150FE136F070BD6FF0020070BD2DE9F047414EB36B1F
S3150FE13700804600209FB207B1012741F67133B363BB
S3150FE137108A463B4B1C681B68356845F001053560E9
S3150FE137200024950812E0C9F30A09C9F500694FEAC1
S3150FE137309909281B484538BF814649465046FFF748
S3150FE13740BBFF010010D14C440AEB890AAC420BD204
S3150FE1375008EB84094846FFF797FF0100E3D031688C
S3150FE1376049084900316003E032685208520032607D
S3150FE13770FFB20FB10021B163BDE8F08770B5214B00
S3150FE1378021490246986B80B200B1012041F67134AE
S3150FE137909C631B4C256824681E6846F001061E6073
S3150FE137A09A6001225A605C69620704D500F01FF83E
S3150FE137B04FF0FF3070BD02225A605A69D4070ED519
S3150FE137C0002918BF491EF8D109E00029196802D16D
S3150FE137D000F00EF88DE700F00BF8002070BD5A6986
S3150FE137E09407F2D500F003F86FF0010070BD196888
S3150FE137F049084900196008B10020986370477BE7D3
S3150FE1380004300E4008000E40809698000C000E40E2
S3150FE13810002070470020704738B50E4C206840F005
S3150FE1382008002060012302220B210320FDF743FB51
S3150FE1383009490868012814BF012500250123002243
S3150FE138400B210320FDF737FB206820F008002060ED
S3150FE13850284632BDB0400E40AC15144242685209BB
S3150FE13860042941EA42120AD9491F022905D9C91E7B
S3150FE13870032904D9091F022902D842F01002426036
S3150FE13880704730B4002513E050F8042BD30744BF3B
S3150FE13890A9F101039A18091F042942F8045BFAD228
S3150FE138A013468C0744BF15809B1CC90748BF1D7083
S3150FE138B050F8041B0029E7D130BC7047044905488D
S3150FE138C008600548026842F4700202607047000022
S3150FE138D008ED00E00008E10F88ED00E04EF68851B3
S3150FE138E0CEF20001086840F470000860BFF34F8F15
S3150FE138F0BFF36F8F4FF00070E1EE100A70470000D3
S3150FE1390000F00DF8002801D000F00CF8AFF30080BD
S3150FE139100020AFF30080FFF7D3F900F017F801208D
S3150FE139207047000010B5074979441831064C7C44BD
S3150FE13930163404E00A68081D114488470146A1427E
S3150FE13940F8D110BDE80000000401000000F000B856
S3150FE139500746384600F002F8FBE70000202109038D
S3150FE1396026311820ABBEF9E780B5FFF7A7FFFFF7C2
S3150FE13970FBF9BDE8014000F000B8AFF30080FFF7B7
S3150FE13980ADFFFFF7BDFF10B5B1F5BE7F044602D21D
S3150FE1399040F2052010BD4FF4BE71FDF717FD002073
S3150FE139A0607004F5807204F1B80104F12800BDE8F6
S3150FE139B010400023FEF70ABB1CB5009104462146D1
S3150FE139C004F12800FEF73EFB00281CBF41F2070178
S3150FE139D08842C4F878010BD1A07838B1E07810B1FC
S3150FE139E040F2032016BD40F2022016BD40F201203F
S3150FE139F016BD30B5016884684218416802EB510380
S3150FE13A00C9070BD54C4409E012F9011B12F8015B0A
S3150FE13A10002904F8015B05D5491CF9D19A42F3D186
S3150FE13A200C3030BD491EF1D5F8E7000057FEFFFF18
S3150FE13A30C80200008801002000000000B7FFFFFF69
S3150FE13A400C0000003600000080000020CC000BF0D7
S3150FE13A507F10308000002034080140F90000018119
S3150FE13A6000E60000FFDA0000000000009CE71E8B75
S5030327D2
S70500000000FA
