S03A0000626F6F746C6F616465722D73746F726167652D696E7465726E616C2D73696E676C652D323034386B5F332D636F6D62696E65642E733337CE
S3150FE100000F4880F308880F48004700004505E10FC8
S3150FE100104505E10F4505E10F4505E10F4505E10F02
S3150FE100204505E10F4505E10F6005E10F4505E10FD7
S3150FE100304505E10F4505E10F4505E10F4505E10FE2
S3150FE1004000400020F904E10F10B5054C237833B9D0
S3150FE10050044B13B10448AFF300800123237010BDA5
S3150FE1006010010020000000007405E10F08B5034BF5
S3150FE100701BB103490348AFF3008008BD0000000040
S3150FE10080140100207405E10F044B054A9A60D3F879
S3150FE10090882042F47002C3F88820704700ED00E033
S3150FE100A00000E10F0A4A4FF08043D969C90705D528
S3150FE100B012B96FF002007047013AF6E7002AF8D05D
S3150FE100C001221861DA60D86940F38000704700BFFA
S3150FE100D08096980070B509B9002070BD00234FF0E6
S3150FE100E08042082550F8234094610B4CD5600133CB
S3150FE100F0D669F60705D514B96FF00200EDE7013CB5
S3150FE10100F6E7002CF8D0D469A40702D49942E9D1D5
S3150FE10110E2E76FF00100E0E7809698002DE9F843FA
S3150FE101204FF08043884641F671311D6C19641A49C7
S3150FE10130074648684968996841F00101ADB299608F
S3150FE1014096084FF00009B14501D3002005E007EB12
S3150FE1015089042046FFF7A6FF50B14FF080439A6816
S3150FE1016022F001029A600DB100221A64BDE8F8830C
S3150FE10170C4F30B04C4F58054A408A6EB09039C420F
S3150FE1018028BF1C4621464046FFF7A4FF0028E4D1CD
S3150FE10190A14408EB8408D6E700300E404FF08043C8
S3150FE101A041F671311A6C10B519641D494C684968ED
S3150FE101B0996841F00101996001211861D960D96906
S3150FE101C04C0792B209D5996821F0010199600AB1FC
S3150FE101D000221A644FF0FF301FE00221114CD96063
S3150FE101E01946D869C00700D56CB9C8698B6810F094
S3150FE101F0020023F001038B6007D00AB100230B64E1
S3150FE102006FF0010009E0013CEBE724B902B10C64A0
S3150FE102106FF0020001E00AB1086410BD1046FCE779
S3150FE1022000300E4080969800FFF778BF08B50A4B6D
S3150FE102301A680A4B1A600A4B40221A615A6852032E
S3150FE10240FCD400F07BF80028FBD040F2022000F04E
S3150FE10250AFF8002008BD00BF040100200001002017
S3150FE1026000300E4010B5104C104BA36000F0C0F8F3
S3150FE102700F4B5B68B3F5803F09D040F209239842F3
S3150FE1028002D0B0F5007F02D100F016F850B9094B54
S3150FE10290A3601846016881F3088881F309884068ED
S3150FE102A08746FEE710BD00BF00ED00E00000E10F5D
S3150FE102B000500E400010E10FF8B51C4B1A6810699B
S3150FE102C0D568836AAB4201D20020F8BD05F5E0425D
S3150FE102D09A42F9D95B1BC618C758154B9F42F3D102
S3150FE102E04FF0FF32F16800F0EBF8124B98420446FB
S3150FE102F0EAD1114B1B6803F1F02202F5F012B2F5C8
S3150FE10300E04F10D21A68BA420DD1B1689A6891429C
S3150FE1031009D84FF0FF32D968284600F0D1F8001B13
S3150FE1032018BF0120D1E70120CFE700BF2800E10F79
S3150FE1033007B0CD5EE320BBDE2810E10FF8B5184B11
S3150FE103401B68D3E90347BB6A1B1BFD182646EA6800
S3150FE10350A318B3421CD83946204600F07CF8B0B159
S3150FE10360104B1B6803F1F02202F5F012B2F5E04FE4
S3150FE1037014D219680C4A914210D1D9684FF0FF3265
S3150FE10380204600F09DF8094BC31A58425841F8BD73
S3150FE10390304600F059F806F58056D8E70020F6E723
S3150FE103A02800E10F2810E10F07B0CD5EE320BBDE99
S3150FE103B04FF000534FF20F025A800A4A1880136822
S3150FE103C023F4E06343F400731360BFF34F8F0649E1
S3150FE103D0064BCA6802F4E0621343CB60BFF34F8F5B
S3150FE103E000BFFDE700500E4000ED00E00400FA0506
S3150FE103F04FF000534FF20F015A888A4201D1188804
S3150FE1040070473AB91B88012B40F2022018BF4FF40F
S3150FE10410007070474FF40070704707B503469B07AE
S3150FE1042053BF6FEA01414FF6FF7343EA01416FEAAA
S3150FE1043011410422019120F003000DEB0201FFF7B8
S3150FE10440F3FE03B05DF804FB08B5FFF7A7FEB0FABC
S3150FE1045080F0400908BDF8B540EA02031446DA0711
S3150FE1046005460E4601D50020F8BD0CB90120FBE784
S3150FE10470830721D50988FFF7D0FF0028F3D1023C86
S3150FE10480032C05F1020506F102060BD924F0030749
S3150FE104903A4631462846FFF7C7FE0028E3D13E44E8
S3150FE104A03D44E41B002CE1D031882846FFF7B5FF28
S3150FE104B0B0FA80F04009D7E7032CE7D8F4E700005C
S3150FE104C010B50B4CD4F8B03043F48073C4F8B030A8
S3150FE104D0084B01241C6001449A605C601A4688420D
S3150FE104E001D1D86910BD10F8014B9461F7E700BF50
S3150FE104F000400E4000C001400B4880470B48804743
S3150FE105000B490C4A0C4B9A42BEBF51F8040B42F809
S3150FE10510040BF8E709490A4A00209142BCBF41F8AA
S3150FE10520040BFAE7FFF782FE8900E10F6502E10F9F
S3150FE105307805E10F000100201001002010010020D5
S3150FE105402C010020FEE700BFF8B500BFF8BC08BCE0
S3150FE105509E467047F8B500BFF8BC08BC9E4670478B
S3150FE10560AD1007B00100000000030A010010E10F12
S3150FE105700080000000000000C0EA2101C0EA21016D
S30D0FE105806D00E10F4900E10FE7
S3150FE11000007C0020A110E10F9D10E10FF110E10F1F
S3150FE110109D10E10F9D10E10F9D10E10F9D10E10F66
S3150FE110209D10E10F9D10E10F9C3AE10F9D10E10F2D
S3150FE110309D10E10FD03AE10F9D10E10F9D10E10FE9
S3150FE1104010B5054C237833B9044B13B10448AFF30C
S3150FE1105000800123237010BD08010020000000006D
S3150FE11060403DE10F08B5034B1BB103490348AFF30D
S3150FE11070008008BD000000000C010020403DE10F9B
S3150FE11080044B054A9A60D3F8882042F47002C3F8FC
S3150FE110908820704700ED00E00010E10FFEE7000049
S3150FE110A008B5FFF7EDFF00F06DF80A4A0A4B0B4959
S3150FE110B08B4206D30A4B0B4A0021934206D300F02B
S3150FE110C023F852F8040F43F8040BF1E743F8041B36
S3150FE110D0F3E700BF403DE10F0001002008010020CA
S3150FE110E0080100202401002000F05EBF00F0ABBF35
S3150FE110F008B5044800F0A2FD4FF40170BDE80840C1
S3150FE1110001F086BDF439E10F4FF0804307B50122B7
S3150FE111105A64184A1848136843F4F843136000F009
S3150FE111208DFD164B40221A615A685203FCD4FFF724
S3150FE11130DBFF01F066FD01F0B5FB30B940F20120AE
S3150FE1114001F066FD4FF401700AE00D4B0193019B2F
S3150FE11150002B0BDC40F205439842F3D140F203201A
S3150FE1116001F056FD002003B05DF804FB019B013B46
S3150FE11170ECE700BFA4310E408F3AE10F00300E408D
S3150FE1118000350C0008B500F069FD214800F056FD69
S3150FE11190204B5B685B050AD40123042212680132F6
S3150FE111A014D14FF40270BDE8084001F023BD01F000
S3150FE111B04FFDA0F2022080B20728EDD8012303FAF2
S3150FE111C000F010F0C90F18BF0023E6E7F3B112489C
S3150FE111D000F034FD002001F081FC18B90F4800F052
S3150FE111E02DFDDEE70E4800F029FD0E4800F026FD45
S3150FE111F000F02EFD0C4A002393601846016881F337
S3150FE11200088881F3098840688746FEE708BD00BF75
S3150FE11210043AE10F00500E40213AE10F3F3AE10F58
S3150FE112205F3AE10F853AE10F00ED00E001207047EB
S3150FE1123010B50B4CD4F8B03043F48073C4F8B0302A
S3150FE11240084B01241C6001449A605C601A4688428F
S3150FE1125001D1D86910BD10F8014B9461F7E700BFD2
S3150FE1126000400E4000C00140F8B504461D46164643
S3150FE112700F4600F07EFFDDE90612204600F07FFF04
S3150FE112800023636284F838703268C4F839207268D3
S3150FE11290C4F83D202B0CB26884F845302B0AC4F80C
S3150FE112A0412084F8463084F84750F8BD30B585B013
S3150FE112B01D4600F12803CDE90112009300F1240246
S3150FE112C000F13803294600F078FF05B030BD000084
S3150FE112D02DE9F041A2B00F4616469846289C0546E1
S3150FE112E060B359B352B34BB344B30121154800F080
S3150FE112F02BFD4022002102A802F068FB414602A81D
S3150FE1130000F016FB21460AA812AC00F011FB4022B1
S3150FE113100021204602F05AFB3946204600F008FB31
S3150FE1132031461AA800F004FB009402AB20222946AD
S3150FE11330054800F00DFB22B0BDE8F08140F20160F7
S3150FE11340F9E700BF00150A0000000F4010B504468B
S3150FE1135001F0CEF920460021BDE8104001F0F2B9C7
S3150FE1136001F0FAB9014601F0F9B91C2350F8042F3F
S3150FE113700AB9043BFAD1002BCCBF002001207047FC
S3150FE1138030B50568046802680368C1E90054C1E92C
S3150FE1139002230568046802680368C1E90454C1E9D8
S3150FE113A0062330BDD1E9022330B5D1E900540560FA
S3150FE113B0046002600360D1E90454D1E906230560B4
S3150FE113C004600260036030BD2DE9F04104461D461D
S3150FE113D00E46904600211C22181D02F0F7FA012352
S3150FE113E02B6000F0FBFC4146074604F58070FFF7E2
S3150FE113F0D9FF314604F5827004F58476FFF7D2FF03
S3150FE1140029463046FFF7CEFF384600F0EBFC0D4F8D
S3150FE114100D4B0E4A0E490F4823656369DB010BD568
S3150FE1142000F0DCFC294604463046FFF7A9FF2046CB
S3150FE11430BDE8F04100F0D6BC22656165A065E765C0
S3150FE11440EBE700BF3938010039398401D02484FC38
S3150FE114501C82FED88B1C81A02DE9F04F8DB004467E
S3150FE1146098460F46154600F0B9FC04F5827607F16A
S3150FE114704002114604F5867B814630460392FFF71B
S3150FE1148091FF29465846FFF78DFF04F588731846F5
S3150FE1149005F120010293FFF785FF484600F0A2FC14
S3150FE114A0424921654249616501254249A165E565E3
S3150FE114B000F094FC04F5847907F1200A019039468E
S3150FE114C03046FFF76FFF51464846FFF76BFF039A2A
S3150FE114D0029B11461846FFF765FF019800F082FC63
S3150FE114E0354B2365354B6365A56500F077FC04F550
S3150FE114F08073019008F1400118460293FFF740FF10
S3150FE1150004A94846FFF73CFF019A104600F06AFC32
S3150FE1151000F064FC394601905846FFF743FF019A04
S3150FE11520104600F05FFC264A2265264A62656FF493
S3150FE115302673A2F5FE221A44A265E56500F04EFC7C
S3150FE11540514607463046FFF72DFF384600F04AFC75
S3150FE115501D4A22651D4A6265A56500F03FFC4146BD
S3150FE1156007464846FFF70CFF384600F03BFC00F014
S3150FE1157035FC04A907463046FFF714FF384600F05D
S3150FE1158031FC134A2265134A6265A56500F026FC14
S3150FE11590029B044608F120011846FFF7F1FE2046AB
S3150FE115A000F020FC0DB0BDE8F08F00BF8AD11C81A1
S3150FE115B0D91C83D11C81E11CD01482CB1481E11C8F
S3150FE115C08CE11C811C84D91CE014D8141482E11C13
S3150FE115D084D31482D11CE0142DE9F041044690B076
S3150FE115E00F46244E0521904600F0FFFB00232360B2
S3150FE115F0236363630FCE08AD0FC596E80F0085E849
S3150FE116000F0008AA6B4607F140012046FFF7DCFE03
S3150FE1161000F0E4FB04F586750646694604F582702B
S3150FE11620FFF7C0FE39462846FFF7BCFE07F120015A
S3150FE1163004F58870FFF7B6FE304600F0D3FB0E4B8C
S3150FE1164023650E4B63650E4BA3650123E36500F03E
S3150FE11650C5FB08F12001064604F58070FFF790FE01
S3150FE1166041462846FFF78CFE304600F0BBFB10B033
S3150FE11670BDE8F0811C3BE10F8AD11C81D91C83D1D6
S3150FE116801C81E11C2DE9F04FA5B01D460446CDE9BD
S3150FE11690001205A81C22002102F098F94FF001086B
S3150FE116A020220021284605F12007CDF8108005F10B
S3150FE116B0400A02F08BF920220021384602F086F922
S3150FE116C020220021504602F081F90521204600F043
S3150FE116D08CFB00232360FF2623636363721101985A
S3150FE116E006F01F0350F8222008FA03F3134206F11E
S3150FE116F0FF3102D10E460029F0D100F06FFB04F560
S3150FE1170082733946804618460293FFF74BFE4046F1
S3150FE1171000F068FB7A4B7B4A236562657A4AA265DC
S3150FE1172000F05CFB04F5807914A980464846FFF783
S3150FE1173027FE404600F056FB00F050FB2946804657
S3150FE117404846FFF72FFE404600F04CFB6F4A704BC1
S3150FE1175022654FF486726365A26500F03FFB04F5DF
S3150FE11760867883460CA94046FFF70AFE1CA9484630
S3150FE11770FFF706FE584600F035FB00F02FFB029B04
S3150FE117800393514683461846FFF70CFE584600F081
S3150FE1179029FB604B23650123636500F01FFB04F50D
S3150FE117A0847B294602905846FFF7FCFD029A1046C4
S3150FE117B000F018FB584A226502F1D94202F5DE1212
S3150FE117C002F595626265A2F586120123A2F2BA428B
S3150FE117D0A265E36500F002FB1CA902905846FFF7EC
S3150FE117E0E1FD0CA94046FFF7DDFD029A104600F038
S3150FE117F0F9FA4A4A22654A4A62654A4AA26500F0FF
S3150FE11800EDFA2946029004F58870FFF7B9FD029AC1
S3150FE11810104600F0E7FA00F0E1FA039B0290394631
S3150FE118201846FFF7BFFD58465146FFF7BBFD14A912
S3150FE118304046FFF7B7FD029A104600F0D3FA3A4B4E
S3150FE1184023653A4B636500F0C9FA5146834648462C
S3150FE11850FFF796FD39464046FFF792FD584600F0F1
S3150FE11860C1FA012106F01F0301FA03F3721101997F
S3150FE1187051F82220134217D02B687BB92846FFF780
S3150FE1188074FD58B12B6A4BB93846FFF76EFD28B197
S3150FE118902B6C1BB95046FFF768FD60B92B46009AD2
S3150FE118A029462046FFF7D8FD16F1FF36BFF425AFDF
S3150FE118B025B0BDE8F08F009BAC4603F1200E18680A
S3150FE118C05968624603C2083373459446F7D1BC465D
S3150FE118D003F1200E18685968624603C2083373454F
S3150FE118E09446F7D10DF1100EBEE80F0005F1400C4D
S3150FE118F0ACE80F009EE80F008CE80F00D4E700BFBD
S3150FE119008AD11C81821CC00C0C0C0100C00C0C830B
S3150FE11910D91C83D88AD11C83DA0C81148CE11CD0B3
S3150FE119201484E31482D11C01D81483D11CC00C0199
S3150FE1193010B520220C46002102F048F804F12002EE
S3150FE11940013812F8013D00F8013FA242F9D110BD6D
S3150FE119502DE9F04FBBB089460446002190460AA80F
S3150FE1196060229A46449F02F031F86022002122A8B4
S3150FE1197002F02CF8B9F1000F00F01E81BAF1000F59
S3150FE1198000F01A81002F00F01781B8F1000F40F334
S3150FE11990138100232360236363636368884E43F0F7
S3150FE119A0100363600C21204600F01FFA636823F4ED
S3150FE119B0406343F400636360636823F4407343F465
S3150FE119C0007363600FCE2AAD0FC596E80F0085E869
S3150FE119D00F0000F003FA04F5847683463946304664
S3150FE119E004F58675FFF7DEFC2AA92846FFF7DAFC30
S3150FE119F0584600F0F7F90122724B23656265626979
S3150FE11A00D20104D440F202603BB0BDE8F08F391F3A
S3150FE11A10082251F8040F002800F0C680019300F068
S3150FE11A20DDF907F1200B009059463046FFF7BAFC76
S3150FE11A302AA92846FFF7B6FC009A104600F0D2F91C
S3150FE11A40019B2365012363656369DB01DAD507F141
S3150FE11A501C02082352F8041F002900F0A980B8F1EF
S3150FE11A60200FA8BF4FF020082022002132A801F055
S3150FE11A70ADFF08F1FF30CC4620F003033AA940331E
S3150FE11A800B441CF8012B00F00301C9008A4053F8FF
S3150FE11A90601C0A4343F8602CACEB0903434500F1A4
S3150FE11AA0FF30E9DB00F09AF932A980463046FFF7BD
S3150FE11AB079FC404600F096F9434B236500F08EF929
S3150FE11AC004F58078814632A94046FFF759FC48462E
S3150FE11AD000F088F92AAA02AB59462046FFF774FCB3
S3150FE11AE000F07CF904F58879834602A904F5827042
S3150FE11AF0FFF758FC32A94846FFF754FC394628460A
S3150FE11B00FFF750FC584600F06DF9304B236503F1B2
S3150FE11B10FA43A3F50063636500F060F932A98346E2
S3150FE11B204846FFF72DFC02A94046FFF729FC584628
S3150FE11B3000F058F90AAB32AA25492046FFF7A2FD74
S3150FE11B4022AB02AA51462046FFF79CFD0AAA11468F
S3150FE11B502046FFF741FD22AB19460AAA2046FFF7B9
S3150FE11B607BFC22AA11462046FFF736FD00F036F937
S3150FE11B700C218046204600F038F922A93046FFF7BE
S3150FE11B8011FC39462846FFF70DFC404600F02AF9CD
S3150FE11B90104B2365104B6365636913F0807F40F249
S3150FE11BA0046018BF00202FE7013A7FF432AF29E72F
S3150FE11BB0013B7FF44FAF25E740F2016024E700BF19
S3150FE11BC03C3BE10F3035DA1030D00C0130E11C84AB
S3150FE11BD05C3BE10F3035DA143938010010B50446B4
S3150FE11BE0000909288CBF3730303000F091F804F046
S3150FE11BF00F0009288CBF37303030BDE8104000F0B8
S3150FE11C0087B810B50446000AFFF7E8FFE0B2BDE872
S3150FE11C101040FFF7E3BF10B50446000CFFF7F1FFE5
S3150FE11C20A0B2BDE81040FFF7ECBF10B5441E14F8A3
S3150FE11C30010F00B910BD00F06BF8F8E708B5FFF733
S3150FE11C40F4FF0248BDE80840FFF7EFBF9C3BE10F09
S3150FE11C500148FFF7EABF00BF9C3BE10F254AD2F8E7
S3150FE11C60B03043F02003C2F8B030234BD3F8401421
S3150FE11C7041F01001C3F84014D3F8441421F00301E5
S3150FE11C80C3F84414D3F8F41021F47061C3F8F410D7
S3150FE11C90D3F8F41041F48061C3F8F41010231366FE
S3150FE11CA0D2F890309B06FBD5144B1A6842F001022D
S3150FE11CB01A60DA6842F08072DA60114B114A1A60E3
S3150FE11CC003F57C3315221A610222C3F8F0204FF493
S3150FE11CD08072C3F804234FF060430B4AC3F8B02F69
S3150FE11CE00A4AC3F8802ED3F8002E42F00102C3F858
S3150FE11CF0002E704700400E4000800840F0ED00E0F6
S3150FE11D00001000E0FF13014055CEACC509000100FC
S3150FE11D104FF06043D3F8802ED10706D5D3F8002EC6
S3150FE11D20D20702D51A680AB11870704700BFF9E7F2
S3150FE11D30044BD3F84421D20703D4D3F84021104200
S3150FE11D40FBD1704700400E4038B5C0F30323013B8A
S3150FE11D500D2B16D8DFE803F02D161515071C1F22DC
S3150FE11D60262A15151519144C0023C0F3043513B1A2
S3150FE11D701846FFF7DDFF04F1047405EBC404A40074
S3150FE11D80216038BD00230D4CEFE700230C4CECE747
S3150FE11D9001230C4CE9E710230B4CE6E74FF4807374
S3150FE11DA00A4CE2E74FF48033094CDEE70023094C96
S3150FE11DB0DBE70023084CD8E7B0400E40C0400E40A9
S3150FE11DC0C4400E40E0400E40E8400E40EC400E406D
S3150FE11DD0F0400E4050410E4000400E40EFF31080B0
S3150FE11DE072B6704700B962B670470E2910B54368EF
S3150FE11DF00DD801228A4047F2E004224223F01F0365
S3150FE11E0006D140F61F74224201D01943416010BD3D
S3150FE11E1041F01001F9E700000A4A4FF08043D96912
S3150FE11E20C90705D512B96FF002007047013AF6E717
S3150FE11E30002AF8D001221861DA60D86940F38000F0
S3150FE11E40704700BF8096980070B509B9002070BD44
S3150FE11E5000234FF08042082550F8234094610B4C44
S3150FE11E60D5600133D669F60705D514B96FF00200CF
S3150FE11E70EDE7013CF6E7002CF8D0D469A40702D4CC
S3150FE11E809942E9D1E2E76FF00100E0E78096980029
S3150FE11E902DE9F8434FF08043884641F671311D6CC9
S3150FE11EA019641A49074648684968996841F001017A
S3150FE11EB0ADB2996096084FF00009B14501D3002004
S3150FE11EC005E007EB89042046FFF7A6FF50B14FF077
S3150FE11ED080439A6822F001029A600DB100221A64DA
S3150FE11EE0BDE8F883C4F30B04C4F58054A408A6EB4C
S3150FE11EF009039C4228BF1C4621464046FFF7A4FF33
S3150FE11F000028E4D1A14408EB8408D6E700300E405F
S3150FE11F104FF0804341F671311A6C10B519641D49C2
S3150FE11F204C684968996841F001019960012118618E
S3150FE11F30D960D9694C0792B209D5996821F00101A7
S3150FE11F4099600AB100221A644FF0FF301FE00221B7
S3150FE11F50114CD9601946D869C00700D56CB9C86963
S3150FE11F608B6810F0020023F001038B6007D00AB1F2
S3150FE11F7000230B646FF0010009E0013CEBE724B9A4
S3150FE11F8002B10C646FF0020001E00AB1086410BD02
S3150FE11F901046FCE700300E4080969800FFF778BFB9
S3150FE11FA000487047A03BE10F002070474FF0804398
S3150FE11FB0D86900F00100704708B50346084699183D
S3150FE11FC0B1F5001F04D8194601F0F5FC002008BD54
S3150FE11FD040F20240FBE78318B3F5001F10B50ED9A7
S3150FE11FE040F2024010BDC45801340AD104339A427B
S3150FE11FF0F9D800F083FC0028F2D00020F2E70023A5
S3150FE12000F5E740F20340EDE738B5C1F30B030446BC
S3150FE12010B3B9C0F30B039BB90D18B5F5001F08D87B
S3150FE12020204604F5805400F062FCA54204D0002856
S3150FE12030F6D140F2024038BD0028FAD00020FAE787
S3150FE1204040F20440F7E70020704730B505680468B1
S3150FE1205002680368880785B011D0CDE90054CDE950
S3150FE1206002236C460B4604AD224603CAAA42186008
S3150FE120705960144603F10803F6D105B030BDC1E945
S3150FE120800054C1E90223F8E77FB58B07024615D065
S3150FE120900B466D4601F11006186859682C4603C4C4
S3150FE120A00833B3422546F7D1009B1360019B1360BA
S3150FE120B0029B1360039B136004B070BDD1E900541A
S3150FE120C0D1E90203156014601060F4E700F10473BF
S3150FE120D0102A30B54FEA43131AD101221A60D1E91A
S3150FE120E00054D1E90223C0F81051C0F81041C0F8ED
S3150FE120F01021C0F81031D1E90454D1E90623C0F813
S3150FE121001051C0F81041C0F81021C0F8103130BDA0
S3150FE1211000221A60D1E90054D1E9022345624462F3
S3150FE1212042624362F3E7F0B58C0789B006460B4688
S3150FE1213015460FD0082A6C4610D101F11007186821
S3150FE121405968224603C20833BB421446F7D12A46E1
S3150FE1215069463046FFF7BAFF09B0F0BD01F1200736
S3150FE1216018685968224603C20833BB421446F7D1B1
S3150FE12170EDE718B12422002101F028BC704770B5B4
S3150FE121800E461546044690B189B12422002101F08D
S3150FE121901DFC802D02D0B5F5807F0BD12046EA08D4
S3150FE121A040F8045B314601F006FC002070BD6FF08C
S3150FE121B02100FBE76FF02200F8E72DE9F04F8146AA
S3150FE121C085B088469B461646F2B11768B9F1000FFE
S3150FE121D000F0B5800F9B002B00F0B180109B002B18
S3150FE121E000F0AD80BBF1000F00F0A9800E9B002B34
S3150FE121F000F0A580D9F80030802B03D0B3F5807FAE
S3150FE1220040F0A08000240DE01746DFE7A7B10F9B52
S3150FE122100E9A1B5DD25D5340109A0137135507F0A5
S3150FE122200F0701344445F1D3002E00F08E8037605D
S3150FE12230002005B0BDE8F08F00F08AF84FF4404377
S3150FE12240476003600546FFF7C9FDD9F80030802BDB
S3150FE12250824614BF1022082209F104012846FFF72E
S3150FE1226062FF05F18403184659460093FFF70CFF09
S3150FE122705046A8EB040A2AF00F0AFFF7B3FDA24472
S3150FE12280032354451AD10F9B03EB040A109B1C44FD
S3150FE122900F9B434401930323019A92452DD1FFF7F7
S3150FE122A09DFD594604460098FFF7CFFE2046FFF7FE
S3150FE122B099FD284600F056F84446B3E74822AA604E
S3150FE122C00522AA602A699107FCD4AB600293FFF756
S3150FE122D085FD0F9B0190191905F1A000FFF7D4FEBB
S3150FE122E0109B05F180001919FFF7AFFE019A104611
S3150FE122F0FFF778FD1034029BC3E7AFB94822AA6016
S3150FE123000522AA602A699207FCD4AB600393FFF713
S3150FE1231065FD0E99029005F18000FFF796FE029A90
S3150FE123201046FFF75FFD039B0E991AF8012BC95D66
S3150FE1233001374A4004F8012B07F00F07ACE76FF0BE
S3150FE12340210076E76FF0220073E7304671E7000070
S3150FE12350024B034801221A60704700BF0416C843B7
S3150FE1236000000F40054B984206D103F16E7303F55A
S3150FE123708B33043300221A60704700BF00000F4011
S3150FE123802DE9F04F99B007460E4690461D46FFF7E9
S3150FE12390DFFF04462FB1022F00F2E580042303602D
S3150FE123A000E0076000236360E364626822F4406241
S3150FE123B062602363636356F8232012BA4DF8232034
S3150FE123C00133082BF7D1FFF709FD009BC4F8043160
S3150FE123D0019BC4F80431029BC4F80431039BC4F892
S3150FE123E00431049BC4F80431059BC4F80431069B00
S3150FE123F0C4F80431079BC4F80431FFF7F3FCDFF8A7
S3150FE1240074A15A4B2365002608F00309229B9E42CD
S3150FE1241039D1AB0700F08A80FFF7E0FCD4F8006111
S3150FE12420D4F80011D4F80021D4F80031CDE90061D8
S3150FE12430CDE90223D4F80061D4F80011D4F80021D4
S3150FE12440D4F80031CDE90461CDE906232E46FFF735
S3150FE12450C9FC08AF6B461A4603CABA4230607160CF
S3150FE12460134606F10806F6D12046FFF77BFF2B1F31
S3150FE124701C3553F8042F12BAAB421A60F9D100207A
S3150FE1248019B0BDE8F08F08EB861BB9F1000F0FD03D
S3150FE1249008AA0BF1400CDBF80000DBF80410134639
S3150FE124A003C30BF1080BE3451A46F4D10DF1200BEB
S3150FE124B0FFF794FCDBE90131DBF80C20DBF8007068
S3150FE124C0C4F8A471C4F8A431C4F8A411C4F8A421C2
S3150FE124D0DBE90531DBF81C20DBF81070C4F8A471D9
S3150FE124E0C4F8A431C4F8A411C4F8A421DBE9093175
S3150FE124F0DBF82C20DBF82070C4F8A471C4F8A43102
S3150FE12500C4F8A411C4F8A421DBE90CC1DBE90E235D
S3150FE12510C4F8A4C1C4F8A411C4F8A421C4F8A43121
S3150FE12520FFF760FC0136C4F850A06FE7FFF756FCE2
S3150FE12530D4F80061D4F80011D4F80021D4F80031B1
S3150FE12540C5E90061C5E90223D4F80061D4F80011A9
S3150FE12550D4F80021D4F80031C5E90461C5E90623B1
S3150FE12560FFF740FC80E702488AE700BF888AC80187
S3150FE1257080AFFFFF070D81012DE9F34702281446CE
S3150FE1258080460E461F46DDE90A924ED81CB9002059
S3150FE1259002B0BDE8F08713683F2B42D8516809B105
S3150FE125A0002F3ED1B8F1010F3DD0224D2249B8F1AE
S3150FE125B0020F18BF0D4603F03F00E318136022BF69
S3150FE125C053680133536090B3C0F1400A544522D3A7
S3150FE125D031465246484401F0EEF9012300934A464B
S3150FE125E03B4629464046A4EB0A04FFF7C9FE3F2CBA
S3150FE125F056440DD93D46A309009332463B4629463B
S3150FE126004046FFF7BDFE24F03F031E4404F03F04AE
S3150FE12610002CBCD0002022463146484401F0CBF9CC
S3150FE12620B5E73D46C7E7054DC5E70548B0E73F2C9A
S3150FE12630F1D9E0E7123CE10FD23BE10FF23BE10FBB
S3150FE1264080AFFFFF2DE9F041012886B004460E4623
S3150FE1265090461D4604D045D3022841D022483CE09E
S3150FE126601C272A68D3008DF80F3053098DF80E30E9
S3150FE12670530B8DF80D30530D8DF80C306B68D90077
S3150FE1268001EB52718DF80B1002F03F025909372A0F
S3150FE126908DF80A104FEA53314FEA535394BFC2F103
S3150FE126A03802C2F178028DF809108DF808300F491A
S3150FE126B03346CDE900852046FFF75EFF08220DEB95
S3150FE126C002013346CDE900852046FFF755FF3A462D
S3150FE126D031460C9801F06FF9002006B0BDE8F081A4
S3150FE126E02027BEE71427BCE780AFFFFF323CE10F9F
S3150FE126F018B16C22002101F069B9704707B590F85E
S3150FE1270068300190002B00F12803009300F10803D4
S3150FE1271014BF01200220FFF72FFF03B05DF804FB82
S3150FE1272007B590F868200091002A034600F12802C8
S3150FE1273000F1080114BF01200220FFF783FF03B068
S3150FE127405DF804FB00239942D4BF00210121C0E9C2
S3150FE12750003380F868107047FFF7D0BFFFF7E0BF8F
S3150FE127600020704700207047012070470120704715
S3150FE12770014B1B68186970472810E10F014B186868
S3150FE12780704700BF2800E10F014B1868704700BF83
S3150FE127902810E10F044B054A1B68196891420CBFDB
S3150FE127A018690020704700BF2800E10FAD1007B090
S3150FE127B00120704710B53148E0B0FFF736FA002037
S3150FE127C0FFF729FAFFF744FA4FF4BE7201A9002089
S3150FE127D000F068FB40F20124002101A800F0A5FA00
S3150FE127E0A042F9D040F20323984206D02448FFF7DE
S3150FE127F025FA40F2054060B010BD9DF8043003F0B4
S3150FE128000302022A01D11F48F1E799070FD51E48A6
S3150FE12810FFF70BFA1D4B1B689868FFF7FCF91C488D
S3150FE12820FFF703FA0298FFF7F6F9FFF711FA9DF8AA
S3150FE1283004309A0714D5154A0299126892689142A3
S3150FE128400ED95C9800F060FB40B1FFF7A3FF0A9940
S3150FE1285000F08AF90028CCD10E48C8E70E48C6E742
S3150FE12860DB0701D40D48C2E704995C9800F070FBD1
S3150FE1287008B90B48BBE70020BDE700BF723CE10F8B
S3150FE12880793CE10F853CE10F983CE10F2810E10F10
S3150FE12890A03CE10FA53CE10FBD3CE10FCE3CE10FC2
S3150FE128A0DD3CE10FFFF786BF004870474A43E00F73
S3150FE128B0004870476A43E00F004870478642E00FD1
S3150FE128C007B503469B0753BF6FEA01414FF6FF7307
S3150FE128D043EA01416FEA11410422019120F003001D
S3150FE128E00DEB0201FFF75AFB03B05DF804FB08B5E8
S3150FE128F0FFF70EFBB0FA80F0400908BDF8B540EAE4
S3150FE1290002031446DA0705460E4601D50020F8BD47
S3150FE129100CB90120FBE7830721D50988FFF7D0FF23
S3150FE129200028F3D1023C032C05F1020506F102065C
S3150FE129300BD924F003073A4631462846FFF72EFB1B
S3150FE129400028E3D13E443D44E41B002CE1D031881D
S3150FE129502846FFF7B5FFB0FA80F04009D7E7032C19
S3150FE12960E7D8F4E7F0B50F4B85B06C46024603F1B5
S3150FE129701007264618685968254603C50833BB4232
S3150FE129802C46F7D104AB501E13F8011D10F8012F99
S3150FE12990914204D1B342F7D1012005B0F0BD002039
S3150FE129A0FBE700BFEE3CE10FC0F30B032DE9F0416E
S3150FE129B005460F4616460BB9FFF799FF05F5805405
S3150FE129C024F47F6424F00F0405EB0608A04506D82E
S3150FE129D0324639462846BDE8F041FFF78FBF20461C
S3150FE129E0FFF785FF04F58054F0E770B59EB0446BB1
S3150FE129F00546FFF7C9FE06462046FFF7B3FF48B384
S3150FE12A00237C012B28D86369012B25D1A46933696E
S3150FE12A10A34221D8A5421FD8B4F5001F1CD803A89D
S3150FE12A20FEF794FC621B294603A8FEF799FC03A85F
S3150FE12A30FEF798FCFFF738FF0546FFF739FF2B4600
S3150FE12A40009004F12002214603A8FEF741FCB0FAFB
S3150FE12A5080F040091EB070BD0020FBE770B504465B
S3150FE12A600E461546FFF790FE0369A3420AD842695F
S3150FE12A7063199A4206D32A4631462046BDE870408D
S3150FE12A80FFF792BF70BD00002DE9F04115460746ED
S3150FE12A908846FFF773FE104B02689A4219D1FFF78A
S3150FE12AA073FE0646FFF776FEC4196319B3F5001FE9
S3150FE12AB00FD83FB9FFF76EFE7369834202D93069CA
S3150FE12AC0FFF715FF2A4641462046BDE8F041FFF7DD
S3150FE12AD06BBFBDE8F08100BFAD1007B0F8B5D0E927
S3150FE12AE0006706F160460446456BFFF74DFEB6F506
S3150FE12AF0002F01D90020F8BD0369BB42FAD8B7F51B
S3150FE12B00001FF7D84033AB4202D8B5F5001F05D900
S3150FE12B10FEF78CFB80F00100C0B2ECE7FEF786FB17
S3150FE12B2020B12046BDE8F840FFF75FBF2846FFF723
S3150FE12B3019FFA8B12B7C012BDCD86B69002BDAD0FE
S3150FE12B40022BEED1AB69C4F1040119444FF0FF3208
S3150FE12B502046FEF76DFB034BC31A58425841CAE7AD
S3150FE12B600120C8E7E320BBDE08B54FF0FF32FEF7E1
S3150FE12B705FFB044B984203D140F2092000F048F87D
S3150FE12B80002008BDE320BBDEB1F5BE7F10B50446DC
S3150FE12B9010D34FF4BE72002100F018FF00236370CB
S3150FE12BA004F5807204F1B80104F12800BDE8104084
S3150FE12BB000F028BB40F2052010BD13B50446009185
S3150FE12BC00146283000F058FBC4F8780118B141F2FC
S3150FE12BD00703984209D1A3784BB1E27840F203207B
S3150FE12BE040F20223002A08BF184602B010BD40F298
S3150FE12BF00120FAE74FF000534FF20F0218805A8087
S3150FE12C0070474FF000534CF23C325A807047000048
S3150FE12C104FF000534FF20F025A800A4A1880136899
S3150FE12C2023F4E06343F400731360BFF34F8F064958
S3150FE12C30064BCA6802F4E0621343CB60BFF34F8FD2
S3150FE12C4000BFFDE700500E4000ED00E00400FA057D
S3150FE12C504FF000534FF20F015A888A4201D118887B
S3150FE12C6070473AB91B88012B40F2022018BF4FF487
S3150FE12C70007070474FF400707047000031B10A4B96
S3150FE12C805A68824205D80023C1E9003340F2014078
S3150FE12C907047013053F830200A6003EBC003002080
S3150FE12CA05B684B60704700BFBC3BE10F01221A70B6
S3150FE12CB07047000070B40D4C0E46114662688242B1
S3150FE12CC00DD9013004EBC002F518526895420AD8C6
S3150FE12CD054F830001A46304470BCFFF76DB940F234
S3150FE12CE0014070BC704740F20240FAE7BC3BE10F8E
S3150FE12CF030B5A3B004460D4602AAD0F87411D0F848
S3150FE12D006C018023FFF7D6FF0095802302AA2146A7
S3150FE12D1004F1280000F0B0FAD4F87431C4F8780160
S3150FE12D208033C4F8743123B030BD1FB50023CDE92C
S3150FE12D300033CDE90213D0F878310446A3B9D0F8C0
S3150FE12D407421D0F870319A420ED26946FFF7D0FF5F
S3150FE12D50D4F8780198B141F2070240F2012390428B
S3150FE12D6008BF184604B010BDA3785BB1E27840F214
S3150FE12D70022040F20323002A18BF1846F2E740F279
S3150FE12D800120EFE740F20220ECE7000070B586B0D4
S3150FE12D9006AB0D46002103F8111D02931E4B116080
S3150FE12DA00446164628461C22CDE90333059300F067
S3150FE12DB00DFE9DF8072062B994F86E30112B08D0FD
S3150FE12DC0D4F878312BB9D4F87411D4F8703199421B
S3150FE12DD01AD32378990744BF636833602378DB07F7
S3150FE12DE009D504F1080304F1240153F8040B45F85E
S3150FE12DF0040B8B42F9D162B92378002B40F20640DE
S3150FE12E0018BF002006B070BD02A92046FFF770FF7C
S3150FE12E10CFE70020F6E700BFAD2CE10F70B40D4C04
S3150FE12E200E461146626882420DD9013004EBC002AB
S3150FE12E30F518526895420AD854F830001A463044CC
S3150FE12E4070BCFFF7C8B840F2014070BC704740F262
S3150FE12E500240FAE7BC3BE10F074B5A68824207D9BA
S3150FE12E60013003EBC00253F830005168FFF7CCB8DD
S3150FE12E7040F20140704700BFBC3BE10F10B504467D
S3150FE12E8060B14FF480320023C0E90023044B1A7876
S3150FE12E905B680272C360FFF783F8206110BD00BF64
S3150FE12EA0BC3BE10F37B50C46054611462046FFF709
S3150FE12EB06BFE48B969462846FFF7E0FE20B9019B4C
S3150FE12EC0C4F86C51C4F8703103B030BD38B500F5B4
S3150FE12ED0807204460D46202300F1B801283000F038
S3150FE12EE091F9D4F878312BB9D4F87421D4F870313B
S3150FE12EF09A4203D3A07800B1E07838BD294620463F
S3150FE12F00FFF7F6FEEDE7000030B5E5B00D460446F6
S3150FE12F10FFF73AFC8368AB4202D3002065B030BDC0
S3150FE12F204FF4BE7205A92046FFF7BCFF0028F4D186
S3150FE12F3002238DF81530CDE901000390034B04937D
S3150FE12F4001A905A8FFF7C2FFE8E700BF892AE10F4C
S3150FE12F5000B5E5B04FF4BE7205A9FFF7A3FF70B94F
S3150FE12F6001238DF81530074B0190CDE9023004901E
S3150FE12F7001A905A8FFF7AAFF65B05DF804FB0020DC
S3150FE12F80FAE700BF5D2AE10F002303604FF0FF323E
S3150FE12F9001238B4201D30020704740F823200133F0
S3150FE12FA0F7E703680133012B40F2045098BF002085
S3150FE12FB0704740F20250704770B5D1E90152AA420B
S3150FE12FC005D290F840302B449B1A402B10D90020A4
S3150FE12FD012E00A6890F84040D65C90F8412022440E
S3150FE12FE002F03F020133013486548B6080F8404092
S3150FE12FF08B689D42EDD8012070BD2DE9F843174648
S3150FE13000D1E90125521B90F840509DF820909DF88B
S3150FE1301024802A44934204460E4657D9FFF7CCFF44
S3150FE1302000285DD1122384F8463041F20200BDE853
S3150FE13030F88394F84120A25C7A5594F84120013245
S3150FE1304002F03F0284F8412094F84020013A84F8D7
S3150FE130504020013594F8402012B1AB42E9D11D462B
S3150FE13060D6E901128A4201D2AB4231D8AB42D9D16C
S3150FE13070D4F8882029463846FEF7DAF8C4F88800EE
S3150FE13080B9F1000F04D02A463946E06CFEF768F92C
S3150FE13090B8F1000F08D094F843302BB12B463A46DE
S3150FE130A03946A06CFEF702F994F8433043B1E36D6C
S3150FE130B0A26D2B449342E36524BF002384F843308A
S3150FE130C0636D1D44656541F20300B0E70025C1E775
S3150FE130D031688A5C7A55B2680132B2600135BFE771
S3150FE130E00020A4E77FB50023CDE900330823154679
S3150FE130F00DEB03020446FFF780FF41F2030398420B
S3150FE13100064626D194F8433063B108220DEB02014E
S3150FE13110E06CFEF725F908230DEB03021146A06CCF
S3150FE13120FEF7C4F8039A6A6094F84320029B2B607A
S3150FE131305AB9094A934208D0084A934205D0082260
S3150FE131400DEB0201E06CFEF70BF96B6823650023CB
S3150FE131506365304604B070BDF70A0AF7FC0404FC58
S3150FE131602DE9F843044658680D4616461F460028D2
S3150FE1317043D08B0743D1FFF7FBFA216E00F1040C25
S3150FE1318006EB0109CC451DD800F11C02914219D27B
S3150FE131908C45634638BF0B46591AA3EB0C00914594
S3150FE131A094BFC3EB0909C3EB020905EB01086830CC
S3150FE131B04A464146204400F0FEFB4A46FF2140467F
S3150FE131C000F004FCFFF7E6FA226E031D93420AD3E1
S3150FE131D0B1180830814206D39B1AEA58C4F8802009
S3150FE131E04FF0FF32EA50D7E900383246206E2946D2
S3150FE131F0C047236E1E4426660020BDE8F88341F2E0
S3150FE132000200FAE7F8B504464FF0FF36154603F02C
S3150FE132102003002280F84620A0F8402080F84320C2
S3150FE1322080F8452080F84420C0E918220F4680F83F
S3150FE132304230C0F888601822FF21683000F0C6FBE3
S3150FE13240C4F88060C4F88460C4E91275FFF78EFA9A
S3150FE1325018B117B941F20B00F8BDFFF785FA30B196
S3150FE13260002DF7D0E06CFEF771F80020F4E7002DA2
S3150FE13270F8D12846F0E700002DE9F04F9BB0CDE9F4
S3150FE1328007230393249EDFF800B4002304468946FF
S3150FE1329009939846099A039B9A4257D294F8463076
S3150FE132A0122BF8D8DFE813F05B00700054009A0098
S3150FE132B0B8013B003200D5013B00CF013B00CF0106
S3150FE132C0B402520313001D032103490252030027DF
S3150FE132D0636D0F2B41D801251023019700950AAA9B
S3150FE132E007A92046FFF789FE41F2030398427AD1F7
S3150FE132F0D4F848A0FFF7E0FA8023CDE900030BAA43
S3150FE133002B4602215046FDF7AFFFE1E70125D4E950
S3150FE1331014329A42C0F01B8184F84650BAE70DF198
S3150FE13320280AD4E91452AA42099916D2089BAD1A72
S3150FE1333094F840205B1A032D134440F2A781032B27
S3150FE1334000F2CB8107A92046FFF736FE00204AE0BF
S3150FE133500025636D072B40F2C380012311E005AA17
S3150FE1336007A92046FFF7BEFE41F2030398423AD181
S3150FE13370069B236500236365059AB84B9A422DD1C7
S3150FE13380022384F8463085E705AA07A92046FFF709
S3150FE13390A9FE41F20303984225D194F84420059BF7
S3150FE133A022B1AF4A934219D10C23EAE794F84220AE
S3150FE133B0D1074FD594F84320002A40F0CA82A94A93
S3150FE133C0934241D017D8A84A934207D00ED8A34AC1
S3150FE133D0934203D002F1B642934215D1122384F8F8
S3150FE133E0463041F201001BB0BDE8F08F9F4A934290
S3150FE133F0F4D09F4AF0E79F4A93421BD00CD85B4526
S3150FE1340043D09D4A934217D0122384F8463005A83C
S3150FE13410FFF7A6F9D8B1E4E7984A9342DED0984A86
S3150FE134209342DBD08E4A9342EED1FFF79DF9002806
S3150FE13430BAD0D3E70E23A4E70F2384F84630236DE2
S3150FE13440A3650023E36525E7122384F8463041F2AD
S3150FE134500800C8E75B4514D000F27F82834A9342A6
S3150FE1346007D0834A934206D07F4A93420FD1062370
S3150FE1347087E7042385E7072383E7092381E70B23FF
S3150FE134807FE794F84330002BA8D1102379E705A8FD
S3150FE13490FFF766F9D0B11123059884F84630C4F8E1
S3150FE134A08C00FFF75FF994F842309A0680467FF574
S3150FE134B0F1AE00283FF4EEAE4368002B3FF4EAAEDF
S3150FE134C02046984700283FF4E5AE8AE7122384F8B1
S3150FE134D0463094F84330002BB9D041F2040082E72D
S3150FE134E001230093019508230AAA07A92046FFF7AE
S3150FE134F084FD41F2030398427FF475AF0A9B03F013
S3150FE135007F43B3F1407F05D0122384F8463041F271
S3150FE13510090068E70B9B0493DB070ED594F842305D
S3150FE1352043F0010384F84230FFF71EF900283FF418
S3150FE1353010AF049BDF0504D50BE7FFF717F900285A
S3150FE13540F2D0122384F8463041F20A004BE7CDE977
S3150FE1355000550AAA07A92046FFF74FFD41F20303DB
S3150FE1356098427FF440AF09F1080C0AAF63460DF1BB
S3150FE13570400E3A4603CA724518605960174603F181
S3150FE135800803F6D11068186099F8003043F001038B
S3150FE1359089F800306046FFF70BF900287FF4B7AEE4
S3150FE135A0122384F8463041F20C001CE70123CDE9E2
S3150FE135B000330AAA082307A92046FFF71EFD41F2A9
S3150FE135C0030398427FF40FAF99F8003043F00203FB
S3150FE135D089F800300A9BC9F80430236D083BC9F816
S3150FE135E024300B9B0493FFF7C9F8264A03689342ED
S3150FE135F07FF4F7AEFFF7C2F8049BC2689A427FF4F5
S3150FE13600EDAE052384F8463094F8453043F00103D7
S3150FE1361084F8453000236366636D072BC6D939E617
S3150FE136200423CDE900550AAA07A92046FFF7E5FCD1
S3150FE1363041F2030398427FF4D6AE226D0A9B0493BF
S3150FE13640042A01D923660125636D032BE8D90A23E1
S3150FE1365097E600236366082393E600BFEB17A603FD
S3150FE13660FC0404FCF70909F7F40A0AF4F50909F56C
S3150FE13670F60808F6FA0606FAF90707F9FD0303FD58
S3150FE13680FE0101FEAD1007B0F70A0AF79D423FF6BC
S3150FE1369059AE9D4228BF1D46032D88BF25F0030570
S3150FE136A00123CDE9003352462B4607A92046FFF702
S3150FE136B0A4FC41F2030398427FF495AE94F84630A9
S3150FE136C0082B13D1B7688FB13368606E2A4651461E
S3150FE136D0B847636E1D44656623E6402D28BF402536
S3150FE136E0D7E74FF0FF320AF805200135032DF8D958
S3150FE136F00A2B06D133462A4651462046FFF730FDBF
S3150FE137000FE6052B7FF40DAE99F8013098077FF59B
S3150FE1371008AEF368002B3FF404AE626E042A0AD8B2
S3150FE137205319062B07D90BAB9B1A1A68C4F88420D9
S3150FE137304FF0FF321A60F768C6E794F84230990600
S3150FE1374007D5D4F88C00FFF70DF8804600283FF433
S3150FE1375048AE01273FE0002B58D0B8F1000F55D006
S3150FE13760D8F81030002B51D020469847DDE90853A1
S3150FE13770ED1A94F840302B4498423FF6E3ADD4E985
S3150FE137801452AD1A402D28BF40259D4228BF1D4634
S3150FE137902B46CDE900770AAA07A92046FFF72DFCAC
S3150FE137A041F2030398427FF41EAE94F842309A0633
S3150FE137B011D5B8F1000F3FF414AED8F808A0BAF15D
S3150FE137C0000F3FF40EAE33462A460AA92046D047EC
S3150FE137D000287FF408AED4E9142194F842309142DF
S3150FE137E003F02003B7D3002B3FF4B7ADB8F1000FC9
S3150FE137F03FF4B3ADD8F80C30002B3FF4AEAD314604
S3150FE138002046984700283FF4A8ADECE50120ADE747
S3150FE138100023CDE900330AAA042307A92046FFF7BF
S3150FE13820ECFB41F2030398427FF4DDADD4F8882037
S3150FE13830554B9A4205D0122384F8463041F20500E2
S3150FE13840D1E5FEF791FF10B9012389F8033099F815
S3150FE138500330002B3ED094F845309B0707D0F5682F
S3150FE138602DB10422336804F184011046A847236E73
S3150FE1387083B3736873B31AAF4FF0FF3347F8583D0D
S3150FE1388004F1800804224146384600F085F840B13C
S3150FE13890FEF780FF28B10422D6E9003541461044F0
S3150FE138A0A84704F1680504222946384600F074F862
S3150FE138B080B17768FEF75CFF3368142204F16C017F
S3150FE138C00830B8477768FEF753FF04223368294675
S3150FE138D01044B847012389F802300D2384F84630A6
S3150FE138E034E5012384F843304BE594F84450002D39
S3150FE138F07FF433AD4023CDE900550AAA07A9204647
S3150FE13900FFF77BFB41F2030398427FF46CADE06C6A
S3150FE13910FDF728FDE76CFEF7C7FF8246FEF7C8FF06
S3150FE139205346009012AA0AA93846FDF7D1FC38B1E1
S3150FE13930122389F8035041F2060084F8463052E526
S3150FE13940012389F8033084F8443006E541F2070094
S3150FE1395049E55B457FF480AD40E50C4A93423FF480
S3150FE139608EAD0B4A93423FF488AD0A4A93427FF4F8
S3150FE139708EADFEF7F9FE00287FF430AD94F84330B3
S3150FE13980002B3FF411AD29E5E320BBDEFD0303FD7B
S3150FE13990FE0101FEFC0404FC30B50024A24201D174
S3150FE139A0002007E0035D01340D1915F8015CAB4208
S3150FE139B0F4D0581B30BD10B5431E0A44914200D1D5
S3150FE139C010BD11F8014B03F8014FF7E70244034627
S3150FE139D0934200D1704703F8011BF9E7F8B500BF31
S3150FE139E0F8BC08BC9E467047F8B500BFF8BC08BCEA
S3150FE139F09E4670474661756C74202020202020205A
S3150FE13A00202020005B53656375726520426F6F74EA
S3150FE13A105D203A20456E746572696E672042544C9B
S3150FE13A200042544C204170706C69636174696F6E2A
S3150FE13A3020766572696679696E67202E2E2E0042B1
S3150FE13A40544C204170706C69636174696F6E2076B6
S3150FE13A5065726966696564206661696C65640042D1
S3150FE13A60544C204170706C69636174696F6E207696
S3150FE13A7065726966696564207375636365737366F9
S3150FE13A80756C6C7900456E746572206170700042D9
S3150FE13A90544C20656E7472790000000007B0CD5E5C
S3150FE13AA00100000003000A01502D00000000000094
S3150FE13AB000002000F7000100E910E10FED10E10F22
S3150FE13AC0DD2AE10F892BE10FBB2BE10F003DE10F62
S3150FE13AD013B779FAC925DDB7ADF3CFE0F1B614B86F
S3150FE13AE001010000020000004C3DE10F4000000023
S3150FE13AF003000A01000000000000000000000000C2
S3150FE13B0000000000000000000000000000000000BF
S3150FE13B102000000000010000050C0000FFFFFFFF81
S3150FE13B20FFFFFFFFFFFFFFFF0000000000000000A7
S3150FE13B300000000001000000FFFFFFFF512563FCBD
S3150FE13B40C2CAB9F3849E17A7ADFAE6BCFFFFFFFF22
S3150FE13B50FFFFFFFF00000000FFFFFFFF96C298D8AF
S3150FE13B604539A1F4A033EB2D817D0377F240A463B0
S3150FE13B70E5E6BCF847422CE1F2D1176BF551BF37B9
S3150FE13B806840B6CBCE5E316B5733CE2B169E0F7C8C
S3150FE13B904AEBE78E9B7F1AFEE242E34F0A000000F3
S3150FE13BA001020300280000002800000000100000B9
S3150FE13BB000002000CC3BE10F0200000001000000F5
S3150FE13BC001000000000010000000100045465233CE
S3150FE13BD0320067452301EFCDAB8998BADCFE10328F
S3150FE13BE05476C3D2E1F000000000000000000000AF
S3150FE13BF00000C1059ED8367CD5073070DD17F70E6C
S3150FE13C005939FFC00B316858151164F98FA7BEFA00
S3150FE13C104FA46A09E667BB67AE853C6EF372A54FA3
S3150FE13C20F53A510E527F9B05688C1F83D9AB5BE04A
S3150FE13C30CD19800000000000000000000000000028
S3150FE13C40000000000000000000000000000000007E
S3150FE13C50000000000000000000000000000000006E
S3150FE13C60000000000000000000000000000000005E
S3150FE13C700000536C6F743A200056657269667920BD
S3150FE13C806661696C00424C207570672077697468CC
S3150FE13C90206E6F2061707000424C207570672000B6
S3150FE13CA0202D3E200042746C207570677261646549
S3150FE13CB020636F6D6D6974206661696C0042746C87
S3150FE13CC02075706772616465206661696C004E6F7D
S3150FE13CD02061707020696E20736C6F740041707093
S3150FE13CE02075706772616465206661696C00B8144E
S3150FE13CF0B6F1E0CFF3ADB7DD25C9FA79B713000019
S3150FE13D00000100007D2EE10F7D2CE10FB52CE10FB7
S3150FE13D101D2EE10F592EE10FA32FE10F892FE10F91
S3150FE13D20B32FE10FA52EE10F2B2DE10F8D2DE10F16
S3150FE13D30AD1FE10FB91FE10FD71FE10F0920E10F0A
S3150FE13D40000000006510E10F4110E10F8CB8DC2A8D
S503032ECB
S70500000000FA
