S0320000626F6F746C6F616465722D73746F726167652D696E7465726E616C2D73696E676C652D3531326B2D6372632E733337A7
S3150FE10800801000201D34E10F571AE10F091CE10F8B
S3150FE108105F1AE10FB71EE10F1B1FE10F000000008A
S3150FE1082000000000000000005808E10F4F1FE10F24
S3150FE10830472FE10F8C08E10FCB30E10FF330E10FDA
S3150FE10840454652333200000001000000010000006E
S3150FE108500040040000A0030007B0CD5E01000000D8
S3150FE1086003000A01442C000000000000000008000C
S3150FE10870F0000100B52CE10FB92CE10F4F0EE10F9E
S3150FE10880EB19E10F1D1AE10FCC08E10F13B779FA56
S3150FE10890C925DDB7ADF3CFE0F1B614B8010100001C
S3150FE108A0020000004034E10F4000000003000A019E
S3150FE108B00000000000000000000000000000000042
S3150FE108C00000000000000000000000000001000031
S3150FE108D0A909E10FFF09E10F2D0AE10F4B0AE10F1C
S3150FE108E0910AE10F8B32E10F7931E10F5933E10FC4
S3150FE108F0B10AE10FD90AE10F350BE10F0D0FE10F48
S3150FE10900170FE10F350FE10F6B0FE10F024870473C
S3150FE1091002487047024870474A43E00F6A43E00FC7
S3150FE109208642E00F4FF48820704718B5DFB04FF4D9
S3150FE10930BE726946002000F0BBF80021684600F060
S3150FE10940CBF840F201218842F7D040F203229042E0
S3150FE1095040F2054423D19DF8000000F00300022880
S3150FE109601DD09DF8000081070FD50E480268019949
S3150FE1097093688B4209D25B9800F042F978B100F0A7
S3150FE10980A1F9099900F0A1FA09E09DF80000C10764
S3150FE1099005D503995B9800F059F900B1002420467B
S3150FE109A060B010BD2808E10F10B504000CD04FF46C
S3150FE109B08030206000213D486160027822724068F4
S3150FE109C0E06000F09FFA206110BD78B5044604F5AA
S3150FE109D0B6760D46A1B0B1683068802301AA00F062
S3150FE109E025F80095802301AA214604F1280000F09D
S3150FE109F065FCF060B0688030B06022B070BD024631
S3150FE10A00002940F2014000D1704710B5274B5C68D1
S3150FE10A10A24203D300220A604A6010BD03EBC20073
S3150FE10A2082680A60C0684860002010BD38B500F0E2
S3150FE10A3021F800D326E000F017F800D225E09B68F5
S3150FE10A40C018BDE8384000F066BA38B500F012F8C4
S3150FE10A5000D317E000F008F800D216E09B68C01843
S3150FE10A60BDE8384000F066BA03EBC4031518DC683D
S3150FE10A70AC4270470446084611461A460B4B5D6871
S3150FE10A80AC42704740F2014032BD40F2024032BD06
S3150FE10A9006494A68904202D340F20140704701EBA2
S3150FE10AA0C000C168806800F060BA00004808E10F35
S3150FE10AB03EB504460D461146284600F096FF50B95D
S3150FE10AC069462046FFF79BFF28B905F5B670046026
S3150FE10AD00199416000203EBD38B584B004460D460C
S3150FE10AE06846102100F0B8FF029504F5B875A868BD
S3150FE10AF088B96868296888420DD269462046FFF7AA
S3150FE10B0064FFA86800281CBF41F2070188420BD198
S3150FE10B1040F2012008E0A07800281DBFE078002808
S3150FE10B2040F2032040F2022005B030BD01201870DB
S3150FE10B3070470000F0B585B004460D46164600270E
S3150FE10B408DF800700DF104004BA1102200F098FF13
S3150FE10B50CDF804D037601C21284600F07DFF04F55F
S3150FE10B60B8779DF8000080B994F86E0011280CD083
S3150FE10B70B86850B978683968884206D201A9204623
S3150FE10B80FFF723FFEDE705B0F0BD2078810744BFFE
S3150FE10B90606830602178C80705D51C2204F1080189
S3150FE10BA0284600F06DFF9DF80010002905BF20785B
S3150FE10BB00028002040F20640E5E770B504460D46F1
S3150FE10BC0202304F5807204F1B80104F1280000F046
S3150FE10BD039FB04F5B876B06850B970683168884268
S3150FE10BE006D229462046FFF7F0FEF4E7002070BD56
S3150FE10BF0A07800281CBFE0780028F7D0012070BD4F
S3150FE10C0030B5E3B004460D4600F059F88068A842C6
S3150FE10C1006D24FF4BE7204A92046FFF749FF08B189
S3150FE10C20002008E05FF0020000F007F816A100F0DF
S3150FE10C3027FF00F007F863B030BD8DF811001022E1
S3150FE10C4068467047694604A8B7E7000000B5E3B008
S3150FE10C5000F00DF808B1002007E00120FFF7EDFFE6
S3150FE10C600DA100F00DFFFFF7EDFF63B000BD4FF4EF
S3150FE10C70BE7204A91CE70000000000002D0BE10F76
S3150FE10C802D0BE10F2D0BE10F00000000000000001E
S3150FE10C9000000000030EE10F00000000DB0DE10F85
S3150FE10CA000000000000000000020704700207047A0
S3150FE10CB0094801680869704708480068704706489F
S3150FE10CC0006870470548064A00680168914201D1FC
S3150FE10CD000697047002070472808E10F2800E10FEF
S3150FE10CE0AD1007B001207047F8B50446E00A0D468E
S3150FE10CF01646B4EBC02004BF204600F0ECFE04F527
S3150FE10D000067FF0AFF0204E0384600F0E4FE07F54C
S3150FE10D10006730198742F7D3324629462046BDE8A8
S3150FE10D20F84000F0F4BE00007FB504464FEA0D002F
S3150FE10D3070A1102200F0A4FE002046420DEB06053D
S3150FE10D40225CE97B914205D1401C1028F5D30120A5
S3150FE10D5004B070BD0020FBE7B0B505469CB06C6BE7
S3150FE10D60FFF7ADFF07462046FFF7DEFF002832D03B
S3150FE10D70207C022812D22046FFF7D6FF30B16069F8
S3150FE10D8001280BD1207C022808D2A4693869844254
S3150FE10D9028BFAC4202D354498C4201D300201AE05A
S3150FE10DA001A800F0E2FE621B294601A800F0E7FE6A
S3150FE10DB001A800F0E6FEFFF7ABFD0546FFF7A6FD3E
S3150FE10DC00346009504F12002214601A800F0DCFE5E
S3150FE10DD0401E8041C00F1CB0B0BD70B504460D4634
S3150FE10DE01646FFF76CFF01698C4222BF4069321943
S3150FE10DF0904205D3324629462046BDE8704073E757
S3150FE10E0070BD2DE9F041044688461646FFF754FFBB
S3150FE10E1036490068884218D1FFF751FF0746FFF7B9
S3150FE10E2051FF25187019304988420ED23CB9FFF7A8
S3150FE10E3049FF796988423CBF386900F04CFE32467A
S3150FE10E4041462846BDE8F0414EE7BDE8F081F8B5E9
S3150FE10E50044625686768666BFFF731FF05F1604564
S3150FE10E60B5F1011F29D20069874226D31E498F4268
S3150FE10E7023D24030864201D38E4205D300F054FF90
S3150FE10E80401E8041C00FF2BD00F04EFFB8B93046AB
S3150FE10E90FFF74AFFB8B1307C02280ED2706990B1E4
S3150FE10EA002280CD1B069001D011B4FF0FF3220461D
S3150FE10EB000F03CFF0E49884205D00020F2BD2046E6
S3150FE10EC0BDE8F24048E70120F2BD80B54FF0FF32B1
S3150FE10ED000F02CFF064B984204BF40F2092000F0C8
S3150FE10EE04BFF002002BD000001000800AD1007B066
S3150FE10EF0E320BBDEB814B6F1E0CFF3ADB7DD25C91C
S3150FE10F00FA79B7132CA0704700207047274800687D
S3150FE10F1000F00100704710B50B461118244CA142A1
S3150FE10F2005D20146184600F09BFD002010BD40F2A8
S3150FE10F30024010BD38B513181D4DAB4240F20244C5
S3150FE10F400BD2002300E01B1D934208D21D5815F169
S3150FE10F50010FF8D040F2034032BD204632BD00F01A
S3150FE10F60D6FD0028F9D0002032BD70B505460C46F6
S3150FE10F70600501D1690502D040F2044070BD6019E8
S3150FE10F800B49884240F2024603D300E008B93046E6
S3150FE10F9070BD284600F09FFDB4F5006405F50065C8
S3150FE10FA0F4D10028F3D0002070BD00001C000E40E4
S3150FE10FB0010008000020704701020300280000002D
S3150FE10FC02800000000080000000008004008E10FBB
S3150FE10FD0020000002DE9F8431E467368002B4ED040
S3150FE10FE00C4614F0030118BF41F2020048D1154631
S3150FE10FF00746FFF75DFE396E001D6A18824221D35F
S3150FE1100000F1180399421DD28C46844538BF8446B8
S3150FE1101005EB010800F11802904588BF9046ACEB4D
S3150FE110200101ACEB000004EB0109A8EB0C08384415
S3150FE1103042464946683000F013FDFF2241464846D5
S3150FE1104000F0D0FEFFF73EFE396E001D884222BF4B
S3150FE110506A18031D9A4209D3411A601807F18001F4
S3150FE1106002680A600421FF2200F0BCFE21463368C4
S3150FE11070386E74682A46A047386E2D183D660020F3
S3150FE11080BDE8F28370B54B688C689C4206D200F1DD
S3150FE1109040021B1B14781B19412B01D3002070BD95
S3150FE110A0537814780D68E4188B68EE5C04F03F040E
S3150FE110B006558C68641C8C6013785B1C13708C6806
S3150FE110C04B689C42ECD3012070BD90F840004A6812
S3150FE110D089681018401A70472DE9F0410C461746FA
S3150FE110E01D468046FFF7F1FFA84208F1400606D2FA
S3150FE110F021464046FFF7C6FF10B300204DE0002121
S3150FE111000CE0707818F800207A54491C737830781F
S3150FE111105B1C03F03F03421E73703270307808B1E7
S3150FE11120A942EED3A0686268904238BFA9420CD2B9
S3150FE111302368185C7854491CA268521CA260F1E737
S3150FE111401220B07141F2020027E0A942F8D1069CC4
S3150FE11150B26C2946384600F0E9FDB06424B1F06877
S3150FE111602A46394600F00BFD079838B1F07878B189
S3150FE11170B0682B463A46394600F08AFEF07838B128
S3150FE11180F069B1692818F061884224BF0020F07038
S3150FE1119070692D18756141F20300BDE8F081F8B56C
S3150FE111A084B014460026054601960096082302AA46
S3150FE111B0FFF792FF41F20306B0423CD195F84300A7
S3150FE111C005F1480738B100F038F83868082302AA64
S3150FE111D002A900F05DFE9DF80A209DF80B009DF82F
S3150FE111E00910120442EA00629DF8080042EA012260
S3150FE111F0024322609DF80E009DF80F10000440EAAD
S3150FE1120001609DF80D1040EA01209DF80C1008438E
S3150FE11210606095F8430048B9DFF868178A421CBF4A
S3150FE11220DFF86407824201D000F007F86068B86022
S3150FE112300021F960304605B0F0BD7868082202A9B1
S3150FE1124000F09DBCF8B5064606F140070020B871DF
S3150FE112507870F87038710D4600214FF0FF30397014
S3150FE11260797103F02003B864396279621446BB7071
S3150FE11270FF22182106F1680000F0B4FDFF220421D8
S3150FE1128006F1800000F0AEFDFF22042106F1840095
S3150FE1129000F0A8FDBD60FC60FFF708FD00B11DB1D0
S3150FE112A0FFF702FD18B114B941F20B00F2BD14B10B
S3150FE112B0F86800F05AFC0020F2BD00002DE9FB4F63
S3150FE112C082460021002300249AB005A880E81A007F
S3150FE112D0059209910AF148061C9A269D06920AF192
S3150FE112E0420710E000F076FB0899884233D1049863
S3150FE112F0B0600021F1600398DFF89016884240F064
S3150FE11300468102223A7107981C99884280F0D3826E
S3150FE1131041F2030208920DF1280839791229F2D820
S3150FE11320DFE811F014001500CD0235010C030E03B1
S3150FE11330E70257010E0352010E0352012402C602C0
S3150FE1134011039A029D02D701C602DCE7CAE700F054
S3150FE1135041FB0899884240F0AF82B87820B10398F3
S3150FE11360DFF82416884246E03A78D1074DD57878EA
S3150FE1137000284AD10398DFF8141688421CBFDFF81C
S3150FE113801016884225D0DFF80C1688421FBFDFF80A
S3150FE1139008168842DFF8041688421AD0DFF80016DD
S3150FE113A0884222D0DFF8DC15884265D0DFF8F415E4
S3150FE113B0884213D0DFF8F01588420DD0DFF8C81553
S3150FE113C0884215D0DFF8E41588421CBFDFF8E01537
S3150FE113D0884200F0DC8010E00E2293E70F2038718F
S3150FE113E00020B168316170618DE71221397166E0D4
S3150FE113F0FFF75AFC00283DD138E01220387103A8D7
S3150FE1140000F055FD00285AD0A8E20398DFF88415BD
S3150FE1141088421AD0DFF88015884214D0DFF87C15A0
S3150FE11420884215D0DFF85C15884221D0DFF85815D0
S3150FE11430884214D0DFF8741588420ED0DFF87015A4
S3150FE11440884208D01AE004225CE7062038715AE791
S3150FE114500721397157E70920F8E70B21F9E7FFF77C
S3150FE1146023FC002804BF7878002803D10C21F0E78C
S3150FE114707878002840F08B801021EAE703A800F086
S3150FE1148016FDA8B10398706411213971039800F024
S3150FE1149010FD099038788106DCD5099800281CBF24
S3150FE114A041680029D6D0504688470028D2D055E268
S3150FE114B012217878397110B141F20400FCE141F261
S3150FE114C00800F9E198F8050098F8041041EA0021BF
S3150FE114D00291C90704D5387840F00100387002E06F
S3150FE114E0FFF7E4FB40B9FFF7DFFB002800F0E981E6
S3150FE114F00298C10500F1E5811220387141F20A0027
S3150FE11500DAE10520F978387141F00101F97000202F
S3150FE11510F061F068082880F01F82012101910091A6
S3150FE1152000F05DFA08998842EAD1207840F002008E
S3150FE11530207098F8020098F803109DF8282000040F
S3150FE1154040EA016098F8011040EA0120104360601B
S3150FE11550B0680838606298F8061098F8070098F8AE
S3150FE115600420090441EA006198F8050041EA0021E7
S3150FE1157011430291FFF7A0FBDFF8381400688842A8
S3150FE1158007D1FFF799FB0299C0688142B9D01221C1
S3150FE115903971E3E1012000F015FA08998842AFD1DC
S3150FE115A098F8021098F803009DF82820090441EAFB
S3150FE115B0006198F8010041EA002111430291B068F8
S3150FE115C0052824BF0298B061F0680428E2D30A2106
S3150FE115D03FE70020F06108213BE72B68F0694246BF
S3150FE115E00AA9E047F0694044F061B068F1688142C9
S3150FE115F080F0AF81A0EB0108B8F1040F05A95046C1
S3150FE1160008D3FFF762FD042808D205A95046FFF774
S3150FE1161039FD50E1FFF759FD4045F6D3B8F1410FDA
S3150FE1162028BF4FF0400800F0C9F9404502D200F05B
S3150FE11630C5F98046B8F1040F24BF4FEA98004FEA87
S3150FE116408008012001900090434600F0BEF9089909
S3150FE11650884240F031813879082804D1D5F808C09D
S3150FE11660BCF1000FB9D1B8F1040FC8F1040B06D2E2
S3150FE116700AA8FF225946404400F0B4FBD844387912
S3150FE116800A2806D12B4642460AA95046FFF7A2FC85
S3150FE11690ABE70528A9D199F801008107A5D5E86837
S3150FE116A00028A2D0F06905280ED208EB0001072920
S3150FE116B00AD30AA9091D081A0AF184020168116001
S3150FE116C0FF22042100F08EFB2B68F069D5F80CC0E0
S3150FE116D085E73978880640F14481706C00F0E9FBC3
S3150FE116E00028099040F03D8138E14FF0010900F003
S3150FE116F065F9484589D3B068F168A0EB0109B9F1FD
S3150FE11700410F28BF4FF0400900F058F9814502D348
S3150FE1171000F054F981460120019000904B4600F00C
S3150FE1172054F9089988422FD1387881060DD5002CC6
S3150FE117301CBFD4F808C0BCF1000FD5D02B464A46E2
S3150FE117400AA95046E04700281ED1F068B1688842E1
S3150FE1175080F0098138788106C7D5002C1CBF216935
S3150FE117600029C2D0504688478146C0E7002000F0E5
S3150FE1177029F90899884207D1306C8F49884204D0FC
S3150FE1178012223A7141F2050096E0FFF78DFA18B988
S3150FE117901B990120C87003E01B99C87800283FD038
S3150FE117A0F87810F0030F1CBFEC68002C05D02B68FE
S3150FE117B004220AF184010420A047B06900281CBF66
S3150FE117C0686800282CD04FF0FF3102910AF18004AE
S3150FE117D00422214602A800F06FFB40B1FFF772FA2F
S3150FE117E028B121462B686C680422001DA04704220C
S3150FE117F00AF1680102A800F05FFB88B1FFF758FA1A
S3150FE118002B686C6814220AF16C010830A047FFF7C8
S3150FE118104FFA2B686C6804220AF16801001DA04794
S3150FE118201B99012088700D20387144E000200121B9
S3150FE1183001900091102300F0C8F8089988423BD136
S3150FE11840FFF768F8802100900191012330680BAA18
S3150FE11850022100F0FAFA78E00120787026E0B878F4
S3150FE1186020BB002101910090402300F0AEF80899CA
S3150FE11870884221D1706800F084F9FFF749F80446F0
S3150FE11880FFF744F800940346706812AA0AA900F01C
S3150FE118907BF938B11B990020C8701220387141F2DB
S3150FE118A0060009E01B990120C870B8700121D0E547
S3150FE118B041F2070000E000201DB0BDE8F08FDDF832
S3150FE118C06C90F068082844D2002101200191009024
S3150FE118D000F085F808998842EED198F803000006E2
S3150FE118E0B0F1407F3FF4EEAD1220387141F20900BD
S3150FE118F0E2E7DDF86C90B368F068984229D20121EE
S3150FE119000191009100F061F808998842D4D11C2227
S3150FE119100AA909F1080000F0B3F899F8000040F0C0
S3150FE11920010089F8000009F10800FFF7DBF900284B
S3150FE11930E1D11220387141F20C00BDE71B9CE8E5BD
S3150FE11940DDF86C9051E6DDF86C90F0681028FFF445
S3150FE119506DAFCDF86C90A9E71B94D4E441F2010089
S3150FE11960AAE7099CF1E60994387881069ED5002C01
S3150FE119701CBFE268002A99D02946504690470028B5
S3150FE119809AD193E7F70A0AF7FC0404FCEB17A603CF
S3150FE11990EB17A65EF40A0AF4F50909F5F60808F657
S3150FE119A0F70909F7F90707F9FA0606FAFD0303FD41
S3150FE119B0FE0101FEAD1007B0E320BBDE05A95046DF
S3150FE119C0FFF783BB0190009004230AAA05A95046AD
S3150FE119D0FFF782BB03AA05A95046FFF7E0BB082331
S3150FE119E00AAA05A95046FFF777BB10B5B1F5BE7F39
S3150FE119F0044602D240F2052010BD4FF4BE7100F04D
S3150FE11A002BF80020607004F5807204F1B80104F13F
S3150FE11A102800BDE810400023FFF714BC1CB5009168
S3150FE11A200446214604F12800FFF748FC00281CBFB5
S3150FE11A3041F207018842C4F878010BD1A07838B199
S3150FE11A40E07810B140F2032016BD40F2022016BD38
S3150FE11A5040F2012016BDFEE7002200F05FBAFEE775
S3150FE11A6062B38B0708D0521E11F8013B00F8013B18
S3150FE11A7000F024808B07F6D1830740F0208000BF6A
S3150FE11A80103A07D330B4B1E83810103AA0E838105D
S3150FE11A90F9D230BC530724BFB1E80810A0E808100B
S3150FE11AA044BF51F8043B40F8043BD20724BF31F859
S3150FE11AB0022B20F8022B44BF0B7803707047083ACC
S3150FE11AC007D3B1E80810083A40F8043B40F804CBD5
S3150FE11AD0F7D25307E4E780B500F0B4FA401E804130
S3150FE11AE0C00F02BD80B58308800705D54FF6FF729B
S3150FE11AF042EA0142009204E041F07F4141F47F0165
S3150FE11B00009104226946980000F0DDFA02BDF8B5AE
S3150FE11B1005460E46144605F0010104F001000143A6
S3150FE11B2021D1F4B1AA0707D536F8021B2846FFF7EC
S3150FE11B30D9FFC0B9AD1CA41E042C0CD3A708BF0056
S3150FE11B403A463146284600F0BEFA790806EB4106D9
S3150FE11B507D19E41B38B924B131882846FFF7C2FF56
S3150FE11B6008B90120F2BD0020F2BD10B5044600F020
S3150FE11B706FFB2046BDE81040002100F099BB00F055
S3150FE11B8099BB014600F097BB2DE9F84106000D46DA
S3150FE11B9018BF002DA1B01446984606D0002C18BFE9
S3150FE11BA0B8F1000F01D0289F17B940F2016023E089
S3150FE11BB00121134800F0E4FB402111A8FFF74CFF88
S3150FE11BC0414611A800F0C7FE394619A800F0C3FE39
S3150FE11BD001A84021FFF740FF294601A800F0BBFE0F
S3150FE11BE0214609A800F0B7FE01A8009011AB20220B
S3150FE11BF03146044800F0BEFE22B0BDE8F081000098
S3150FE11C0000050A0000000F404FF4017000F0B4B870
S3150FE11C1080B53C4801214164026842F4807202605A
S3150FE11C20684601F02DF89DF801000128DCBF9DF80B
S3150FE11C300000022809DD3448344A354B4FF4187158
S3150FE11C400160426043663349C16640213248C16053
S3150FE11C5002685103FCD401F02DF800F088F8FEF785
S3150FE11C6064FE48B940F2012000F086F84FF40170A6
S3150FE11C7000F082F8002002BD284901E00099491ED3
S3150FE11C80009100990129F9DA40F205429042EDD12E
S3150FE11C9040F20320ECE7000038B521480168012442
S3150FE11CA001254A050CD500F089F840F20221401AC8
S3150FE11CB004D0C01E02D0C01E012801D80024002581
S3150FE11CC00420016811F1010F06D1BDE832404FF44E
S3150FE11CD0027000F045B831BD25B10020FFF7B7F826
S3150FE11CE00400F2D0002CF6D00E4900200860002245
S3150FE11CF01046016881F3088881F3098840688746B1
S3150FE11D00FEE7000000000E408C420E409A6F050080
S3150FE11D10180100040084320804300E4000350C002F
S3150FE11D2004500E4008ED00E00020704730B50A4B35
S3150FE11D301C6844F040041C600125084B1D609A6045
S3150FE11D405D6002E010F8014B9C610A46511E002AC4
S3150FE11D50F8D1D86930BD00BFB0400E4000C0014098
S3150FE11D604FF0005108804FF20F00488070470F493E
S3150FE11D704CF23C30088070474FF0005108804FF22B
S3150FE11D800F0048800A48016821F4E06141F40071CF
S3150FE11D900160BFF34F8F074907480A6802F4E06213
S3150FE11DA002430A60BFF34F8F00BFFDE70200002039
S3150FE11DB000500E400CED00E00400FA054FF0005123
S3150FE11DC04FF20F024888904201D1088870470028E8
S3150FE11DD004BF0888012802D140F2022070474FF470
S3150FE11DE00070704762F30F2262F31F42401810F042
S3150FE11DF0030308D0C91A1FD3DB0748BF00F8012D2B
S3150FE11E0028BF20F8022D130030B4144615461039B9
S3150FE11E1028BF20E93C00FAD8490728BF20E90C0082
S3150FE11E2048BF40F8042D890028BF20F8022D48BF8E
S3150FE11E3000F8012D30BC7047C91818BF00F8012D05
S3150FE11E40CB0728BF00F8012D70472DE9F843089D10
S3150FE11E50099F80460E4691461C4600F0A5FF3A467D
S3150FE11E602946404600F0A6FF08F124000021016053
S3150FE11E7006750C22494608F13900FFF7F1FD08F125
S3150FE11E804500210C220A847001704270BDE8F1838E
S3150FE11E903EB5029201911C4600F12805009500F12D
S3150FE11EA0380300F12402214600F0A8FF37BD0020D8
S3150FE11EB0704700207047FEE70300002013F0030F81
S3150FE11EC009D0521E22BF13F8010B11F801CBB0EB6B
S3150FE11ED00C00F3D07047121F22BF53F8040B51F8D1
S3150FE11EE004CB6045F7D0121D0AD200BA9CFA8CFCDE
S3150FE11EF0B0EB0C0038BF6FF0000088BF01207047D0
S3150FE11F00521E22BF13F8010B11F801CBB0EB0C00F7
S3150FE11F10F6D0521C08BF10467047FEE700B500BF6A
S3150FE11F20130096469446103928BFA0E80C50FAD80C
S3150FE11F305FEA417C28BF0CC048BF40F8042BC907B4
S3150FE11F4028BF20F8022B48BF00F8012B00BDFEE7A2
S3150FE11F5010B55F495F4A01E021B1491E1369DC07FC
S3150FE11F60FAD411B96FF0020010BD50600120106074
S3150FE11F701169480702D54FF0FF3010BD002010BDA3
S3150FE11F8003460020002900D1704770B5514C53F834
S3150FE11F90042BE26008252560491E4D4A01E062B136
S3150FE11FA0521E2569EE07FAD43AB12269940701D494
S3150FE11FB011B1EBE76FF0010070BD6FF0020070BD7C
S3150FE11FC02DE9F047414EB36B804600209FB207B132
S3150FE11FD0012741F67133B3638A463B4B1C681B6895
S3150FE11FE0356845F0010535600024950812E0C9F31F
S3150FE11FF00A09C9F500694FEA9909281B484538BF0F
S3150FE12000814649465046FFF7BBFF010010D14C44CC
S3150FE120100AEB890AAC420BD208EB84094846FFF773
S3150FE1202097FF0100E3D0316849084900316003E0C9
S3150FE120303268520852003260FFB20FB10021B1632C
S3150FE12040BDE8F08770B5214B21490246986B80B206
S3150FE1205000B1012041F671349C631B4C256824685D
S3150FE120601E6846F001061E609A6001225A605C699D
S3150FE12070620704D500F01FF84FF0FF3070BD022262
S3150FE120805A605A69D4070ED5002918BF491EF8D1EF
S3150FE1209009E00029196802D100F00EF88DE700F08A
S3150FE120A00BF8002070BD5A699407F2D500F003F8DA
S3150FE120B06FF0010070BD196849084900196008B150
S3150FE120C00020986370477BE704300E4008000E400E
S3150FE120D0809698000C000E402DE9F84F02288346B2
S3150FE120E01FD8140055D00B9AD2F800C0BCF13F0FA0
S3150FE120F0984618D85068002818BF5FEA080A13D126
S3150FE12100BBF1000F04D0BBF1020F07D003D308E0F8
S3150FE121100FF2AC1A08E00FF2C81A05E00FF2E01A57
S3150FE1212002E04A4836E0C2460CF03F06A444A44515
S3150FE12130C6F14005C2F800C002D25068401C50609B
S3150FE1214089460A9F8EB1AC420FD32A46B819FFF7DB
S3150FE1215087FC0120009043463A465146584600F027
S3150FE1216012FFC246A944641B00263F2C0BD9A509D1
S3150FE12170009543464A465146584600F004FF09EB9F
S3150FE121808519A4EB851424B122464946B819FFF700
S3150FE1219067FC0020BDE8F28F2DE9F84304462000E5
S3150FE121A086B0884616461F4603D0022C30D02DD373
S3150FE121B030E01425002100200DF1080C4242920077
S3150FE121C057F82030D21D01EBC3010CF8021002A91A
S3150FE121D0114457F82020C91E52098A7057F820205A
S3150FE121E0520B4A7057F82020520D0A7057F82010FB
S3150FE121F0490F401C0128E1D93A7802F03F02382A0B
S3150FE1220034BFC2F13802C2F1780205E01C25D1E7ED
S3150FE122102025CFE70D4816E0DDF8389040A101976C
S3150FE12220009643462046FFF757FF01970096434630
S3150FE12230082202A92046FFF74FFF2A4641464846A4
S3150FE12240FFF70EFC002007B0BDE8F08380AFFFFF7C
S3150FE1225000281CBF6C21FFF7FFBB70470022002946
S3150FE122600260CCBF01210021426080F86810002096
S3150FE1227070473EB590F868300190002B14BF0124EA
S3150FE12280022400F1280500F1080300952046FFF727
S3150FE1229023FF3EBD80B5034603F1280293F868009C
S3150FE122A00091002814BF0120022003F1080103E089
S3150FE122B0D4E70000DDE7EDE7FFF76EFF02BD0000B3
S3150FE122C067452301EFCDAB8998BADCFE1032547620
S3150FE122D0C3D2E1F0000000000000000000000000A2
S3150FE122E0C1059ED8367CD5073070DD17F70E593903
S3150FE122F0FFC00B316858151164F98FA7BEFA4FA4C9
S3150FE123006A09E667BB67AE853C6EF372A54FF53A90
S3150FE12310510E527F9B05688C1F83D9AB5BE0CD19BC
S3150FE123208000000000000000000000000000000037
S3150FE1233000000000000000000000000000000000A7
S3150FE123400000000000000000000000000000000097
S3150FE123500000000000000000000000000000000087
S3150FE12360890001EB401101F184410A607047DFF802
S3150FE1237074104A68D30702D40A680242FCD1704747
S3150FE1238070B50C460246110A01F00F010020491EF5
S3150FE123900929DFF8545013D8DFE801F005131212BB
S3150FE123A0071518121B1FDFF83850C2F3043608B1B0
S3150FE123B0FFF7DDFF224631462846BDE87040CFE7FD
S3150FE123C070BD1035F1E730350120EEE738351020D5
S3150FE123D0EBE740354FF48030E7E7DFF81050E4E7FD
S3150FE123E000400E4040410E40B0400E4050410E407D
S3150FE123F010B50A684B688C68C968026003600460AF
S3150FE12400016010BD10B502680368046800680A60D0
S3150FE124108C604B60C86010BD38B504460D46FFF7BA
S3150FE12420E7FF05F110012046BDE83440E0E738B596
S3150FE1243004460D46FFF7E6FF05F110012046BDE81C
S3150FE124403440DFE7082250F8041B21B9521EFAD1B6
S3150FE124500020C0B270471000FBD00120F9E7F8B5B4
S3150FE1246000F065F90746294604F58470FFF7D4FFB6
S3150FE12470314604F58670FFF7CFFF384600F01EFEB2
S3150FE12480DFF8DC062065012161656069000E00F069
S3150FE12490010080F00100F2BD2DE9F84F88B0044646
S3150FE124A00D4692461E4600F00CFE834604F58277F2
S3150FE124B005F1400100F035F904F58678514600F053
S3150FE124C029F904F588790AF120014846FFF7A4FFB7
S3150FE124D000F022F900F038FAA065E16504F5847A97
S3150FE124E000F0EFFD8346294600F01BF905F12001C7
S3150FE124F05046FFF791FF05F140014846FFF78CFF84
S3150FE1250000F00AF9DFF85C06DFF85C162065616515
S3150FE125100120A06504F5807900F0D3FD834606F12D
S3150FE1252040014846FFF783FF69465046FFF77FFFB5
S3150FE1253000F0F2F800F0C5FD834600F0EAF800F08E
S3150FE12540EBF8DFF82806DFF828162065616501212B
S3150FE12550DFF8200600F0E7F8804600F0E0F800F03B
S3150FE125602BF9DFF81406DFF8141600F021F805460B
S3150FE1257031465046FFF75BFF284600F09FFD00F01E
S3150FE12580A0FD054669463846FFF746FF284600F0A7
S3150FE1259095FDDFF8EC05DFF8EC1500F009F80446D8
S3150FE125A000F0B3F8204600F089FD09B0BDE8F08FE1
S3150FE125B0206561650120A06500F083BD2DE9F84F27
S3150FE125C098B000F0B4F8804604F5827700F0A7F8EA
S3150FE125D000F0F2F8DFF8B005DFF8B01520656165B8
S3150FE125E004F58078DFF8A805FFF7E5FF814608A92E
S3150FE125F04046FFF71CFF484600F060FD00F061FD25
S3150FE12600814600F086F8484600F058FDDFF884056C
S3150FE12610DFF88415206561654FF48670A06504F5D2
S3150FE12620867900F04EFD824610A94846FFF7FFFE78
S3150FE1263069464046FFF7FBFE504600F03FFD00F0CE
S3150FE1264040FD824605F1400100F06BF8504600F07F
S3150FE1265035FDDFF8480520650121616504F5847ACA
S3150FE1266000F02FFD834600F0C1FA00F055F8DFF8D0
S3150FE126703005DFF83015206561650121DFF82805A2
S3150FE1268000F051F8834669465046FFF7C5FE10A99B
S3150FE126904846FFF7C1FE00F03FF8DFF81005DFF817
S3150FE126A0101520656165DFF80C05FFF784FF83469A
S3150FE126B0314604F58870FFF7BAFE00F02DF800F009
S3150FE126C000FD834600F02BF805F140015046FFF778
S3150FE126D0A3FE08A94846FFF79FFE00F01DF8DFF8B5
S3150FE126E0D804DFF8D8142065616500F0EAFC0446EA
S3150FE126F006F140014046FFF79AFE00F006F8204644
S3150FE1270000F0DCFC19B0BDE8F08F06F12001484678
S3150FE127108DE6294640467FE6584600F0CFBC05F1E7
S3150FE127202001384678E6A065E16500F0CABC0446AB
S3150FE127300D46164600F0C5BC2DE9F04105460E469D
S3150FE127401C46174620212046FFF786F90122226013
S3150FE1275000F0B7FC8046394605F58070FFF75CFE61
S3150FE12760314605F58270FFF757FE05F5847621466A
S3150FE127703046FFF751FE00F01FF8DFF844042865F5
S3150FE127800BE0DFF84014DFF8400429656865DFF8F0
S3150FE127903C14DFF83C04A965E8656869C101F0D529
S3150FE127A000F08FFC054621463046FFF740FE2846EE
S3150FE127B0BDE8F04100F082BC404600F07FBC50F826
S3150FE127C0043B934203D007E050F8042B22B9091FCB
S3150FE127D00129F9DA01207047002070472DE9F04110
S3150FE127E088B004460D461646984620216846FFF7FF
S3150FE127F033F90122009220214046FFF72DF92021DE
S3150FE1280008F12000FFF728F9202108F14000FFF732
S3150FE1281023F90521204600F059FC002020602063B2
S3150FE128206063FF2700F040F802D47F1E002FF9DC2A
S3150FE12830002F36D4424641462046FFF7BFFE00F051
S3150FE1284033F82CD5002220214046FFF7B8FF00B31D
S3150FE128500022202108F12000FFF7B1FFC8B10022C5
S3150FE12860202108F14000FFF7AAFF90B12022294667
S3150FE128704046FFF705F9202205F1200108F1200076
S3150FE12880FFF7FEF82022694608F14000FFF7F8F856
S3150FE1289005E043462A4641462046FFF7FDFD7F1EEA
S3150FE128A0C6E708B0BDE8F081381107EBD0604011FB
S3150FE128B056F82010A7EB4010C140CA0770472DE923
S3150FE128C0F0410F4690B004461546052100F0FEFB98
S3150FE128D00022226022636263684620220FF22031D2
S3150FE128E0FFF7CEF808AB6A4607F140012046FFF73E
S3150FE128F023FF00F0E6FB804608A904F58270FFF797
S3150FE129008BFD04F5867639463046FFF785FD07F1EF
S3150FE12910200104F58870FFF77FFDFFF74DFF00F00B
S3150FE1292013F8FFF700FF074605F1200104F5807064
S3150FE12930FFF77DFD29463046FFF779FD384600F072
S3150FE12940BDFB10B0BDE8F0818F48A24920656165F6
S3150FE129500121A148704738B50D4604462021FFF7FE
S3150FE129607BF8FFE71F204242295C2244401ED177C4
S3150FE12970F9D531BD2DE9F04FB9B007460C461646EC
S3150FE129801D4621A86021FFF767F809A86021FFF727
S3150FE1299063F83CB1009528001CBF429D002D01D084
S3150FE129A0002E02DC40F20160D5E00020386038638A
S3150FE129B078630C2178680FF23C2840F010007860BC
S3150FE129C0384600F083FB786820F4406040F40060FD
S3150FE129D078602022786820F4407040F400707860C7
S3150FE129E008F12C0111A8FFF74BF811AA2946384631
S3150FE129F0FFF735FD78B92846FFF724FD58B111AA3F
S3150FE12A0005F120013846FFF72AFD20B905F120002F
S3150FE12A10FFF718FD10B940F202609CE0202EC8BF07
S3150FE12A202026202119A8FFF717F8002014E0321A03
S3150FE12A30521E09A99208A6F1010E01EB8201AEEB36
S3150FE12A40000E235C0A6C4FEACE0E0EF0180E03FA57
S3150FE12A500EF31A430A64401CB042E8DB00F031FB87
S3150FE12A60064607F5847419A92046FFF7D5FC3046CB
S3150FE12A7000F024FB5948386507F5807600F021FB15
S3150FE12A80814619A93046FFF7D2FC484600F016FBFE
S3150FE12A9001AB11AA05F120013846FFF74DFE00F013
S3150FE12AA010FB834601A907F58270FFF7B5FC07F521
S3150FE12AB0887919A94846FFF7AFFC07F5867A00F042
S3150FE12AC095F8FFF729FE464846493865796500F0DE
S3150FE12AD0F8FA834619A94846FFF7A9FC01A930463A
S3150FE12AE0FFF7A5FCFFF718FE21AB19AA08F14C0178
S3150FE12AF03846FFF773FE009909AB01AA3846FFF78F
S3150FE12B006DFE21AA21A93846FFF7D9FE09AB21AA05
S3150FE12B1009A93846FFF7C0FC09AA09A93846FFF704
S3150FE12B20CEFE00F0CEFA06460C21384600F0CEFA7C
S3150FE12B3009A92046FFF770FC00F058F8304600F07F
S3150FE12B40BDFA29482249386579657869C1014CBFD3
S3150FE12B50002040F2046039B0BDE8F08F00000000BC
S3150FE12B603035DA10D01482CB1481E11C8CE11C8153
S3150FE12B701C84D91C8391D11CE014D8141482E11C56
S3150FE12B8084D31482D11CE0148AD11C81821CC00C1F
S3150FE12B900C0C0100C00C0C83D91C83D88AD11C8381
S3150FE12BA0DA0C811482D11C81C80C0C818CE11CD00A
S3150FE12BB01484E31482D11C01D81483D11CC00C01F7
S3150FE12BC039398401D02484FC1C82FED88B1C81A068
S3150FE12BD039380100D91C83D11C81E11C30D00C019D
S3150FE12BE030E11C8430D91C013035DA1429465046C0
S3150FE12BF0FFF712BC2000000000010000050C0000E9
S3150FE12C00FFFFFFFFFFFFFFFFFFFFFFFF00000000DA
S3150FE12C10000000000000000001000000FFFFFFFFC1
S3150FE12C20512563FCC2CAB9F3849E17A7ADFAE6BC78
S3150FE12C30FFFFFFFFFFFFFFFF00000000FFFFFFFFAA
S3150FE12C4096C298D84539A1F4A033EB2D817D037750
S3150FE12C50F240A463E5E6BCF847422CE1F2D1176BEB
S3150FE12C60F551BF376840B6CBCE5E316B5733CE2BBE
S3150FE12C70169E0F7C4AEBE78E9B7F1AFEE242E34FED
S3150FE12C8010B50B4A516813688C0004F03C04C3F38A
S3150FE12C9081110C438470116801F03F014170936813
S3150FE12CA0D16803F0F003C1F303110B43037010BDB9
S3150FE12CB0E0FF0FE0FEF728B9FEF77CB9890001EBDB
S3150FE12CC0401101F184410A60704710B50A684B68FB
S3150FE12CD08C68C968026003600460016010BDF4E7A7
S3150FE12CE010B502680368046800680A608C604B607F
S3150FE12CF0C86010BD38B5102A04460D460DD1012224
S3150FE12D000021FFF7DBFF04F5887429462046FFF71C
S3150FE12D10DCFF05F11001204606E000220021FFF756
S3150FE12D20CDFF294604F12400BDE83440CDE71FB5B8
S3150FE12D300C4614F0030108D06946FFF7D1FF1022C4
S3150FE12D4069462046FEF78CFE1FBD2146FFF7C8FFF9
S3150FE12D501FBD1FB5044611F0030008D010226846C7
S3150FE12D60FEF77EFE69462046FFF7B9FF1FBD2046F7
S3150FE12D70FFF7B5FF1FBD38B5044611F0030088B064
S3150FE12D8015460CD0082D0CBF102220226846FEF7FF
S3150FE12D9067FE2A4669462046FFF7ACFF02E020466A
S3150FE12DA0FFF7A8FF09B030BD00281CBF2421FEF7AD
S3150FE12DB053BE704770B505000C4618BF002C16467A
S3150FE12DC002D16FF0210070BD2421FEF745FE802E62
S3150FE12DD018BFB6F5807F02D06FF0220070BD2E606E
S3150FE12DE0F2082146281DFEF73BFE002070BD59462D
S3150FE12DF005F180009BE7484600F060B92DE9F64FF3
S3150FE12E0083B0002A14BF146800240027009000281D
S3150FE12E101CBF0F9E002E09D0DDF84080B8F1000FE0
S3150FE12E201CBF0193002B01D00E9810B96FF0210052
S3150FE12E3075E0009800680291802818BFB0F5807F91
S3150FE12E4004D06FF022006AE000F06CF80298874236
S3150FE12E5061D2002CF8D100F054F9054600206860E4
S3150FE12E604FF4404129604FF0000A00F02AF98146FC
S3150FE12E700098016880290CBF08221022011D2846FF
S3150FE12E80FFF779FF019905F18400FFF762FFFFF77D
S3150FE12E90B2FF0298A0EB070913E000F04EF80AF132
S3150FE12EA0010A00F00EF98346F11905F1A000FFF7CB
S3150FE12EB050FF08EB0701FFF79BFF584600F0FEF8BE
S3150FE12EC01037BAEB191F15D24820A8600521A96062
S3150FE12ED0E3E76CB94820A8600521A96000F02DF859
S3150FE12EE000F0EFF881460E99FFF782FFFFF783FFB8
S3150FE12EF000F018F80298C01BEBD100F0E2F881461A
S3150FE12F00019905F18400FFF712FFFFF774FF2846D9
S3150FE12F1000F002F99AE7049800B10460002005B0C9
S3150FE12F20BDE8F08F0E9AF15D105D414008F807108C
S3150FE12F30641C04F00F047F1C704728698107FCD4D9
S3150FE12F400320A8607047FEE710B50A684B688C68E6
S3150FE12F50C968026003600460016010BD10B50268C4
S3150FE12F600368046800680A608C604B60C86010BD36
S3150FE12F7038B504460D46FFF7F1FF05F1100120467E
S3150FE12F80BDE83440EAE72DE9F84F98B006460C461E
S3150FE12F9090469A4600F0B5F805461EB1022E52D07C
S3150FE12FA051D352E000202860002169600020E864D7
S3150FE12FB0696821F4406169602863686354F82010F9
S3150FE12FC009BA4DF82010401C0828F7D300F079F81C
S3150FE12FD0044605F5827669463046FFF7B5FF04A943
S3150FE12FE03046FFF7B1FF204600F068F82F48286515
S3150FE12FF00027229C05F5D276A74242D218F00300AC
S3150FE1300008EB871906D04022494608A8FEF728FDA6
S3150FE130100DF1200900F055F88346494600F04CF8CA
S3150FE1302009F1100100F048F809F1200100F044F828
S3150FE1303009F1300100F040F8584600F03FF81C481E
S3150FE1304028657F1CD8E70420ADE71A4816E000F0A3
S3150FE1305038F8044651463046FFF78AFF204600F01E
S3150FE130602DF8284600F058F800205AF8201009BA32
S3150FE130704AF82010401C0828F7D3002019B0BDE804
S3150FE13080F08F1AF0030005F58076E0D000F019F81D
S3150FE13090044669463046FFF76BFF204600F00EF80F
S3150FE130A0202269465046FEF7DBFCDAE7888AC8013B
S3150FE130B0070D810180AFFFFF304645E700B962B6E4
S3150FE130C07047EFF3108072B67047FEE74268520918
S3150FE130D0042941EA42120AD9491F022905D9C91E13
S3150FE130E0032904D9091F022902D842F010024260CE
S3150FE130F07047FEE7890001EB401101F184410A6057
S3150FE13100704780B5FFE7012200210C48FFF7F2FF78
S3150FE131100B4802BD000000000949884208D1002092
S3150FE1312009A101EBC003002259680448E2E77047A1
S3150FE1313004498842FBD10120F2E70000B0400E407E
S3150FE1314000000F4000040F4000000F400000000098
S3150FE1315000040F40010000000449054808600548D6
S3150FE13160026842F4700202607047000008ED00E069
S3150FE131700008E10F88ED00E02DE9F04399B0044630
S3150FE131800D4605A85021FEF767FC00F0E1F8684609
S3150FE13190FDF70AFC039802284FF0FF3609D200200B
S3150FE131A020600120A8423CBF44F82060401CF9D3BF
S3150FE131B064E0A84238BF40F2045060D3FDF7B2FB9A
S3150FE131C0804604980C2205A9C7684046FDF7A3FE81
S3150FE131D00028474453D10598DFF86C91484522D032
S3150FE131E00C2205A93846FDF796FE002847D105982A
S3150FE131F0484507D00020A8423CBF44F82060401C58
S3150FE13200F9D33FE0079A05A93846FDF784FE0498FE
S3150FE13210C1684046FDF7A9FE88BB079A05A9404656
S3150FE13220FDF788FE58BB079A05A94046FDF773FEE1
S3150FE132300799324605A8FEF779FD4449884207D03A
S3150FE132400020A8423CBF44F82060401CF9D319E0A6
S3150FE13250079810388008A84288BF2846002108AA97
S3150FE1326004E052F8213044F82130491C8142F8D369
S3150FE13270A8423CBF44F82060401CF9D3002019B0A6
S3150FE13280BDE8F08340F20550F9E7F0B599B0054690
S3150FE132900C4605A85021FEF7DFFB502107910127C8
S3150FE132A0294E0596069700F053F86846FDF77CFB25
S3150FE132B00398A04207D302280AD22868002818BF2C
S3150FE132C010F1010F02D040F204503AE0002038E04D
S3150FE132D0FDF728FB06460498C768BF19112C28BFCE
S3150FE132E01024002008A904E055F8202041F82020F9
S3150FE132F0401CA042F8D34FF0FF3002E041F8240022
S3150FE13300641C102CFAD302464C2105A8FEF70EFDDC
S3150FE13310C04318900498C1683846FDF726FE80B978
S3150FE13320502205A93846FDF705FE50B90498C16844
S3150FE133303046FDF71AFE20B9502205A93046FDF7B2
S3150FE13340F9FD19B0F0BD000039528FE1E320BBDE84
S3150FE1335068461421FEF780BB30B595B00446FFF7FA
S3150FE13360F7FF6846FDF720FB039D022D20D3294683
S3150FE1337005A8FFF701FF00281CBF40F2055188425F
S3150FE1338018D1002005A902E0A2420ED0401CA842A6
S3150FE133900ED251F8202012F1010FF5D141F820405C
S3150FE133A0294605A8FFF771FF04E040F2035001E05B
S3150FE133B040F2025015B030BD4EF68851CEF2000103
S3150FE133C0086840F470000860BFF34F8FBFF36F8F4B
S3150FE133D04FF00070E1EE100A7047000000F00DF8B3
S3150FE133E0002801D0AFF30080AFF300800020AFF3E8
S3150FE133F00080FEF70DFC00F002F80120704700F0A7
S3150FE1340001B800000746384600F002F8FBE7000076
S3150FE134102021090326311820ABBEF9E780B5FFF766
S3150FE134209BFEFEF739FCBDE8014000F000B8AFF3B3
S3150FE134300080FFF7C1FFFFF7D1FF0000000000009A
S3090FE1344091A69C942B
S50302C535
S70500000000FA
