S01600006177735F64656D6F2D7369676E65642E733337E8
S3150000000000000820211600004D1600004D160000C5
S315000000104D1600004D1600004D1600004D1600004E
S315000000204D1600004D1600004D16000071540000DC
S315000000304D1600008C6E020011550000755500002B
S315000000404D1600004D1600004D1600004D1600001E
S315000000504D1600004D160000799D0100019D01001E
S315000000604D1600004D1600004D1600004D160000FE
S315000000704D1600004D1600004D1600004D160000EE
S315000000804D1600004D1600004D1600004D160000DE
S315000000904D1600004D1600004D1600004D160000CE
S315000000A04D1600004D1600004D1600004D160000BE
S315000000B04D1600004D1600004D1600004D160000AE
S315000000C04D1600004D1600004D1600004D1600009E
S315000000D04D1600004D1600004D160000412F000081
S315000000E04D1600004D1600004D1600004D1600007E
S315000000F04D1600004D1600004D1600004D1600006E
S315000001004D1600004D1600004D1600004D1600005D
S315000001104D1600004D1600004D1600004D1600004D
S315000001204D1600004D1600004D1600004D1600003D
S315000001304D1600004D1600004D1600004D1600002D
S315000001404D1600004D1600004D1600004D1600001D
S3150000015010B5054C237833B9044B13B10448AFF3FB
S3150000016000800123237010BD7407002000000000EA
S315000001704429030008B5034B1BB103490348AFF3F9
S31500000180008008BD00000000780700204429030015
S31500000190154B002B08BF134B9D46A3F5803A002153
S315000001A08B460F461348144A121A24F048F80F4B90
S315000001B0002B00D098470E4B002B00D0984700200C
S315000001C0002104000D000D48002802D00C48AFF3B2
S315000001D0008023F0A9FF2000290001F037F923F061
S315000001E08FFF00BF0000080000000820000000008C
S315000001F000000000740700201C3D042000000000E1
S3150000020000000000034B0360034B0B604FF4807348
S31500000210136070479013002090070020034B036083
S31500000220034B0B604FF4007313607047FC13002000
S31500000230900B00200020704710B582B01BF06CFCBC
S3150000024050B1FFF7F7FF0446012802D0204602B05E
S3150000025010BD1BF089FCF9E7044B00930023012233
S31500000260034903201BF0AAFC0124EFE7C460020047
S31500000270BC60020008B51BF077FC08BD10B58EB057
S315000002800446254B009300230322244910461BF005
S3150000029095FCFFF7D1FF002835D1214B0C9342F294
S315000002A0B323ADF834300023039304938DF8143050
S315000002B006930793089309930A930B93194B00939C
S315000002C003AB0CAA18490120A04798B9174B009315
S315000002D000230322114910461BF070FCFFF7CAFFEA
S315000002E0134B0093002303220C4910461BF066FCB7
S315000002F00EB010BD0F4B00930023012207490320C7
S315000003001BF05CFCEAE70C4B009300230122034937
S3150000031003201BF053FCE3E7E4600200BC6002002C
S31500000320203B0420C0D80200086102001C610200C4
S315000003307C6102003C6102005061020008B5084C75
S3150000034020461BF01FFD204624F0FEFA4FF0200346
S3150000035083F31188BFF36F8FBFF34F8FFEE700BFA4
S315000003609C61020008B508461BF00CFD4FF0200307
S3150000037083F31188BFF36F8FBFF34F8FFEE7000043
S3150000038008B54FF480630522024903481BF000F8C4
S3150000039008BD00BF310900007D02000008B51CF051
S315000003A0E3FE00B1012008BD2DE9F043A3B00746E6
S315000003B00D469146984600241C94209421940126CB
S315000003C08DF870602A2221460DF1460023F037FF92
S315000003D08DF845600AAB0A940C940F94109404941B
S315000003E005940694079408940994CDF87490CDF872
S315000003F078802A9A1F928DF844703C22ADF85420DA
S315000004001493294B0B930F23ADF83030274B0D93E4
S3150000041024230E930DB12B783BBB1AF0BFFB03468A
S31500000420234A182104A824F065FB002824DB04AB2A
S315000004301693ADF85C00BDF85C300393169A0292F1
S3150000044001931C4B0093002303221B4910461BF00B
S31500000450B5FB2B9B42F2107211A91CA81DF068F97E
S31500000460A0B9002023B0BDE8F0831695284624F0F5
S315000004700EFCADF85C00DEE7104B00930023012272
S315000004800D4903201BF09AFB0120EBE71CF064FFEB
S3150000049001900B4B009300230122074903201BF018
S315000004A08DFB0120DEE700BFF4610200046202005A
S315000004B02C62020070620200BC6002003862020018
S315000004C0A46202002DE9F04397B007460E46904617
S315000004D000250F951095119513950D9505AC1E22C7
S315000004E02946204623F0ABFE484B0E9301238DF898
S315000004F03C301223ADF8443012944FF47A731493BF
S315000005000A2315932C4625E00D94624204F003035A
S3150000051002F0030258BF534256F823301093234685
S315000005203B4A1E2105A824F0E5FA002823DB139098
S31500000530002200920DAB0FA938461CF039FE0128A7
S3150000054027D1002C04F00105B8BF6D42012D2ED035
S3150000055000250134132C18DC14F0010FD4D1631CD0
S31500000560029301942B4B0093002303222A49104641
S315000005701BF024FBC8E70194284B009300230122BB
S31500000580254903201BF01AFB0125284617B0BDE8B4
S31500000590F0831CF0E1FE02900194214B00930023AE
S315000005A001221D4903201BF009FB0125EDE702236B
S315000005B001931C4B009300230322174910461BF09E
S315000005C0FDFA4FF00009B9F1010F11DC42F210718A
S315000005D040461BF055F810B109F10109F3E7124B3B
S315000005E00093002301220C4903201BF0E7FA00E0E8
S315000005F00025CDF804900D4B0093002303220649F5
S3150000060010461BF0DBFA012DA3D1BEE73106000030
S315000006109065020070650200BC600200AC650200D5
S31500000620E46502000866020034660200686602009D
S3150000063070B584B005460C460B7B9BB108791CF05F
S31500000640C5FE0646207B1CF087FE039002950196A8
S315000006500B4B0093002301220A4903201BF0AEFA3C
S3150000066004B070BD08791CF0B1FE02950190064BEE
S31500000670009300230322034910461BF09FFAEFE77D
S3150000068048650200BC60020028650200F0B599B01A
S3150000069007460E4615461C465022002104A823F0A4
S315000006A0CEFD4B4B0093002303224A4910461BF014
S315000006B085FA002214E0910011448B0018A90B441E
S315000006C0012103F8501C55F8221043F84C1C122146
S315000006D023F8481C43F8444C3F4943F8401C013278
S315000006E0032AE8DD032E10D0042E63D030461CF01A
S315000006F06DFE0190394B00930023012235490320FA
S315000007001BF05CFA012019B0F0BD42F210730093A1
S315000007100023042204A938461DF0B0FA18B10928AE
S3150000072044D00120EFE72E4B0093002303222949F2
S3150000073010461BF043FA0020E5E7A200224493008E
S3150000074018AA134433F8482C53F84C3C02930192F0
S31500000750244B0093002301221E4903201BF02EFA8E
S315000007600134032C24DCA3002344990018AB19445C
S31500000770002331F8482C51F84C1C38461FF0D2FEA5
S315000007800028DAD0A2002244930018AA134433F8B2
S31500000790482C53F84C3C02930192134B00930023D0
S315000007A003220C4910461BF009FAD9E70024D8E7C2
S315000007B00120A8E742F2107300930023042204A943
S315000007C038461DF07DFA00289DD001209BE700BF2A
S315000007D0C4620200BC600200ED0700005063020024
S315000007E0E062020030630200106302002DE9F0436C
S315000007F09BB006460D468F69302200210EA823F0D5
S315000008001EFD00240794089409940A940B940C94F2
S315000008100D94DFF81081404624F096F82989AB8ABA
S3150000082095F80DC0287B0497EA6903920290CDF8EB
S3150000083004C02A6900926A68334824F085F8404665
S3150000084024F082F82346E969994206D9FA5C303ADF
S31500000850D2B2092A01D90133F5E7994237D90124E1
S3150000086000E001341A19914204D9BA5C2F2A01D941
S31500000870392AF6D91F4400972346244A30210EA868
S3150000088024F038F9002828DB01238DF81C30204B92
S3150000089008931B23ADF824300EAB0A930B904FF44C
S315000008A07A730C930A230D9328680022009213464C
S315000008B007A91CF07DFC01281AD002970194154B5C
S315000008C0009300230222144903201BF077F93046D7
S315000008D01AF008FF1BB0BDE8F083029701940F4B96
S315000008E00093002302220C4903201BF067F9EEE770
S315000008F0029701940A4B00930023032206491046EF
S315000009001BF05CF9E3E700BF8C6302002864020079
S3150000091098640200EC640200BC60020058640200A5
S31500000920B4640200B420030008B51CF02FFC08BD17
S315000009302DE9F0419CB005460E46174698462A48D2
S3150000094024F002F800231B93284B03AC0FCB84E85A
S315000009500F00FFF723FD70B104460025C4B1002641
S31500000960FCB1002C2FD0002E35D1002D38D12046D9
S315000009701CB0BDE8F0811BAB0193229B009343465C
S315000009803A4631462846FFF70FFD04460125E5E7BE
S3150000099007AB03AA03211B98FFF778FE044601263E
S315000009A0DEE70222002107A81AF0D6FD08B90124C5
S315000009B0D9E707AA03A91B98FFF784FD044607A8F1
S315000009C01AF00EFECDE7002303AA04211B98FFF7B9
S315000009D05DFE0446C7E700211B981DF01BF8C4E71F
S315000009E0FFF7A2FFC3E700BFDC610200CC61020093
S315000009F02DE9F0438DB007468846164699460023F2
S31500000A000A930793089309936C462E4D0FCD0FC496
S31500000A1095E8070003C422800BA820F069FE04466F
S31500000A2070B94FF4807307930AAB089304230993B4
S31500000A300B9B5C6E012307AA41463846A047044635
S31500000A400CBB0A9B032B1ED140F281130793002394
S31500000A50089309930B9B5C6E012307AA414638460F
S31500000A60A0470446B0B16CB9336818330893099BA4
S31500000A70183B09930B9B5C6E012307AA4146384637
S31500000A80A047044694B1306800B1ACB920460DB019
S31500000A90BDE8F083099818300990C9F8000004F001
S31500000AA0C1FB30600028DED10224EBE71A2269463A
S31500000AB0306823F0A0FBE6E704F042FC0023336035
S31500000AC0E4E700BFD066020070B5ACB005460E463E
S31500000AD000212A912991A02201A823F0B0FB2BA87E
S31500000AE020F006FE044608B30CB9336833BB0CB9D4
S31500000AF0B16861BBA4B3002C3AD034B92B9BDB6937
S31500000B0001A92A9A106898470446C4BB9DF8043088
S31500000B10ABB3202B33D000251F2D2FD82CAB2B4465
S31500000B2013F8AC3C202B29D00135F5E733460322D8
S31500000B301C49284620F0E6F80446D5E706F10803E6
S31500000B4002221949284620F0DDF80446CFE706F1CF
S31500000B50100306F10C022846FFF74AFF0446C9E7D0
S31500000B60331D01221149284620F0CCF80446C2E77D
S31500000B7029A92AA81FF0FBFF0446BEE715B920469F
S31500000B802CB070BD681C04F04DFB706138B12A466C
S31500000B9001A923F030FB736900225A55EFE70224BE
S31500000BA0EDE700BF386802004068020048680200AE
S31500000BB0F0B58DB00F46164610461BF0E3F800243C
S31500000BC001AD03E014F00F0F14D01D46B4421BD242
S31500000BD001A9691A3B5D134AC1F12901284623F090
S31500000BE089FFAB1C013414F0010FEBD12023AB704D
S31500000BF0EB1CE7E700221A7001A81BF003F90A486C
S31500000C001BF000F901ABE0E701AB9D4201D80DB046
S31500000C10F0BD00232B7001A81BF0F4F802481BF06E
S31500000C20F1F8F4E730680200B420030010B58EB086
S31500000C3032242246002101A823F001FBADF8024030
S31500000C401F49204824F019F810B11E4B1B7853BBDE
S31500000C501D4823F079FE0DF1020201A94FF2D010D2
S31500000C6017F0C4FB80B2A0B9184901A824F03EF8D9
S31500000C70A0B1174823F068FEBDF8022001A911486B
S31500000C8023F0B9FA0F49134823F05EFE00200EB098
S31500000C9010BD114823F058FE0520F8E70F4823F051
S31500000CA053FE0520F3E7322206494FF2D01017F023
S31500000CB061FB80B20028E5D0094823F045FEE1E754
S31500000CC0BCA10200203B04201C67020068670200EA
S31500000CD0C0670200106802004467020078670200DD
S31500000CE0EC6702002DE9F04FABB0059089469446BB
S31500000CF09B464FF48253279300232893299323ABD3
S31500000D002B4A07CA03C31A804FF00308CDF8888020
S31500000D1001248DF887404FF4807ACDF854A022AF95
S31500000D201697042617964FF4857318930DF18705C9
S31500000D3019951A944FF4C0731B9323AB1C930A2383
S31500000D401D93CDF87880CDF87CC0604623F09FFFD8
S31500000D502090CDF818A00797089609940A950B9449
S31500000D6002230C930D950E944FF484730F931095F4
S31500000D701194CDF84880CDF84C90484623F087FF73
S31500000D80149026A820F0B4FC269BD3F8F040CDF8AA
S31500000D900CB0349B02930523019306AB00933346B4
S31500000DA015AA27A90598A0472BB0BDE8F08F00BF6C
S31500000DB0F06602002DE9F04F83B005468B4691465A
S31500000DC09A4601A820F094FC04464FF0000803E080
S31500000DD0542C23D008F10108D0451FD25BF82860B7
S31500000DE009EB88076B4659F82820314628461FF03C
S31500000DF089FF0446002CEBD100990029E8D0019B1D
S31500000E00DB6D2846984704460028E1D16B463A68D0
S31500000E10314628461FF076FF0446EBE72146034895
S31500000E2023F092FD204603B0BDE8F08F586802001B
S31500000E302DE9F0419CB080460D46174601930124EA
S31500000E4009940026089606968DF81740364A02AB96
S31500000E5007CA83E807000A9609AA0B9204260C968D
S31500000E6040F201120D920E93184623F010FF0F90D8
S31500000E70112313931495159703231693019817902E
S31500000E8023F005FF18908023109308AB1193129658
S31500000E9019940DF117031A931B9407A820F028FC48
S31500000EA055B304462B782D2B13D00025132414B9E3
S31500000EB01495069B15931CB34CB315B1284604F044
S31500000EC03FFA2146194823F03FFD20461CB0BDE8F5
S31500000ED0F08108B10025EAE7159804F0A3F9159901
S31500000EE00691054650B106AB0246149814F02EFC46
S31500000EF00028DCD00724DEE71324D8E70224DAE74B
S31500000F00012309AA01A94046FFF754FFD4E7084880
S31500000F101AF038FF079B5C6D229B06220AA9404601
S31500000F20A0470446C9E700BFB06802009068020007
S31500000F307868020070B58AB006460D460023039312
S31500000F4004930593069307930893029309A820F048
S31500000F50CFFB044678B9A96869B102AB0093374B59
S31500000F60EA683046FFF764FF044608B9029B13B9E6
S31500000F7020461AF007FF5CB9296949B16A6902ABD4
S31500000F8000932F4B3046FFF753FF044631280DD010
S31500000F90002C34D103A93046FFF796FD039B4BB1D5
S31500000FA0059B5BB1069B5BB1002504E025481AF062
S31500000FB0E9FEEFE701252DB9002421E00125FAE736
S31500000FC00125F8E705AB009303AB1F4A1F493046DE
S31500000FD0FFF788FE044658B9069818B104F0B0F930
S31500000FE00023069307AB06AA05993046FFF700FDD6
S31500000FF034B9039BFBB1059B13B9602410E00025AF
S3150000100074B9049B03B15DB111481AF0BBFE089890
S3150000101008B11AF0B7FE079A06990E48FFF7C8FD01
S31500001020069808B104F08CF9089808B104F088F91C
S3150000103020460AB070BD6024F2E700BF486802008F
S31500001040BC680200C86802004068020038680200F6
S3150000105058690200CC69020030B583B0054600230A
S315000010600193009301A820F043FB044628B144B144
S3150000107064B1ACB1204603B030BD1FF0BDFD0446DF
S31500001080F5E768461FF006FE0446F1E72946009894
S31500001090FFF750FF0446019B9B6B00989847E8E7D3
S315000010A0FFF7C4FD0446E5E700B587B0184804908D
S315000010B000900290014623F0E0FDB8B900230493A6
S315000010C0009919B1124823F0D8FDA8B9002300935E
S315000010D0029919B10E4823F0D0FD98B90023029366
S315000010E06846FFF7B9FF07B05DF804FB049823F0E4
S315000010F0CEFD01300590E3E7009823F0C8FD0130EE
S315000011000190E5E7029823F0C2FD01300390E7E77E
S31500001110BCA10200024B1868B0FA80F04009704783
S31500001120A00F104308B5012302220821104601F042
S3150000113015FB08BD08B500F041FAFFF7F3FF01F013
S3150000114035FF012001F026FF08BD70B506460025D3
S3150000115011E00DB9013D0DE001F0C4FF202001F0C2
S31500001160C1FF082001F0BEFF013D00237355F1E7E2
S315000011709DB9013D0135302D12D801F07FFF0028C1
S31500001180FBDB0828E5D00D28F2D00A28F0D0C4B23F
S31500001190204601F0A7FF7455ECE70A2001F0A2FFF4
S315000011A00023735570BD08B517F04EFF30B110F12E
S315000011B0740F01D0002002E0012000E0012008BDEC
S315000011C008B50B4817F04EFF08E0094818F070FD07
S315000011D008481AF0D7FD642003F034FA0448FFF7F4
S315000011E0E2FF0028F1D004481AF0CCFD08BD00BF8C
S315000011F0E0340420580C030024A2020010B525494F
S315000012004FF4E1330B6000231A46234818F081FBA4
S3150000121040BB044621481AF0B5FD21481AF0B2FD3C
S31500001220FFF7CEFF1C4B1B8E13B31E481AF0AAFD08
S315000012301D481AF0A7FD184818F004FB002820DB0B
S31500001240012822D019481AF09DFD1949012002F003
S3150000125014FB184B186000231A46194602F042FA8E
S31500001260204610BD14481AF08DFD6FF00404F7E710
S3150000127012481AF087FD12481AF084FD6FF0040434
S31500001280EEE710481AF07EFDDFE70F481AF07AFD08
S31500001290DBE700BF1C3B0420E0340420206B020087
S315000012A03C6B0200B46B0200E06B0200486C02006B
S315000012B088140020DC340420F86A02004C6B02001B
S315000012C0886B0200046C0200246C02002DE9F047D2
S315000012D0A4B0642200210BA822F0B1FF354C218E68
S315000012E0638B03F001030093236A626B324823F099
S315000012F02BFB204619F014FC0446304823F024FB4F
S3150000130000250E2D4FD92E4823F01EFB2278637838
S31500001310A178E07825796679677A94F80AC094F816
S315000013200BE094F80C8094F80D9094F80EA0CDF88C
S3150000133024A0CDF82090CDF81C80CDF818E0CDF88B
S3150000134014C0049703960295019000911D490BA8BD
S3150000135023F004FC0BA91C4823F0F6FA22786378E4
S31500001360A178E07825796679677A94F80AC094F8C6
S315000013700BE094F80C8094F80D90A47B0994CDF8BA
S315000013802090CDF81C80CDF818E0CDF814C0049755
S3150000139003960295019000910C490D4823F0DEFB5F
S315000013A024B0BDE8F087615D0A4823F0CDFA013527
S315000013B0EDB2A6E7E03404201C6D0200746D020055
S315000013C024A20200886D0200B46D0200B86D02000E
S315000013D068140020846D020010B50D4A538B23F06B
S315000013E0010353830B481AF0CDFC094C204619F033
S315000013F087FB4FF4FA7003F025F907481AF0C2FC90
S31500001400638B13F0010FF0D004481AF0BBFC10BD3B
S31500001410E0340420206E0200580C0300386E0200EF
S3150000142008B507481AF0AEFC1E2206494FF2D11045
S3150000143016F0A0FF80B210B1034823F085FA08BD6C
S31500001440DC6D020068140020FC6D020008B5FFF791
S3150000145071FE13490B888A78C978124823F074FA0A
S315000014600F2206214FF420601AF05EFCFFF752FEB1
S3150000147018B902F07DFF002008BD0B4B01221A703F
S315000014800A4823F061FA0A4823F05EFA094823F075
S315000014905BFA0948FFF759FE084823F055FAE8E7D2
S315000014A0C8610200706C020086140020B06C020055
S315000014B0D46C0200086D0200203B0420B420030017
S315000014C008B517F05BF908BD10B502F0A1FF074B90
S315000014D01B68C31A41F28832934200D810BD0446F5
S315000014E0034823F031FA014B1C60F7E7D8140020BB
S315000014F01C6E020000B583B0002301930091009B8F
S3150000150008461AF03FFC4FF0200383F31188BFF31F
S315000015106F8FBFF34F8F03E04FF47A7003F092F8AA
S31500001520019B002BF8D0002383F3118803B05DF8EC
S3150000153004FB000008B50E481AF024FC20F059F808
S3150000154001280CD10B481AF01DFCFFF7ADFD0A4827
S315000015501AF018FCFFF764FFFEF712FF08BD0748F4
S315000015601AF010FC40F21B210548FFF7C3FFF5E710
S31500001570E0690200106A0200246A0200446A02005E
S31500001580646A020008B5FFF739FE00B1FEE74FF4C2
S315000015907A7003F057F8FFF799FE4FF47A7003F06C
S315000015A051F8FFF719FF044B1B780BB117F014FB2A
S315000015B0FFF7C0FF08BD00BF8614002038B5012123
S315000015C0144800F07FF90121134800F07BF900244C
S315000015D019E01248E200111B8B001946C35C01EBAF
S315000015E0C501084483F0010304228168007901F0F3
S315000015F0B5F80135C4EBC4039A00084B13445B7875
S31500001600AB42E6DC0134012C01DC0025F2E70020C8
S3150000161038BD00BF4041050000550A00546E020067
S31500001620064880470649074A074B9A42BEBF51F80B
S31500001630040B42F8040BF8E7FEF7AAFD2117000099
S31500001640502903000000002074070020FEE700BFB9
S315000016500048704700A24A041D4BD3F8943003F0AB
S315000016600703023B042B23D8DFE803F00625031EFD
S315000016700900184B186820E0174B18681DE0144B3A
S315000016809B68C3F30443073B072B0BD8DFE803F043
S31500001690040A0A0A1E0A060810480EE010480CE062
S315000016A010480AE0002008E00F4B1868400804E0E4
S315000016B00D4B186801E04FF40040054BD3F800319C
S315000016C0C3F304230133B0FBF3F070470748F4E794
S315000016D000400E400C000020040000200024F4000E
S315000016E0006CDC0280F0FA02080000200048E801E5
S315000016F008B5FFF7B1FF054BD3F80831C3F308234C
S315000017000133B0FBF3F0024B186008BD00400E40F9
S3150000171000000020014B1868704700BF040000203D
S31500001720044B054A9A60D3F8882042F47002C3F845
S315000017308820704700ED00E0000000004FF40040F4
S3150000174070474FF47A707047014B1868704700BFB6
S315000017500C0000200C4B984208D90C4B984202D939
S315000017600221012204E001210A4601E000210A4685
S31500001770074B1A60074AD2F8003123F0407343EA58
S315000017800163C2F8003170470048E8010090D003B9
S315000017904000C84300400E40014B1868704700BF28
S315000017A01000002010B44FF080435B68002300E077
S315000017B00133062B0BD80F4A02EBC3021479CAB2C7
S315000017C09442F5D10B4A52F833208242F0D3072BCC
S315000017D00ED0084A02EBC30359794FF08042536892
S315000017E023F0407343EA016353605DF8044B70478E
S315000017F00321F2E7CC6E0200022906D0064B834293
S3150000180005D3064B064A1A607047064BF7E7064BA8
S31500001810034A1A60704700BF80D5430200010044A6
S31500001820020202000024F40000010046074B984221
S3150000183000D929B14FF088434FF480521A6070479F
S315000018404FF08C434FF480521A60704780F0FA02D2
S3150000185008B5FFF701FF044BD3F80031C3F30423A7
S3150000186003FB000008BD00BF00400E4010B54FF05E
S3150000187080431C6C41F671321A64FFF7E9FE0021C1
S31500001880FFF790FF1CB14FF0804300221A6410BD91
S3150000189070B504460D464FF080431E6C41F671321A
S315000018A01A64FFF77FFF29462046FFF7A5FF294662
S315000018B02046FFF7BBFF1EB14FF0804300221A649B
S315000018C070BD0000C0F30323013B0E2B51D8DFE8A7
S315000018D003F0080B50502F1114171B2C1F24500E09
S315000018E029000022234B25E00022234B22E0002280
S315000018F0224B1FE00122224B1CE01022214B19E053
S315000019004FF48072204B15E04FF480321F4B11E0EC
S3150000191081F0010100221E4B0CE081F00101002242
S315000019201C4B07E000221C4B04E000221B4B01E08D
S3150000193000221B4BC0F30430A2B110B40D4CD4F8F6
S31500001940444114F0010F04D10A4CD4F8404122421C
S31500001950FAD103F1047300EBC300800001605DF867
S31500001960044B704703F1047300EBC3008000016071
S315000019707047704700400E40C0400E40C4400E40C5
S31500001980E0400E40E8400E40EC400E40F0400E4075
S3150000199060410E4064410E40F0410E4050410E4001
S315000019A0B0400E40C0F30313013B0B2B00F2C58081
S315000019B0DFE803F0060C121C22282E3478A0A9BDFD
S315000019C0604BD3F80001C0F3042070475D4BD3F899
S315000019D01401C0F3042070475A4BD3F80001C0F33A
S315000019E00160431C0120984001387047554BD3F8DD
S315000019F00C01C0F308207047524BD3F81801C0F30E
S31500001A00082070474F4BD3F81C01C0F308207047DD
S31500001A104C4BD3F80801C0F3082070474A4B984254
S31500001A2025D010D8A3F5BA23984232D003F57033E7
S31500001A30984211D1434BD3F8203103F00F03012014
S31500001A40984001387047414B984219D0404B984214
S31500001A5004D0404B984213D000207047394BD3F83E
S31500001A602031C3F301230120984001387047354BDC
S31500001A70D3F82031C3F3031301209840013870478F
S31500001A80304BD3F82031C3F302330120984001389C
S31500001A9070472C4BD3F82031C3F303430120984001
S31500001AA0013870472C4B984211D003F5A113984288
S31500001AB016D02A4B984201D000207047214BD3F80C
S31500001AC0283103F0030301209840013870471D4B6D
S31500001AD0D3F82831C3F30113012098400138704729
S31500001AE0184BD3F82801C0F30130031D012098409C
S31500001AF0013870471A4B984221D1124BD3F8300166
S31500001B0000F003007047174B984204D0164B9842DA
S31500001B1007D0002070470B4BD3F85C0100F00300A0
S31500001B207047084BD3F85C01C0F301407047054B82
S31500001B30D3F80401C0F30820704700207047002046
S31500001B40704700BF00400E408016180000362C007B
S31500001B5080262E0080002A0090171C0090071A008D
S31500001B60A0091400B8003200B900340008B5FFF728
S31500001B7019FF013008BD000010B50C46C0F3031371
S31500001B80013B0B2B34D8DFE813F00C0034003E0089
S31500001B904C005800640070008F004301B901D20167
S31500001BA0EC01FFF763FEC848FFF7D4FD00F0F4F937
S31500001BB0C64AD2F8003123F4F85343EA0424C2F8A3
S31500001BC00041FFF795FDC24B1B6813F0400F03D190
S31500001BD0C04B1B68002BFBD1BF4B5968C1F30141B9
S31500001BE0FFF756FEFFF738FDFFF7B4FD00F0E8F902
S31500001BF010BDB64AD2F8143123F4F85343EA01244F
S31500001C00C2F81441F4E7B1FA81F4C4F11F03AF4AF4
S31500001C10D2F8004124F0407444EA0364C2F800415B
S31500001C20E6E7AA4AD2F80C3123F4FF3323F4807393
S31500001C3043EA0124C2F80C41DAE7A44AD2F8183183
S31500001C4023F4FF3323F4807343EA0124C2F81841D6
S31500001C50CEE79E4AD2F81C3123F4FF3323F4807377
S31500001C6043EA0124C2F81C41C2E7FFF7FFFD974A89
S31500001C70D2F8083123F4FF3323F4807343EA0424B3
S31500001C80C2F80841FFF734FD914B1B6813F0400F73
S31500001C9003D1904B1B68002BFBD18F4B5968C1F3C6
S31500001CA00141FFF7F5FDA3E78C4B984200F09580C4
S31500001CB024D88B4B984261D08A4B984273D0A3F5B7
S31500001CC07033984294D14B1CB3FA83F3C3F11F02CD
S31500001CD07E4BD3F8443113F0010F05D17B4BD3F87B
S31500001CE0403113F0040FF9D17849D1F8203123F4AB
S31500001CF0702343EA0243C1F8203179E77A4B9842D0
S31500001D0021D07A4B98421AD14B1CB3FA83F3C3F114
S31500001D101F026E4BD3F8443113F0010F05D16B4B04
S31500001D20D3F8403113F0040FF9D16849D1F82031C6
S31500001D3023F4407343EA0223C1F8203158E76C4B81
S31500001D4098427FF455AF631CB3FA83F3C3F11F02C5
S31500001D505E4BD3F8443113F0010F05D15B4BD3F83A
S31500001D60403113F0040FF9D15849D1F8203123F44A
S31500001D70E04343EA0233C1F8203139E7534BD3F845
S31500001D80443113F0010F05D1504BD3F8403113F411
S31500001D90802FF9D14D4AD2F8303123F003031C438A
S31500001DA0C2F8304124E74B1CB3FA83F3C3F11F0298
S31500001DB0464BD3F8443113F0010F05D1434BD3F80A
S31500001DC0403113F0040FF9D14049D1F8203123F006
S31500001DD00F031343C1F820310AE74B1CB3FA83F310
S31500001DE0C3F11F02394BD3F8443113F0010F05D16B
S31500001DF0364BD3F8403113F0040FF9D13349D1F8FB
S31500001E00203123F0F00343EA0213C1F82031EFE654
S31500001E10384B984221D003F5A113984238D0364B5F
S31500001E2098427FF4E5AE4B1CB3FA83F3C3F11F026D
S31500001E30264BD3F8443113F0010F05D1234BD3F8C9
S31500001E40403113F0400FF9D12049D1F8283123F061
S31500001E5003031343C1F82831CAE64B1CB3FA83F3D4
S31500001E60C3F11F02194BD3F8443113F0010F05D10A
S31500001E70164BD3F8403113F0400FF9D11349D1F87E
S31500001E80283123F0300343EA0213C1F82831AFE6C4
S31500001E904B1CB3FA83F3C3F11B020C4BD3F844314A
S31500001EA013F0010F05D1094BD3F8403113F0400F61
S31500001EB0F9D10649D1F8283123F4405343EA0233D5
S31500001EC0C1F8283194E600BF0148E80100400E4001
S31500001ED03C300E40C800C64300300E408016180045
S31500001EE0A00914008006160000362C0080262E005D
S31500001EF080002A0090171C0090071A001F4B98427A
S31500001F007FF476AE1E4BD3F8443113F0010F05D1A2
S31500001F101B4BD3F8403113F4802FF9D1184AD2F86D
S31500001F20303123F003031C43C2F8304160E6154B01
S31500001F3098420DD0144B98427FF45AAE104AD2F80C
S31500001F405C3123F4403343EA0144C2F85C414FE676
S31500001F500B4AD2F85C3123F003031C43C2F85C4100
S31500001F6046E6074AD2F8043123F4FF3323F480739C
S31500001F7043EA0124C2F804413AE600BFA00914006E
S31500001F8000400E40B8003200B900340008B50139EF
S31500001F90FFF7F2FD08BD000008B503210548FFF76D
S31500001FA0EBFD03210448FFF7E7FD03210348FFF794
S31500001FB0E3FD08BD404105005041070060410900AE
S31500001FC038B5FFF749FB05461F4B1B6813F0400F5A
S31500001FD003D11E4B1B68002BFBD11D4B5B68C3F363
S31500001FE00143022B1BD01B4C2C441B4BA3FB04347C
S31500001FF0240E00D0013C21461848FFF7BDFD2146BE
S315000020001748FFF7B9FD17492944174BA3FB0131C0
S31500002010890E00D001391548FFF7AEFD38BD144CC6
S315000020202C44144BA3FB0434E40D00D0013C2146A0
S315000020300A48FFF7A1FD21460C48FFF79DFD214602
S315000020400748FFF799FDE9E73C300E40C800C64354
S3150000205000300E407FF0FA02893BE655404105000C
S3150000206060410900FFA14A04B5FA9BEE5041070002
S31500002070FF2C31016BCA5F6B00F00F0001380B2893
S3150000208000F2E280DFE810F00C0028003A00600061
S315000020904E007200E0007D008E00A200B500C80070
S315000020A0754BD3F8943003F00703023B052B11D888
S315000020B0DFE813F00800CC0006000A000E000C0052
S315000020C002207047042070470D2070470E2070478D
S315000020D00A20704705207047674BD3F8803003F01D
S315000020E00703022B00F0B480042B05D0012B01D08E
S315000020F001207047032070470C2070475E4BD3F8D1
S31500002100843003F00703013B032B09D8DFE803F013
S3150000211002A20604032070470C2070470620704771
S3150000212001207047544BD3F8883003F00703022B85
S3150000213000F09280042B05D0012B01D001207047BE
S31500002140032070470C2070474B4BD3F88C3003F0BC
S315000021500703022B00F08280042B05D0012B01D04F
S3150000216001207047032070470C207047424B1B6FBD
S3150000217013F0030374D0012B01D10920704701200D
S3150000218070473D4BD3F85C3103F03003202B05D06C
S31500002190302B05D0102B65D00120704704207047E6
S315000021A008207047344BD3F85C3103F44013B3F581
S315000021B0001F07D0B3F5401F06D0B3F5801F53D0DC
S315000021C00120704704207047082070472A4BD3F837
S315000021D0603103F00303032B03D8DFE803F0470461
S315000021E006080120704704207047072070470A2020
S315000021F07047214BD3F8643103F00303032B03D854
S31500002200DFE803F036040608012070470420704713
S31500002210072070470A207047174BD3F8F03103F0B8
S315000022200703052B04D8DFE803F0250507090B0D86
S3150000223001207047042070470B2070470520704727
S315000022400220704703207047002070470320704724
S315000022500220704702207047022070470220704714
S3150000226007207047072070470720704705207047F2
S31500002270052070470A20704700400E4010B50446FE
S31500002280FFF7FAFE214B9C421BD00BD9204B9C42F8
S315000022901DD0204B9C420DD11F4BD3F8880000F077
S315000022A0070007E01D4B9C4204D11B4BD3F880006E
S315000022B000F007000138032825D8DFE800F00E11EA
S315000022C01714154BD3F8840000F00700F2E7124B01
S315000022D0D3F88C0000F00700ECE7FFF72FFA13E0C5
S315000022E0FFF732FA10E0FFF72CFA0DE0FFF7B4F92A
S315000022F0094BD3F80031C3F301635A1C0123934001
S31500002300B0FBF3F000E0002010BD00BF030020008A
S31500002310040022000500240000400E4002001E00BA
S3150000232008B50748FFF7A8FE072804D0092805D1F5
S31500002330FFF792F908BDFFF72FFAFBE70020F9E750
S3150000234006000E0008B518B101280CD0002008BD03
S315000023500B48FFF791FE072809D008280DD004285E
S3150000236008D00020F3E70748FFF786FEF3E7FFF7FC
S3150000237013FAECE7FFF7CEF9E9E7FFF769FAE6E7C4
S31500002380B8003200B900340008B50D48FFF774FEF6
S315000023900438062811D8DFE800F00704100A1010E8
S315000023A00D00084B186808BDFFF7B4F9FBE7FFF707
S315000023B0F3F9F8E7044B1868F5E70020F3E700BFE8
S315000023C00A7B3600080000201400002008B1002017
S315000023D0704710B504460D48FFF74EFE0438062830
S315000023E011D8DFE800F00704100A10100D00084BA2
S315000023F0186810BDFFF78EF9FBE7FFF7CDF9F8E790
S31500002400044B1868F5E72046F3E700BF0B7C38005D
S31500002410080000201400002008B51148FFF72CFE24
S315000024200238092819D8DFE800F01215080F181825
S315000024301818050B0B4B186808BDFFF76BF9FBE77F
S31500002440FFF768F94000F7E7074B1868F4E7FFF76E
S315000024507BF9F1E7FFF772F9EEE70020ECE700BF42
S315000024600C7F3A00140000200800002038B500F464
S315000024707813B3F5D01F00F01681054623D9B3F5BE
S31500002480381F00F0028168D9B3F5581F00F0448167
S3150000249000F28180B3F5481F00F02681B3F5501F86
S315000024A000F02E81B3F5401F21D1A348FFF7E6FEC9
S315000024B0A24BD3F82831C3F301331A1D01239340ED
S315000024C0B0FBF3F078E0B3F5402F00F0A28020D8FF
S315000024D0B3F5802F71D00CD9B3F5002F00F08380AF
S315000024E0B3F5202F00F08A80B3F5C02F70D00020FE
S315000024F062E0002B5ED0B3F5003FF8D1FFF7ACF8F1
S315000025008E4BD3F80831C3F308230133B0FBF3F045
S3150000251052E0B3F5901F00F0878014D9B3F5B01FD1
S3150000252000F08C80B3F5C01F00F09580B3F5A01FB6
S31500002530DDD18348FFF7A2FE804BD3F8303103F09C
S315000025400303D84038E0B3F5602F00F0CA80B3F536
S31500002550801FCCD1FFF720F92EE0B3F5001F00F065
S315000025609E800DD9B3F5201F00F0B780B3F5281F64
S315000025707ED0B3F5101FBAD17148FFF77FFE1BE07E
S31500002580B3F5E01F00F09C80B3F5F01FAFD16D48A6
S31500002590FFF774FE10E0B3F5681F00F0C080B3F5D6
S315000025A0781F00F0BF80B3F5601FA0D10020FFF7B1
S315000025B00DFF01E0FFF750F838BDFFF74DF85F4B10
S315000025C0D3F80C31C3F308230133B0FBF3F0F3E780
S315000025D0FFF742F8594BD3F81831C3F308230133F8
S315000025E0B0FBF3F0E8E7FFF737F8544BD3F81C31AC
S315000025F0C3F308230133B0FBF3F0DDE7FFF72CF854
S315000026004E4BD3F80431C3F308230133B0FBF3F088
S31500002610D2E7FFF721F8494BD3F81431C3F304236B
S315000026200133B0FBF3F0C7E74648FFF727FE434BFD
S31500002630D3F82031C3F30343D840BDE74148FFF741
S315000026401DFE3E4BD3F8202102F00F0201239340DA
S31500002650B0FBF3F0B0E73B48FFF710FE374BD3F87B
S315000026602021C2F3031201239340B0FBF3F0A3E74A
S315000026703448FFF703FE314BD3F82021C2F3023270
S3150000268001239340B0FBF3F096E72E48FFF7F6FDE3
S315000026902A4BD3F82031C3F30123D8408CE72648D0
S315000026A0FFF7ECFD88E72448FFF7E8FD234BD3F856
S315000026B0282102F0030201239340B0FBF3F07BE7ED
S315000026C01D48FFF7DBFD1D4BD3F82821C2F301128D
S315000026D001239340B0FBF3F06EE71B48FFF7CEFDF6
S315000026E06AE7FFF71DFE67E70020FFF72BFE134B97
S315000026F0D3F85C3103F003030133B0FBF3F05BE77F
S315000027000120FFF71FFE0D4BD3F85C31C3F30143E5
S315000027100133B0FBF3F04FE7FFF736FE4CE7FFF768
S315000027207BFE49E7FEF798FF04462846FFF71EFAA8
S31500002730B4FBF0F040E700BF0300200000400E406D
S315000027400500240002001E0004002200EFF31080A2
S3150000275072B6704700B962B670470000F0B414460E
S315000027603AB143B300EB4002160101258D40264ADB
S315000027709551072927D8254E45002F183A0132448E
S3150000278052688F004FF00F0C0CFA07FC22EA0C027D
S3150000279004FA07F73A4305442F013E44726044B9F0
S315000027A04BBB00EB40000201012303FA01F1184B79
S315000027B09950F0BC704700EB4002160101258D4090
S315000027C0134A9551D5E7114F460035182A013A4468
S315000027D0956801F18042083A92004FF00F0C0CFA0E
S315000027E002FC25EA0C0504FA02F22A4335182E01EA
S315000027F03744BA60D3E700EB40000201012303FA35
S3150000280001F1014B9950D4E70C800846008008403E
S315000028100C80084400E0C369C36813F4807FFAD1D2
S3150000282070470000002A3FD070B50446164603F0F4
S315000028300305036823F4407303602A0200F18063F2
S315000028404FF44070186004F1C0631A6041B9174B29
S315000028509C421AD0164B9C421CD0164B9C421ED052
S315000028602368154B5B5D03FB06F26AB1A1EBC60359
S315000028701344013BB3FBF2F3013B226812F0020F53
S3150000288001D003B90123236170BD0C48FFF7EEFDAB
S315000028900146E5E70A48FFF7E9FD0146E0E7094892
S315000028A0FFF7E4FD0146DBE7704700BF00900840F4
S315000028B00094084000980840046F020000120900C6
S315000028C0002209000032090000F104704001016095
S315000028D07047000038B505460C46002303640A4BD2
S315000028E0C3634A7882F0010200F10473DB0001330E
S315000028F09B001A600B7B8A684968FFF793FF217873
S315000029002846FFF7E1FF38BDFFFF0700AA4B9842B4
S315000029101ED003F5806398421CD003F5806398426D
S3150000292040F04681A54B70B49C68426B12F4C06FB0
S3150000293012D11978082900F22A81DFE811F01B006C
S315000029403A00650080009900B400DC00F1001E0129
S315000029509B4BE8E79B4BE6E712F4007F04D0FD2291
S315000029605A7009221A7013E012F4806FF9D0FE2211
S315000029705A70F6E7618811F0100F10D02288120AFB
S3150000298002F0060242F0F00201211970C2624160B3
S315000029901A78092A00F00081012070BC704724884B
S315000029A004F0FE04224611F0020FEDD044F00102BD
S315000029B0EAE712F0800F16D112F0400FE8D040225D
S315000029C0C263628812F0100F16D112F0020F18D0EF
S315000029D007221A701A7904EBC2042289012AD7D178
S315000029E008224260D4E78022C263FF225A7008227E
S315000029F01A7002224260CBE702221A702278C26263
S31500002A00C6E705221A7090E712F0800F0BD112F07C
S31500002A10400FBDD04022C263628812F0020F0BD075
S31500002A2003221A7081E78022C263FF225A700822AD
S31500002A301A7002224260ABE705221A7075E76188B8
S31500002A4011F0100F10D02288120A02F0060242F08E
S31500002A50F00211F0040F01D042F0010204211970B6
S31500002A6001214160C26293E7228802F0FE02F0E78C
S31500002A7012F0800F0BD112F0400F89D04022C263B2
S31500002A80628812F0040F0BD007221A7080E78022AA
S31500002A90C263FF225A7008221A700222426077E748
S31500002AA005221A7041E759881A7904EBC2052D8967
S31500002AB0A94216D3002159800132D2B21A71618817
S31500002AC011F0040F0AD111F0010F02D1012A7FF68D
S31500002AD02CAF08221A700222426059E703221A70AC
S31500002AE023E704EBC20462684C1C5C80525CC26241
S31500002AF006221A704CE712F0800F08D112F0400F30
S31500002B003FF446AF4022C26305221A700DE78022C9
S31500002B10C263FF225A7008221A700222426037E707
S31500002B2012F0200F3FF434AF1E7904EBC60212896F
S31500002B30C169C9B25D88AA4205D904EBC6046468B6
S31500002B406E1C5E80615559888A4209D8012A04D0D4
S31500002B5008221A70022242601AE708224260F7E74A
S31500002B6004214160012A7FF613AF5988013A914248
S31500002B707FF40EAF082242600AE712F4807F3FF42A
S31500002B8007AF4FF48072C26309221A7000E7FB2276
S31500002B905A7009221A70FBE60022026493F901209A
S31500002BA0012A02D093F90100F7E600225A70F9E7EC
S31500002BB06FF00300704700BF00900840F414002037
S31500002BC0DC140020E8140020204B984231D003F595
S31500002BD0806398422FD003F5806398422DD11C4B19
S31500002BE010B5826812F0010F01D0202242604A8897
S31500002BF012F0020F01D00C8914B312F0040F01D0A9
S31500002C000A8A02B3044600221A70012058705A80BC
S31500002C101A719960C02363602046FFF7FBFD0D4BD8
S31500002C20E363236C43F4FC6323642046FFF76EFEE4
S31500002C3010BD094BD4E7094BD2E76FF0030070478C
S31500002C406FF00300F4E76FF00300F1E7009008402F
S31500002C50F4140020FFFF0700DC140020E814002015
S31500002C6041F080018165704770B5054616461C46E1
S31500002C70084629B9164B9D420BD01648FFF7F6FBBE
S31500002C80202C22D009D9402C1DD0602C1AD1042228
S31500002C9005E01148FFF7EAFBF2E79CB9102206FBB4
S31500002CA002F2530803EB4010B0FBF2F020380B4B56
S31500002CB003EAC0002B6823F060032B602B681C43DB
S31500002CC02C60686170BD0622E9E70822E7E700BFCD
S31500002CD0000801404041050050410700F8FF7F0011
S31500002CE0CB435B0003F00A03C360C160704700007A
S31500002CF040F6AA63C3600023036041F20502426006
S31500002D0083604361C364114A8264036643678367D1
S31500002D10C3670F4B984203D003F50063984201D175
S31500002D20002303650023836503F1804303F58233A3
S31500002D30984207D003F50063984203D003F58063F9
S31500002D40984201D10023C365704700BFF9FF010017
S31500002D500000014038B505460C46FFF7C9FFA37CC5
S31500002D601BB12B6843F080432B60E37C33BB637B52
S31500002D70228A1343E28913436B60237BA26861684E
S31500002D802846FFF771FF637D1BB12B6843F4803340
S31500002D902B60A37D1B0703F0E043E27D120502F4DE
S31500002DA0E00213432B666B6F23F030036B676B6F88
S31500002DB0227E13436B672378EB6038BD217D28465E
S31500002DC0FFF74EFFD3E7036913F0800FFBD0C0690E
S31500002DD0C0B27047036913F0400FFBD041637047E0
S31500002DE010B584B0044601211E48FEF76BFD23682A
S31500002DF01D4A934209D002F58062934207D002F53C
S31500002E00806293422CD1194802E0194800E0194823
S31500002E100121FEF757FD01230A2261792079FFF788
S31500002E209DFC01230A22E179A079FFF797FC23682C
S31500002E3003225A64637A217A226843EA012393645F
S31500002E4001238DF800308DF8013023690293E36881
S31500002E500193237D8DF80C3069462068FFF73AFD13
S31500002E6004B010BD40410500009008400032090042
S31500002E70001209000022090038B50546FFF7A4FE36
S31500002E80054B012806D15C1E23B12846FFF73EFDFF
S31500002E902346F6E738BD00BFE093040000207047E4
S31500002EA0FEE74FF400534B60002070470120704747
S31500002EB00020704770B50C460025561E4AB100F03A
S31500002EC0DDF8B0F1FF3F04D0207001353246013401
S31500002ED0F3E7002D01DD284670BD4FF0FF35FAE718
S31500002EE00346064A126822B1044A10680344136076
S31500002EF07047024A02491160F6E700BF001500203C
S31500002F00203D042070B51646002405E04D1C0878C7
S31500002F1000F0E8F801342946B442F7DB304670BDCC
S31500002F20024AD36C23F00403D364704700100140B7
S31500002F30024AD36C43F00403D36470470010014087
S31500002F4038B5104B1B6913F0800F19D00E4B1B6858
S31500002F50072B13DC0D4C25680A48FFF734FF0C4B92
S31500002F605855236801332360074A136801331360F9
S31500002F702368082B04D10022226001E0FFF7D0FF6E
S31500002F8038BD00BF001001401015002018150020A4
S31500002F900815002018B9044B00221A707047024B1E
S31500002FA001221A70704700BF0415002030B589B0A1
S31500002FB001212A48FEF786FC01212948FEF782FCFA
S31500002FC00123042211460720FFF7C8FB0123022232
S31500002FD005210720FFF7C2FB01AC224D0FCD0FC420
S31500002FE095E8070084E807000123042219461046E5
S31500002FF0FFF7B4FB01211C48FEF764FC002508A975
S3150000300001F81C5D194C2046FFF7A4FE03236367F5
S31500003010A36F23F4E06323F0070343F4806343F0D4
S315000030200403A3670423A364114A8021C2F8841110
S31500003030E36C43F00403E364516005212046FFF787
S315000030404FFE0C4B18682B4602222946806821F059
S31500003050A3FC094B01221A7009B030BD404105009E
S3150000306000550A00086F020000B20400001001407B
S3150000307000E100E09C0500200515002038B5154B41
S315000030801B78E3B1FFF762FB0546134B1B68002B69
S315000030901CDD124B1A6812498C5CE4B21A680132C4
S315000030A01A601B68082B0DD00B4A1368013B13608E
S315000030B0FFF73EFF2846FFF74DFB204638BDFFF7DA
S315000030C075FFDFE7054B00221A60EDE74FF0FF348E
S315000030D0F0E700BF0515002010150020141500208C
S315000030E00815002010B504460A4B1B7853B10A4B4D
S315000030F01B780BB10A2C08D021460848FFF76AFE58
S31500003100204610BDFFF752FFF1E70D210348FFF7F8
S3150000311061FEF1E7051500200415002000100140AE
S315000031201AB9084206D10020704731EA000303D0DD
S3150000313000207047012070470120704710B582B00B
S31500003140044680B120230193019B202B10D13CB172
S315000031502046002340F8043B00F0F4F801232377CF
S31500003160204602B010BD62210448FEF7C3F9E9E724
S315000031706A210248FEF7BEF9E9E700BF246F0200A4
S315000031802DE9F8430D4691469846089E074680B3BA
S3150000319015F07F4F33D1002D37D001F037FC08B939
S315000031A0002E38D101F02CF93C68424629462046CB
S315000031B0FFF7B6FFA8B3B9F1000F47D024EA05031D
S315000031C03B60002601F0C0F986B138B9294B4FF0B3
S315000031D080521A60BFF34F8FBFF36F8F01F006FD69
S315000031E0044610F0007F33D024F07F442046BDE82B
S315000031F0F8834FF4A0712048FEF77CF9C8E740F247
S3150000320041111D48FEF776F9C5E74FF4A1711A483A
S31500003210FEF770F9C1E740F245111748FEF76AF963
S31500003220C0E7002ECED0B9F1000F0CD10021B8F1C5
S31500003230000F01D041F0806132462943381D01F06C
S3150000324099FA0024BEE74FF08071F0E70026B9E74F
S3150000325002F020F93C68424629462046FFF760FF07
S3150000326028B1B9F1000F02D024EA05053D6002F04D
S3150000327033F9B9E704ED00E0246F020070B50C469F
S31500003280064660B114F07F4F0FD102F003F935689E
S3150000329025EA0404346002F01FF9284670BD4FF495
S315000032A0EA710548FEF726F9ECE740F2D511024827
S315000032B0FEF720F9E9E700BF246F0200F8B50D46D6
S315000032C0044660B115F07F4F0FD104F10C0601F0F2
S315000032D097F82069216829432160002716E040F20B
S315000032E012211748FEF706F9ECE740F213211448BD
S315000032F0FEF700F9E9E7216832EA010105D111E09C
S31500003300216841F0007101F0C1FA2846B0420ED0A2
S315000033104568036823F07F4213F0806FEBD1216884
S315000033201142F2D013F0807FEAD01743E8E7236812
S3150000333023EA0707276001F007F92068F8BD00BFF8
S31500003340246F020000F1080343604FF0FF328260F1
S31500003350C360036100230360704700230361704765
S3150000336043684B609A688A609A6851609960086100
S31500003370036801330360704730B40D68B5F1FF3F51
S3150000338002D000F1080202E0026904E01A4653681E
S315000033901C68AC42FAD953684B6099608A605160E8
S315000033A0086103680133036030BC704703694268F3
S315000033B0816891608268416851605A68824206D08D
S315000033C0002202611A68013A1A601868704782681A
S315000033D05A60F5E7436A23B1036B1868C0F107002A
S315000033E070470020704710B5044602F053F8A26BF0
S315000033F0E36B9A4204D0002402F06EF8204610BD1A
S315000034000124F9E710B5044602F044F8A36B23B192
S31500003410002402F061F8204610BD0124F9E770B5DA
S3150000342004461646856B026C5AB903681BB1002028
S315000034300135A56370BD806801F044FB0023A360DD
S31500003440F6E76EB9406820F0D6FE226C6368134436
S315000034506360A268934219D3236863600020E7E79C
S31500003460C06820F0C8FE226C5242E3681344E36051
S3150000347021688B4202D2A3681A44E260022E01D070
S315000034800020D5E725B1013D0020D1E70020CFE798
S315000034900020CDE7026C72B110B5C3681344C36057
S315000034A08468A34201D30368C3600C46C168204602
S315000034B020F0A1FE10BD704738B5054601F0EAFFC1
S315000034C095F8454064B203E001F094FA013C64B219
S315000034D0002C08DD6B6A33B105F1240001F092F986
S315000034E00028F3D0F0E7FF2385F8453001F0F4FF1C
S315000034F001F0D0FF95F8444064B203E001F07AFA97
S31500003500013C64B2002C08DD2B6933B105F11000D3
S3150000351001F078F90028F3D0F0E7FF2385F844306E
S3150000352001F0DAFF38BD000038B50D460446D0B1CB
S3150000353001F0B0FF2168E26B236C03FB0210A06070
S315000035400020A0636160013A02FB0313E360FF23DE
S3150000355084F8443084F84530D5B923694BB901F075
S31500003560BBFF012038BD40F203110E48FDF7C2FF34
S31500003570DEE704F1100001F045F90028EFD00A4B10
S315000035804FF080521A60BFF34F8FBFF36F8FE6E79D
S3150000359004F11000FFF7D6FE04F12400FFF7D2FE77
S315000035A0DDE700BF8C6F020004ED00E038B51D4674
S315000035B0049C0B4649B12260E06323640121204646
S315000035C0FFF7B2FF84F84C5038BD2460F4E70000E2
S315000035D0F0B585B00E4615461C460746C0B1ECB19F
S315000035E005B10EB335B350230393039B502B29D15A
S315000035F0039B54B1012384F8463000949DF828308B
S315000036002A4631463846FFF7D1FF204605B0F0BDC1
S315000036104FF49D710E48FDF76DFFE0E74FF49F7183
S315000036200B48FDF767FFDBE74FF4A1710848FDF78C
S3150000363061FFD7E7002ED6D040F243110448FDF7CC
S3150000364059FFD0E740F24B110148FDF753FFCFE792
S315000036508C6F0200F0B583B00E4617460546A0B142
S3150000366006FB05F0503001F0DDFD044650B10023A5
S3150000367080F8463000903B4600F15002314628461D
S31500003680FFF794FF204603B0F0BD4FF4BB7102482C
S31500003690FDF730FFE4E700BF8C6F020070B582B023
S315000036A00D461646044678B1AC4213D30223009366
S315000036B03346002211462046FFF78AFF034600B133
S315000036C08563184602B070BD40F2B2210448FDF78A
S315000036D011FFE9E740F2B3210148FDF70BFFE5E7EB
S315000036E08C6F0200F0B585B00F4601921E46044667
S315000036F048B177B1022E15D001F088F908B9019BBF
S31500003700CBB9002557E040F2EA214E48FDF7F2FE1C
S31500003710EFE7236C002BEDD040F2EB214948FDF793
S31500003720E9FEE7E7E36B012BE6D04FF43B71454832
S31500003730FDF7E0FEE0E740F2EF214248FDF7DAFE52
S31500003740DFE7324639462046FFF769FE636A6BB902
S3150000375038B13D4B4FF080521A60BFF34F8FBFF325
S315000037606F8F01F0B9FE012005B0F0BD04F1240011
S3150000377001F048F80028F4D0334B4FF080521A601D
S31500003780BFF34F8FBFF36F8FEBE701F0A5FE00206D
S31500003790EAE702A801F0D8F8012519E0002384F829
S315000037A0443021E0002384F8453023E02046FFF72B
S315000037B083FE00F0C9FE01F06DFEA26BE36B9A4238
S315000037C0BFD3022EBDD0019B002BDED0002DE0D052
S315000037D001F082FE00F014FE01F05CFE94F8443025
S315000037E05BB2B3F1FF3FD9D094F845305BB2B3F189
S315000037F0FF3FD7D001F070FE01A902A801F0B0F892
S31500003800C8B92046FFF7EFFD0028CFD0019904F193
S31500003810100000F095FF2046FFF74EFE00F094FEE4
S315000038200028C8D1084B4FF080521A60BFF34F8F63
S31500003830BFF36F8FBFE72046FFF73EFE00F084FE22
S31500003840002091E78C6F020004ED00E048B108B556
S31500003850002181600160C1600B460A46FFF742FF06
S3150000386008BD704710B5024600210120FFF7F2FEA1
S315000038700446FFF7EBFF204610BD10B582B000905E
S315000038800B46002211460120FFF7A2FE0446FFF771
S31500003890DDFF204602B010BD38B5044630B1A5683C
S315000038A001F0AEF8854207D0002038BD40F2522123
S315000038B00848FDF71FFEF2E7E368013BE3600BB142
S315000038C00120F2E71A4619462046FFF70BFF0120B2
S315000038D0EBE700BF8C6F02002DE9F8430F469146D7
S315000038E01E460446C8B1F7B1022E25D001F0EAFE05
S315000038F0EFF311884FF0200383F31188BFF36F8F26
S31500003900BFF34F8FA26BE36B9A421ED3022E1CD0DD
S31500003910002088F31188BDE8F8834FF46F711E48C4
S31500003920FDF7E8FDDFE7236C002BDDD040F2BD316B
S315000039301948FDF7DFFDD7E7E36B012BD6D040F240
S31500003940BE311548FDF7D6FDD0E794F845506DB267
S31500003950A36B324639462046FFF761FDB5F1FF3FBE
S3150000396005D001356DB284F845500120D1E7636A70
S315000039700BB90120CDE704F1240000F043FF30B17C
S31500003980B9F1000F05D00120C9F80000C1E70120F8
S31500003990BFE70120BDE700BF8C6F020070B50E4681
S315000039A0044608B3236C2BBB23684BB301F08AFE95
S315000039B0EFF311854FF0200383F31188BFF36F8F68
S315000039C0BFF34F8FA26BE36B93422FD994F8453028
S315000039D05BB20132A263B3F1FF3F1AD001335BB28F
S315000039E084F84530012022E040F264411348FDF797
S315000039F081FDD7E74FF48D611048FDF77BFDD3E7D6
S31500003A00A368002BD2D040F26D410C48FDF772FD41
S31500003A10CCE7636A0BB9012009E004F1240000F049
S31500003A20F1FE38B146B10120306000E0002085F398
S31500003A30118870BD0120FAE70120F8E78C6F0200BB
S31500003A40F0B585B00F460192044638B167B100F073
S31500003A50DDFF08B9019B83B9002651E040F204510D
S31500003A604748FDF747FDF1E7236C002BEFD04FF4F5
S31500003A70A1614348FDF73EFDE9E740F20D5140489C
S31500003A80FDF738FDE8E739462046FFF703FD013D1F
S31500003A90A563236923B901F01FFD012005B0F0BD20
S31500003AA004F1100000F0AEFE0028F4D0354B4FF0C4
S31500003AB080521A60BFF34F8FBFF36F8FEBE701F0B1
S31500003AC00BFD0020EAE702A800F03EFF012621E0F8
S31500003AD0002384F8443029E0002384F845302BE0A5
S31500003AE02046FFF7E9FC00F02FFD09E02046FFF72E
S31500003AF0E3FC00F029FD2046FFF784FC00283DD1B9
S31500003B0001F0C8FCA56B002DBDD1019B002BD6D0C2
S31500003B10002ED8D001F0E0FC00F072FC01F0BAFCF7
S31500003B2094F844305BB2B3F1FF3FD1D094F84530FE
S31500003B305BB2B3F1FF3FCFD001F0CEFC01A902A8E2
S31500003B4000F00EFF0028D1D12046FFF75BFC0028CD
S31500003B50C6D0019904F1240000F0F2FD2046FFF7DB
S31500003B60ABFC00F0F1FC0028CAD1064B4FF08052A6
S31500003B701A60BFF34F8FBFF36F8FC1E700208DE749
S31500003B808C6F020004ED00E070B584B0019104462C
S31500003B9048B1236C6BB900F039FF08B9019B73B9C2
S31500003BA00026354661E040F295515848FDF7A2FCE3
S31500003BB0EFE740F299515548FDF79CFCEBE740F2E0
S31500003BC09E515248FDF796FCEAE7013BA363236842
S31500003BD03BB123694BB901F07FFC0126304604B0A6
S31500003BE070BD01F00FF8A060F3E704F1100000F0DB
S31500003BF009FE0028EFD0464B4FF080521A60BFF303
S31500003C004F8FBFF36F8FE6E71EB901F065FC002604
S31500003C10E4E740F2E5513D48FDF76CFCF5E702A804
S31500003C2000F092FE01252AE0002384F8443032E0B9
S31500003C30002384F8453034E001F02CFCA06800F045
S31500003C40F5FE064601F048FC3BE02046FFF734FC53
S31500003C5000F07AFC09E02046FFF72EFC00F074FC29
S31500003C602046FFF7CFFB002840D101F013FCA36BE1
S31500003C70002BAAD1019B002BC6D0002DCFD001F07E
S31500003C802BFC00F0BDFB01F005FC94F844305BB260
S31500003C90B3F1FF3FC8D094F845305BB2B3F1FF3FB4
S31500003CA0C6D001F019FC01A902A800F059FE0028AF
S31500003CB0D1D12046FFF7A6FB0028C6D02368002BEB
S31500003CC0BAD0019904F1240000F03AFD2046FFF72E
S31500003CD0F3FB00F039FC0028C7D10D4B4FF08052A2
S31500003CE01A60BFF34F8FBFF36F8FBEE7002E3FF40E
S31500003CF075AF01F0CFFB2046FFF76CFB0146A068CD
S31500003D0000F024FF01F0E8FB002667E78C6F020055
S31500003D1004ED00E070B50E46044670B1A56800F0EB
S31500003D206FFE85420FD031462046FFF72DFF034632
S31500003D3068B1E2680132E26009E040F28921054893
S31500003D40FDF7D8FBEAE7E3680133E3600123184691
S31500003D5070BD00BF8C6F02002DE9F843884691467E
S31500003D600446A8B1B8F1000F18D001F0ABFCEFF390
S31500003D7011874FF0200383F31188BFF36F8FBFF3D2
S31500003D804F8FA56B9DB9002087F31188BDE8F88396
S31500003D9040F2FF611948FDF7ADFBE3E7236C002B0A
S31500003DA0E3D04FF4E0611548FDF7A4FBDDE794F896
S31500003DB0446076B241462046FFF76CFB013DA563A1
S31500003DC0B6F1FF3F05D0013676B284F84460012093
S31500003DD0DAE723690BB90120D6E704F1100000F0F9
S31500003DE011FD30B1B9F1000F05D00120C9F800006E
S31500003DF0CAE70120C8E70120C6E700BF8C6F0200B2
S31500003E0010B5044630B101F045FBA46B01F064FB2C
S31500003E10204610BD40F28E710148FDF76BFBF2E7BC
S31500003E208C6F020010B5044618B194F8463033B1D1
S31500003E3010BD40F2BB710448FDF75CFBF5E7204678
S31500003E4001F07EFAF4E700BF8C6F020070B50446FD
S31500003E500D46164601F01EFB94F844305BB2B3F1F2
S31500003E60FF3F0DD094F845305BB2B3F1FF3F0BD066
S31500003E7001F032FBA36B5BB12046FFF71DFB70BD63
S31500003E80002384F84430EDE7002384F84530EFE75B
S31500003E903246294604F1240000F096FCECE70000C7
S31500003EA0084B1B681B683BB1064B1B68DB68DB686D
S31500003EB05A68054B1A607047034B4FF0FF321A6081
S31500003EC0704700BF20150020F01500202DE9F047AF
S31500003ED080460D4616469946DDF820A0099F0A9CA5
S31500003EE09200A521206B20F0AAF9236B06F18042EF
S31500003EF0013A03EB820626F00706666435B3002313
S31500003F000E2B07D8E95CE21882F83410EA5C0AB195
S31500003F100133F5E7002384F84230BAF1060F01D9E0
S31500003F204FF0060AC4F82CA0C4F850A00025656519
S31500003F30201DFFF712FA04F11800FFF70EFA2461AC
S31500003F40CAF10703A36164622B4609E0002384F8E3
S31500003F503430E2E703F11602002144F8221001335F
S31500003F60022BF7D90023636684F8683084F86A3038
S31500003F704A464146304601F065FA206007B13C608A
S31500003F80BDE8F08738B5002407E004EB840293000F
S31500003F900E481844FFF7D6F90134062CF5D90C4D16
S31500003FA02846FFF7CFF90B4C2046FFF7CBF90A4816
S31500003FB0FFF7C8F90948FFF7C5F90948FFF7C2F93D
S31500003FC0084B1D60084B1C6038BD00BF281500203B
S31500003FD0C8150020DC150020FC150020281600203E
S31500003FE014160020201500202415002010B50446C4
S31500003FF001F050FA214A136801331360204B1B6805
S315000040005BB1204B1B686BB91D4B1B68DA6AE36A10
S315000040109A4207D81A4B1C6004E0194B1C601368BF
S31500004020012B27D0184A136801331360A364E36A8F
S31500004030164A1268934201D9144A136003EB8303AC
S315000040409A00211D12481044FFF78AF901F044FA3C
S315000040500C4B1B686BB10A4B1B68DA6AE36A9A421F
S3150000406007D20C4B4FF080521A60BFF34F8FBFF34D
S315000040706F8F10BDFFF786FFD4E700BFB415002091
S315000040801C15002010160020C0150020C4150020A5
S315000040902815002004ED00E010B5044690F86930BC
S315000040A04BB1012B0ED0022B04D040F65D710748B0
S315000040B0FDF720FA10BD006B01F042F9204601F031
S315000040C03FF9F7E701F03CF9F4E700BFEC6F0200B7
S315000040D00F4B1B68D3B110B501F0DCF90D4BDB6853
S315000040E0DC68201DFFF762F90B4A1368013B136079
S315000040F0074A1368013B136001F0EEF92046FFF70B
S31500004100CBFF034B1B68002BE6D110BD704700BFE9
S31500004110B815002028160020B415002070B50446F6
S315000041200E46194B1D68194B1A68002182F86A1051
S3150000413018680430FFF73AF9B4F1FF3F13D02C4466
S31500004140124B1B685C60A54216D8114B18680F4BC2
S3150000415019680431FFF710F90E4B1B68A34212D9F8
S315000041600C4B1C600FE0002EE9D0084B1968043197
S315000041700948FFF7F5F806E0084B1868034B19687D
S315000041800431FFF7F9F870BD3C1600201C1500201D
S3150000419020150020F01500201416002024150020FC
S315000041A008B501E0FDF790F9FFF792FF064B1B6893
S315000041B0012BF7D9054B4FF080521A60BFF34F8F92
S315000041C0BFF36F8FEEE700BF2815002004ED00E077
S315000041D02DE9F04387B006460F46904699460F9D57
S315000041E0109C75B19CB16C230493049B6C2B14D169
S315000041F0049B04B1BDB900230593059807B0BDE83B
S31500004200F0834FF414711248FDF774F9EAE740F2AF
S3150000421051210F48FDF76EF9E5E740F259210C48A8
S31500004220FDF768F9E4E72563022384F86930002383
S315000042300393029405AB01930E9B00934B464246B3
S3150000424039463046FFF742FE2046FFF7CFFED4E759
S31500004250EC6F02002DE9F04385B007468846154607
S315000042609946900000F0DEFF08B306466C2000F089
S31500004270D9FF0446B8B10663E4B1002384F8693077
S31500004280039302940D9B01930C9B00934B462A4685
S3150000429041463846FFF71AFE2046FFF7A7FE0120E3
S315000042A005B0BDE8F083304601F04AF8E4E74FF088
S315000042B0FF30F5E74FF0FF30F2E7000038B504466F
S315000042C001F0E8F824B3251D2846FFF76FF8A36A26
S315000042D01BB104F11800FFF769F81C4A1368013393
S315000042E013601B4B1B68A34215D01A4A1368013B87
S315000042F013602046FFF7D0FEFFF7D2FD01F0ECF881
S31500004300154B1B681BB1124B1B68A3420CD038BD62
S315000043100F4B1C68D7E729461048FFF721F8104ACB
S31500004320136801331360E9E70E4B1B6843B90E4B64
S315000043304FF080521A60BFF34F8FBFF36F8FE6E7DF
S3150000434040F2DA410948FDF7D5F8F0E7C01500203C
S315000043501C150020B4150020101600202816002079
S31500004360B8150020BC15002004ED00E0EC6F02003B
S3150000437010B588B000240594069407AA06A905A8D6
S31500004380FBF740FF059B0293069B0193009423468F
S31500004390079A15491548FFF71BFF40B100F0CAFC04
S315000043A0012806D0B0F1FF3F18D008B010BD00209C
S315000043B0F6E74FF0200383F31188BFF36F8FBFF347
S315000043C04F8F0B4B4FF0FF321A600A4B01221A60D7
S315000043D0094B00221A6001F0F5F8E6E740F62A01DB
S315000043E00648FDF787F8E0E74C700200A14100009F
S315000043F0F0150020101600203C160020EC6F02007D
S31500004400024A136801331360704700BFBC150020D1
S31500004410014B1868704700BF3C160020F8B53E4BAC
S315000044201B68002B6DD13D4B1D6801351D607DB9A4
S315000044303B4B1B681B682BBB394A1168394B186804
S3150000444010601960384A136801331360FFF728FDBE
S31500004450364B1B68AB4247D90027354B1B68DB6AD6
S3150000446003EB83039A00334B9B58012B00D901279A
S31500004470314B1B68002B41D0304B1B68002B48D1B9
S315000044803846F8BD40F6A9212D48FDF733F8D3E7A5
S315000044900127234B1B681B6843B3214B1B68DB6852
S315000044A0DC6863689D4226D3261D3046FEF77EFFF4
S315000044B0A36A1BB104F11800FEF778FFE36A214AEC
S315000044C01268934201D91F4A136003EB83039A00D3
S315000044D0314618481044FEF743FFE26A144B1B6846
S315000044E0DB6A9A42D4D2D4E70027D2E70F4B4FF0CB
S315000044F0FF321A60B1E70D4A1360AEE7FCF7E0FF42
S31500004500BAE70D4A136801331360FCF7D9FF002799
S31500004510B6E70127B4E700BFBC1500203C16002013
S315000045202015002024150020F4150020F015002089
S315000045301C15002028150020F81500204016002024
S31500004540EC6F0200C415002038B5344B1B68002BF5
S3150000455033D000F09FFF314B1A68013A1A601B688E
S31500004560002B53D12E4B1B686BB300242D4B1B68BD
S315000045705BB32C4BDB68DC6804F11800FEF716FF12
S31500004580251D2846FEF712FFE36A274A1268934262
S3150000459001D9254A136003EB83039A002946234871
S315000045A01044FEF7DDFEE26A214B1B68DB6A9A4285
S315000045B0DCD3204B01221A60D8E740F699011E4849
S315000045C0FCF798FFC5E7002421E00CB1FFF768FC73
S315000045D01A4B1C6874B9174B1B68E3B1184B4FF0A4
S315000045E080521A60BFF34F8FBFF36F8F01240EE026
S315000045F0013C07D0FFF712FF0028F9D00D4B01222E
S315000046001A60F5E70D4B00221A60E4E7002400F07B
S3150000461063FF204638BD0024F9E700BFBC15002023
S31500004620B4150020FC150020C41500202815002014
S315000046301C15002040160020EC6F0200F815002023
S3150000464004ED00E010B560B104460D4B1B688BB954
S31500004650FFF7D6FE00212046FFF760FDFFF774FF47
S3150000466038B9084B4FF080521A60BFF34F8FBFF333
S315000046706F8F10BD40F244510348FCF73BFFE7E75C
S31500004680BC15002004ED00E0EC6F0200264B1B6811
S315000046906BB910B5254B00221A60254B1A681268B3
S315000046A01B681B6B9A4206D9224B1C680BE01F4BFA
S315000046B001221A6070471E4B186819683431FBF7DF
S315000046C051FEF1E7013C04EB840293001A4AD358E9
S315000046D03BB9002CF6D140F6E1311848FCF70AFF49
S315000046E0F0E71146A300181982000A445068406892
S315000046F0506023449A000832114488420BD004EBE0
S3150000470084039A000C4B13445B68DA68084B1A6002
S31500004710084B1C6010BD416804EB84039A00064BED
S3150000472013445960EBE700BFBC150020401600207B
S315000047301C150020C415002028150020EC6F02006F
S3150000474038B50C46054650B1084B1968183128464D
S31500004750FEF712FE01212046FFF7E0FC38BD40F6C9
S31500004760FA310348FCF7C6FEEEE700BF1C15002031
S31500004770EC6F020070B50C461546064688B10F4B25
S315000047801B68A3B10E4B1A6844F000449461196883
S3150000479018313046FEF7E4FD01212846FFF7BEFC3E
S315000047A070BD40F60B410748FCF7A4FEE7E740F66C
S315000047B00F410448FCF79EFEE4E700BFBC1500204D
S315000047C01C150020EC6F020070B50D461446064617
S315000047D068B10A4B196818313046FEF7C1FD0CB1B5
S315000047E04FF0FF3521462846FFF798FC70BD40F68E
S315000047F025410348FCF77EFEEBE700BF1C150020B1
S31500004800EC6F020038B5C368DC6824B304F1180500
S315000048102846FEF7CBFD164B1B6813BB251D284605
S31500004820FEF7C4FDE36A134A1268934201D9114A9E
S31500004830136003EB83039A0029460F481044FEF7E2
S315000048408FFDE26A0D4B1B68DB6A9A420ED9012086
S315000048500B4B186038BD40F655410A48FCF74AFE36
S31500004860D4E729460848FEF77BFDEAE70020F1E792
S31500004870BC150020C4150020281500201C1500209A
S3150000488040160020EC6F0200FC15002038B50546E6
S315000048900C461A4B1B6823B344F000442C60EC68AA
S315000048A02CB32846FEF782FD251D2846FEF77EFD21
S315000048B0E36A134A1268934201D9114A136003EB63
S315000048C083039A0029460F481044FEF749FDE26A21
S315000048D00D4B1B68DB6A9A4202D90C4B01221A6007
S315000048E038BD40F68C410A48FCF704FED4E740F692
S315000048F094410748FCF7FEFDD3E700BFBC15002036
S31500004900C4150020281500201C1500204016002084
S31500004910EC6F020010B5044650B100F0BBFD074B2A
S315000049201B682360064B1B68636000F0D5FD10BD55
S3150000493040F6B8410348FCF7DDFDEEE7F41500202C
S315000049403C160020EC6F0200034B1B680360034B10
S315000049501B684360704700BFF41500203C1600201A
S31500004960F8B50C460546E0B10CB300F093FD1D4BBF
S315000049701B686A68981A1C49096891F86A10E1B9B7
S315000049802168B1F1FF3F29D02F68184E3668B7422B
S3150000499001D09A4224D9814219D8002323600124E8
S315000049A011E040F6CE411248FCF7A4FDDCE740F6E4
S315000049B0CF410F48FCF79EFDD7E70B4B1B68002243
S315000049C083F86A20012400F087FD2046F8BD091A05
S315000049D021602846FFF7B8FF0024F4E70024F2E739
S315000049E00124F0E73C1600201C150020F4150020D9
S315000049F0EC6F0200014B01221A607047401600203E
S31500004A00014B1868704700BF1C150020054B1B683A
S31500004A1033B1054B1B680BB100207047022070476D
S31500004A200120704710160020BC150020002840D039
S31500004A3038B50546C26A20490968C96A8A422ED233
S31500004A408169002905DB1C490968C96AC1F10701AA
S31500004A508161686902EB82029100184A0A44904219
S31500004A6005D0154A1268D26AEA62012038BD2C1DAB
S31500004A702046FEF79BFC104B1B68DB6AEB62104A74
S31500004A801268934201D90E4A136003EB83039A001E
S31500004A9021460A481044FEF763FC0120E6E7026D52
S31500004AA0054B1B68DB6A9A4201D20120DEE7002033
S31500004AB0DCE70020704700BF1C15002028150020E9
S31500004AC0C4150020002835D038B504461B4B1B689A
S31500004AD0834204D041F213011948FCF70BFD636DC4
S31500004AE04BB1636D013B6365E16A226D914223D050
S31500004AF03BB1002038BD41F214011148FCF7FAFC25
S31500004B00EFE7251D2846FEF751FC236DE362C3F14E
S31500004B100702A2610B4A1268934201D9094A13603F
S31500004B2003EB83039A00294607481044FEF718FC56
S31500004B300120DFE7002070470020DBE71C1500207E
S31500004B40EC6F0200C415002028150020002843D071
S31500004B5070B504460D46436D53B1266DAE4200D284
S31500004B602E46E36AB34202D0636D012B06D070BDB8
S31500004B7041F262011948FCF7BDFCEEE7184B1B68D1
S31500004B80A34223D0E36AE662A269002A02DBC6F1E9
S31500004B900706A661616903EB83039A00114B134470
S31500004BA09942E4D1251D2846FEF700FCE36A0E4A29
S31500004BB01268934201D90C4A136003EB83039A00EF
S31500004BC0294608481044FEF7CBFBD0E741F27D01A9
S31500004BD00248FCF78FFCD5E7704700BFEC6F020078
S31500004BE01C15002028150020C4150020044A13684F
S31500004BF098691368DB6A1268C3F10703936170470B
S31500004C001C150020054B1B6823B1044B1A68536D15
S31500004C1001335365014B1868704700BF1C1500200F
S31500004C20064B1A6813682BB90123036023B9D368AE
S31500004C30186870470023F8E70020704744160020E4
S31500004C4008B54160006191420CD8D21A83699A4234
S31500004C5001D3012010E0011D094B1868FEF78CFBFB
S31500004C60002009E09A4201D2994206D2011D054B65
S31500004C701868FEF781FB002008BD0120FCE700BF95
S31500004C80481600204416002030B583B000F002FC20
S31500004C900E4B1B681BB100F01FFC03B030BD0C4D62
S31500004CA02846FEF74FFB0B4C2046FEF74BFB0A4B04
S31500004CB01D600A4B1C6000230093094B094A102112
S31500004CC00520FEF785FC014B1860E4E71817002065
S31500004CD09C160020B016002044160020481600201E
S31500004CE0C81600204C1600202DE9F04180461546D6
S31500004CF01E46079C0F46A1B18CB1FFF7C5FFC4F84D
S31500004D000080A761E661069B2362201DFEF725FB56
S31500004D102DB194F8283043F0040384F82830BDE818
S31500004D20F08140F265110248FCF7E4FBE4E700BFBE
S31500004D305470020010B588B0FFF7A6FF114B1B6830
S31500004D40C3B100240594069407AA06A905A8FBF793
S31500004D5065FA059B0293069B01930623009323465F
S31500004D60079A09490948FFF733FA094B186008B151
S31500004D70012005E040F213110648FCF7BBFB0020BA
S31500004D8008B010BD18170020B4700200F5500000DE
S31500004D901C170020547002002DE9F04184B005462E
S31500004DA00E46174698460B9C2C230393039B2C2BED
S31500004DB012D1039BB4B15CB1022384F8283001946C
S31500004DC00A9B009343463A4631462846FFF78CFF36
S31500004DD0204604B0BDE8F0814FF4A2710448FCF708
S31500004DE089FBE6E74FF4A5710148FCF783FBE2E790
S31500004DF054700200F0B585B00C4616461F460546AF
S31500004E0098B1154B186828B3009401960295052CA5
S31500004E1019DCFFF7FBFD02280DD000231A46694670
S31500004E200D480068FEF75EFC12E04FF4C1710B48B6
S31500004E30FCF760FBE5E700230A9A69460648006826
S31500004E40FEF750FC04E000233A466946FEF744FDAF
S31500004E5005B0F0BD0020FBE71817002054700200D3
S31500004E6070B582B01A4B1B681A684AB3DB681E68B5
S31500004E70DC68251D2846FEF799FA236A20469847DE
S31500004E8094F8283013F0040FECD0A36933449E4203
S31500004E9007D26360246129460D4B1868FEF76CFA49
S31500004EA0E0E7002100910B4632462046FFF7A2FFBD
S31500004EB00028D7D140F29D310648FCF71BFBD1E70D
S31500004EC0054A106802490860136002B070BD00BF51
S31500004ED044160020547002004816002038B50546D6
S31500004EE0FFF796FA0446074B1B68834205D8002352
S31500004EF02B60044B1C60204638BDFFF7B1FF012331
S31500004F002B60F6E7C416002070B582B005460E4643
S31500004F10164B1B68DB68DC68201DFEF747FA94F821
S31500004F20283013F0040F08D123F0010384F8283049
S31500004F30236A2046984702B070BDA1692B463246C7
S31500004F4029442046FFF77CFE0028F1D0002100917D
S31500004F500B462A462046FFF74DFF0028E8D140F2CF
S31500004F6011210348FCF7C6FAE2E700BF4416002009
S31500004F705470020070B582B006460C46FFF740FA40
S31500004F8001A8FFF7ABFF019B23BB05460CB9B04256
S31500004F9017D224B1114B1B681B68CBB901242246DA
S31500004FA0711B0F4B1868FEF751FFFFF7CDFA98B942
S31500004FB00C4B4FF080521A60BFF34F8FBFF36F8FC9
S31500004FC00AE0FFF7C1FA29463046FFF79DFF03E0E6
S31500004FD00024E4E7FFF7B8FA02B070BD48160020D7
S31500004FE01817002004ED00E030B589B002E0049BFC
S31500004FF0002B0FDA002204A93C4B1868FEF720FDAF
S31500005000002870D0049B002BF1DA07990698059BBF
S315000050109847ECE7069C636913B1201DFEF7C6F9B5
S3150000502003A8FFF75BFF0546049B092BE2D8DFE8E0
S3150000503003F00505052E354C05052E3594F8283068
S3150000504043F0010384F828300599A0690B462A46E7
S3150000505001442046FFF7F4FD0028CBD0236A204602
S31500005060984794F8283013F0040FC3D0A2690021A2
S3150000507000910B46059802442046FFF7BBFE002828
S31500005080B8D14FF44B711A48FCF734FAB2E794F8EA
S31500005090283023F0010384F82830ABE794F8283051
S315000050A043F0010384F82830059BA3613BB1A16955
S315000050B02B462A4629442046FFF7C2FD9AE74FF4BD
S315000050C051710B48FCF716FAF1E794F8283013F003
S315000050D0020F04D023F0010384F828308AE7204623
S315000050E000F02EF986E709B030BD00BF1817002082
S315000050F05470020000B583B0FCF744FA01A8FFF72C
S315000051008FFD0199FFF736FFFFF76EFFF6E7000008
S3150000511010B5044658B100F0BDF994F8283013F0E4
S31500005120010F0AD0012400F0D7F9204610BD40F245
S31500005130E5310348FCF7DEF9EDE70024F3E700BFAD
S315000051405470020010B5044630B100F0A3F9E469CA
S3150000515000F0C2F9204610BD40F2FE310148FCF7CE
S31500005160C9F9F2E754700200124A12F0070F1ED076
S31500005170D11D21F00701C1F57A3313440A460E48C2
S315000051800260002141601344083B23F007030B48EB
S31500005190036059601960991A51601360084B1960D1
S315000051A0084B1960084B4FF000421A6070474FF4E5
S315000051B07A33E4E72417002038FF03202017002065
S315000051C02CFF032028FF032024FF032010B4134ADA
S315000051D000E01A4613688342FBD351685418844290
S315000051E00AD041684418A3420BD00360904200D015
S315000051F010605DF8044B70474068014451601046EA
S31500005200EFE7074C2468A34206D05B681944416067
S3150000521013681B680360E9E70460E7E738FF0320CB
S3150000522020170020F8B50546FFF7EAF83D4B1B6846
S31500005230B3B13D4B1B681D4215D14DB1083515F074
S31500005240070F05D025F00705083505F00703A3B9B4
S31500005250C5B1364B1B68AB4218D3354A14681BE000
S31500005260FFF782FFE5E7FFF76FF90026FBF766F821
S3150000527016F0070F50D13046F8BD97212D48FCF7A0
S3150000528039F9E5E7FFF760F90026EFE7FFF75CF984
S315000052900026EBE722461C466368AB4202D223682F
S315000052A0002BF7D11F4B1B68A3422CD0166808367B
S315000052B02368136063685B1B102B0AD9671917F004
S315000052C0070F24D163685B1B7B6065603846FFF778
S315000052D07DFF626815490B689B1A0B6016490968C1
S315000052E08B4201D214490B600F4B1B68134363605A
S315000052F000232360114A136801331360FFF724F972
S31500005300002EB5D1B2E7FFF71FF90026AEE7C4219C
S315000053100848FCF7EFF8D5E740F205110548FCF719
S31500005320E9F8A8E72017002024FF032028FF032020
S3150000533038FF0320BC7002002CFF032030FF03203F
S31500005340002837D038B50446A0F1080550F8042CDB
S31500005350194B1B681A4211D054F8083C23B14FF47C
S315000053608D711648FCF7C6F854F8043C124A1268C8
S31500005370134202D054F8081C31B138BD40F219115D
S315000053800E48FCF7B7F8E7E723EA020344F8043CC3
S31500005390FFF736F854F8041C094A13680B441360E7
S315000053A02846FFF713FF074A136801331360FFF718
S315000053B0CBF8E2E7704700BF24FF0320BC70020071
S315000053C028FF032034FF032008480068006880F3A4
S315000053D008884FF0000080F3148862B661B6BFF308
S315000053E04F8FBFF36F8F00DF00BF000008ED00E0B6
S315000053F0DFF80C00016841F470010160704700009D
S3150000540088ED00E000B583B0002301930B4B1B68C9
S31500005410B3F1FF3F0DD14FF0200383F31188BFF3A3
S315000054206F8FBFF34F8F019B002BFCD003B05DF84D
S3150000543004FBE3210248FCF75DF8ECE718000020C6
S315000054402C7102004FF0807340F8043C21F00101FA
S3150000545040F8081C054B40F80C3C40F8202C6FF037
S31500005460020340F8243C4438704700BF055400004E
S31500005470074B19680868B0E8F04F80F30988BFF356
S315000054806F8F4FF0000080F311887047AFF30080F4
S315000054901C15002008B54FF0200383F31188BFF3D5
S315000054A06F8FBFF34F8F094A136801331360012BC7
S315000054B000D008BD064B1B6813F0FF0FF9D040F271
S315000054C09F110448FCF716F8F3E700BF1800002008
S315000054D004ED00E02C71020008B5084B1B683BB1D7
S315000054E0064A1368013B13600BB983F3118808BDA4
S315000054F04FF4D3710248FBF7FDFFF1E718000020D7
